{
  "abi": [
    {
      "inputs": [],
      "stateMutability": "nonpayable",
      "type": "constructor"
    },
    {
      "anonymous": false,
      "inputs": [
        {
          "indexed": true,
          "internalType": "address",
          "name": "owner",
          "type": "address"
        },
        {
          "indexed": true,
          "internalType": "address",
          "name": "spender",
          "type": "address"
        },
        {
          "indexed": false,
          "internalType": "uint256",
          "name": "value",
          "type": "uint256"
        }
      ],
      "name": "Approval",
      "type": "event"
    },
    {
      "anonymous": false,
      "inputs": [
        {
          "indexed": false,
          "internalType": "address",
          "name": "sender",
          "type": "address"
        },
        {
          "indexed": false,
          "internalType": "uint256",
          "name": "amount",
          "type": "uint256"
        },
        {
          "indexed": false,
          "internalType": "uint256",
          "name": "refund",
          "type": "uint256"
        }
      ],
      "name": "Burned",
      "type": "event"
    },
    {
      "anonymous": false,
      "inputs": [
        {
          "indexed": false,
          "internalType": "uint8",
          "name": "version",
          "type": "uint8"
        }
      ],
      "name": "Initialized",
      "type": "event"
    },
    {
      "anonymous": false,
      "inputs": [
        {
          "indexed": false,
          "internalType": "address",
          "name": "sender",
          "type": "address"
        },
        {
          "indexed": false,
          "internalType": "uint256",
          "name": "amount",
          "type": "uint256"
        },
        {
          "indexed": false,
          "internalType": "uint256",
          "name": "deposit",
          "type": "uint256"
        }
      ],
      "name": "Minted",
      "type": "event"
    },
    {
      "anonymous": false,
      "inputs": [
        {
          "indexed": true,
          "internalType": "address",
          "name": "previousOwner",
          "type": "address"
        },
        {
          "indexed": true,
          "internalType": "address",
          "name": "newOwner",
          "type": "address"
        }
      ],
      "name": "OwnershipTransferred",
      "type": "event"
    },
    {
      "anonymous": false,
      "inputs": [
        {
          "indexed": true,
          "internalType": "address",
          "name": "from",
          "type": "address"
        },
        {
          "indexed": true,
          "internalType": "address",
          "name": "to",
          "type": "address"
        },
        {
          "indexed": false,
          "internalType": "uint256",
          "name": "value",
          "type": "uint256"
        }
      ],
      "name": "Transfer",
      "type": "event"
    },
    {
      "inputs": [],
      "name": "ADMIN_EXECUTE_PERMISSION_ID",
      "outputs": [
        {
          "internalType": "bytes32",
          "name": "",
          "type": "bytes32"
        }
      ],
      "stateMutability": "view",
      "type": "function"
    },
    {
      "inputs": [],
      "name": "admin",
      "outputs": [
        {
          "internalType": "address",
          "name": "",
          "type": "address"
        }
      ],
      "stateMutability": "view",
      "type": "function"
    },
    {
      "inputs": [
        {
          "internalType": "address",
          "name": "owner",
          "type": "address"
        },
        {
          "internalType": "address",
          "name": "spender",
          "type": "address"
        }
      ],
      "name": "allowance",
      "outputs": [
        {
          "internalType": "uint256",
          "name": "",
          "type": "uint256"
        }
      ],
      "stateMutability": "view",
      "type": "function"
    },
    {
      "inputs": [
        {
          "internalType": "address",
          "name": "spender",
          "type": "address"
        },
        {
          "internalType": "uint256",
          "name": "amount",
          "type": "uint256"
        }
      ],
      "name": "approve",
      "outputs": [
        {
          "internalType": "bool",
          "name": "",
          "type": "bool"
        }
      ],
      "stateMutability": "nonpayable",
      "type": "function"
    },
    {
      "inputs": [
        {
          "internalType": "address",
          "name": "account",
          "type": "address"
        }
      ],
      "name": "balanceOf",
      "outputs": [
        {
          "internalType": "uint256",
          "name": "",
          "type": "uint256"
        }
      ],
      "stateMutability": "view",
      "type": "function"
    },
    {
      "inputs": [
        {
          "internalType": "uint256",
          "name": "_amount",
          "type": "uint256"
        }
      ],
      "name": "burn",
      "outputs": [
        {
          "internalType": "uint256",
          "name": "",
          "type": "uint256"
        }
      ],
      "stateMutability": "nonpayable",
      "type": "function"
    },
    {
      "inputs": [
        {
          "internalType": "uint256",
          "name": "_supply",
          "type": "uint256"
        },
        {
          "internalType": "uint256",
          "name": "_reserveBalance",
          "type": "uint256"
        },
        {
          "internalType": "uint32",
          "name": "_reserveRatio",
          "type": "uint32"
        },
        {
          "internalType": "uint256",
          "name": "_depositAmount",
          "type": "uint256"
        }
      ],
      "name": "calculatePurchaseReturn",
      "outputs": [
        {
          "internalType": "uint256",
          "name": "",
          "type": "uint256"
        }
      ],
      "stateMutability": "view",
      "type": "function"
    },
    {
      "inputs": [
        {
          "internalType": "uint256",
          "name": "_supply",
          "type": "uint256"
        },
        {
          "internalType": "uint256",
          "name": "_reserve",
          "type": "uint256"
        }
      ],
      "name": "calculateReserveRatio",
      "outputs": [
        {
          "internalType": "uint32",
          "name": "",
          "type": "uint32"
        }
      ],
      "stateMutability": "view",
      "type": "function"
    },
    {
      "inputs": [
        {
          "internalType": "uint256",
          "name": "_supply",
          "type": "uint256"
        },
        {
          "internalType": "uint256",
          "name": "_reserveBalance",
          "type": "uint256"
        },
        {
          "internalType": "uint32",
          "name": "_reserveRatio",
          "type": "uint32"
        },
        {
          "internalType": "uint256",
          "name": "_sellAmount",
          "type": "uint256"
        }
      ],
      "name": "calculateSaleReturn",
      "outputs": [
        {
          "internalType": "uint256",
          "name": "",
          "type": "uint256"
        }
      ],
      "stateMutability": "view",
      "type": "function"
    },
    {
      "inputs": [],
      "name": "continuousSupply",
      "outputs": [
        {
          "internalType": "uint256",
          "name": "",
          "type": "uint256"
        }
      ],
      "stateMutability": "view",
      "type": "function"
    },
    {
      "inputs": [],
      "name": "dao",
      "outputs": [
        {
          "internalType": "contract IDAO",
          "name": "",
          "type": "address"
        }
      ],
      "stateMutability": "view",
      "type": "function"
    },
    {
      "inputs": [],
      "name": "decimals",
      "outputs": [
        {
          "internalType": "uint8",
          "name": "",
          "type": "uint8"
        }
      ],
      "stateMutability": "view",
      "type": "function"
    },
    {
      "inputs": [
        {
          "internalType": "address",
          "name": "spender",
          "type": "address"
        },
        {
          "internalType": "uint256",
          "name": "subtractedValue",
          "type": "uint256"
        }
      ],
      "name": "decreaseAllowance",
      "outputs": [
        {
          "internalType": "bool",
          "name": "",
          "type": "bool"
        }
      ],
      "stateMutability": "nonpayable",
      "type": "function"
    },
    {
      "inputs": [
        {
          "internalType": "uint256",
          "name": "_continuousTokenAmount",
          "type": "uint256"
        }
      ],
      "name": "getContinuousBurnRefund",
      "outputs": [
        {
          "internalType": "uint256",
          "name": "",
          "type": "uint256"
        }
      ],
      "stateMutability": "view",
      "type": "function"
    },
    {
      "inputs": [
        {
          "internalType": "uint256",
          "name": "_reserveTokenAmount",
          "type": "uint256"
        }
      ],
      "name": "getContinuousMintReward",
      "outputs": [
        {
          "internalType": "uint256",
          "name": "",
          "type": "uint256"
        }
      ],
      "stateMutability": "view",
      "type": "function"
    },
    {
      "inputs": [
        {
          "internalType": "address",
          "name": "spender",
          "type": "address"
        },
        {
          "internalType": "uint256",
          "name": "addedValue",
          "type": "uint256"
        }
      ],
      "name": "increaseAllowance",
      "outputs": [
        {
          "internalType": "bool",
          "name": "",
          "type": "bool"
        }
      ],
      "stateMutability": "nonpayable",
      "type": "function"
    },
    {
      "inputs": [
        {
          "internalType": "contract IDAO",
          "name": "_dao",
          "type": "address"
        },
        {
          "internalType": "address",
          "name": "_admin",
          "type": "address"
        },
        {
          "internalType": "address",
          "name": "_reserveToken",
          "type": "address"
        },
        {
          "internalType": "uint256",
          "name": "_initialReserve",
          "type": "uint256"
        },
        {
          "internalType": "uint32",
          "name": "_reserveRatio",
          "type": "uint32"
        },
        {
          "internalType": "address",
          "name": "_treasuryAddress",
          "type": "address"
        }
      ],
      "name": "initialize",
      "outputs": [],
      "stateMutability": "nonpayable",
      "type": "function"
    },
    {
      "inputs": [
        {
          "internalType": "address",
          "name": "forwarder",
          "type": "address"
        }
      ],
      "name": "isTrustedForwarder",
      "outputs": [
        {
          "internalType": "bool",
          "name": "",
          "type": "bool"
        }
      ],
      "stateMutability": "view",
      "type": "function"
    },
    {
      "inputs": [
        {
          "internalType": "uint256",
          "name": "mode",
          "type": "uint256"
        }
      ],
      "name": "manageYieldSurplus",
      "outputs": [],
      "stateMutability": "nonpayable",
      "type": "function"
    },
    {
      "inputs": [
        {
          "internalType": "uint256",
          "name": "_amount",
          "type": "uint256"
        }
      ],
      "name": "mint",
      "outputs": [
        {
          "internalType": "uint256",
          "name": "",
          "type": "uint256"
        }
      ],
      "stateMutability": "nonpayable",
      "type": "function"
    },
    {
      "inputs": [],
      "name": "name",
      "outputs": [
        {
          "internalType": "string",
          "name": "",
          "type": "string"
        }
      ],
      "stateMutability": "view",
      "type": "function"
    },
    {
      "inputs": [],
      "name": "owner",
      "outputs": [
        {
          "internalType": "address",
          "name": "",
          "type": "address"
        }
      ],
      "stateMutability": "view",
      "type": "function"
    },
    {
      "inputs": [],
      "name": "pluginType",
      "outputs": [
        {
          "internalType": "enum IPlugin.PluginType",
          "name": "",
          "type": "uint8"
        }
      ],
      "stateMutability": "pure",
      "type": "function"
    },
    {
      "inputs": [],
      "name": "renounceOwnership",
      "outputs": [],
      "stateMutability": "nonpayable",
      "type": "function"
    },
    {
      "inputs": [],
      "name": "reserveBalance",
      "outputs": [
        {
          "internalType": "uint256",
          "name": "",
          "type": "uint256"
        }
      ],
      "stateMutability": "view",
      "type": "function"
    },
    {
      "inputs": [],
      "name": "reserveRatio",
      "outputs": [
        {
          "internalType": "uint32",
          "name": "",
          "type": "uint32"
        }
      ],
      "stateMutability": "view",
      "type": "function"
    },
    {
      "inputs": [],
      "name": "reserveSurplus",
      "outputs": [
        {
          "internalType": "uint256",
          "name": "",
          "type": "uint256"
        }
      ],
      "stateMutability": "view",
      "type": "function"
    },
    {
      "inputs": [],
      "name": "reserveToken",
      "outputs": [
        {
          "internalType": "contract ERC20",
          "name": "",
          "type": "address"
        }
      ],
      "stateMutability": "view",
      "type": "function"
    },
    {
      "inputs": [
        {
          "internalType": "uint256",
          "name": "_amount",
          "type": "uint256"
        }
      ],
      "name": "sponsoredBurn",
      "outputs": [],
      "stateMutability": "nonpayable",
      "type": "function"
    },
    {
      "inputs": [
        {
          "internalType": "bytes4",
          "name": "_interfaceId",
          "type": "bytes4"
        }
      ],
      "name": "supportsInterface",
      "outputs": [
        {
          "internalType": "bool",
          "name": "",
          "type": "bool"
        }
      ],
      "stateMutability": "view",
      "type": "function"
    },
    {
      "inputs": [],
      "name": "symbol",
      "outputs": [
        {
          "internalType": "string",
          "name": "",
          "type": "string"
        }
      ],
      "stateMutability": "view",
      "type": "function"
    },
    {
      "inputs": [],
      "name": "taxPct",
      "outputs": [
        {
          "internalType": "uint256",
          "name": "",
          "type": "uint256"
        }
      ],
      "stateMutability": "view",
      "type": "function"
    },
    {
      "inputs": [],
      "name": "totalSupply",
      "outputs": [
        {
          "internalType": "uint256",
          "name": "",
          "type": "uint256"
        }
      ],
      "stateMutability": "view",
      "type": "function"
    },
    {
      "inputs": [
        {
          "internalType": "address",
          "name": "to",
          "type": "address"
        },
        {
          "internalType": "uint256",
          "name": "amount",
          "type": "uint256"
        }
      ],
      "name": "transfer",
      "outputs": [
        {
          "internalType": "bool",
          "name": "",
          "type": "bool"
        }
      ],
      "stateMutability": "nonpayable",
      "type": "function"
    },
    {
      "inputs": [
        {
          "internalType": "address",
          "name": "from",
          "type": "address"
        },
        {
          "internalType": "address",
          "name": "to",
          "type": "address"
        },
        {
          "internalType": "uint256",
          "name": "amount",
          "type": "uint256"
        }
      ],
      "name": "transferFrom",
      "outputs": [
        {
          "internalType": "bool",
          "name": "",
          "type": "bool"
        }
      ],
      "stateMutability": "nonpayable",
      "type": "function"
    },
    {
      "inputs": [
        {
          "internalType": "address",
          "name": "newOwner",
          "type": "address"
        }
      ],
      "name": "transferOwnership",
      "outputs": [],
      "stateMutability": "nonpayable",
      "type": "function"
    },
    {
      "inputs": [],
      "name": "treasuryAddress",
      "outputs": [
        {
          "internalType": "address",
          "name": "",
          "type": "address"
        }
      ],
      "stateMutability": "view",
      "type": "function"
    },
    {
      "inputs": [],
      "name": "trustedForwarder",
      "outputs": [
        {
          "internalType": "address",
          "name": "",
          "type": "address"
        }
      ],
      "stateMutability": "view",
      "type": "function"
    },
    {
      "inputs": [
        {
          "internalType": "address",
          "name": "",
          "type": "address"
        }
      ],
      "name": "userLockedBalance",
      "outputs": [
        {
          "internalType": "uint256",
          "name": "",
          "type": "uint256"
        }
      ],
      "stateMutability": "view",
      "type": "function"
    },
    {
      "inputs": [],
      "name": "version",
      "outputs": [
        {
          "internalType": "string",
          "name": "",
          "type": "string"
        }
      ],
      "stateMutability": "view",
      "type": "function"
    }
  ],
  "bytecode": {
    "object": "0x60c06040526003608090815262302e3360e81b60a052609d9062000024908262000bac565b503480156200003257600080fd5b506040518060400160405280601b81526020017f53796d62696f746963426f6e64696e674375727665506c7567696e00000000008152506040518060400160405280600381526020016253424360e81b815250620493e082826200009b6200084960201b60201c565b620000af620000a96200090b565b62000927565b609b620000bd838262000bac565b50609c620000cc828262000bac565b50506001641c35fedd1560601b0360be55506001646c3390ecc9605e1b0360bf556001640cf801476160611b0360c05560016431bdb23e1d605f1b0360c15560016502fb1d8fe083605b1b0360c25560016505b771955b37605a1b0360c3556001650af67a93bb5160591b0360c45560016515060c256cb360581b0360c5556001651428a2f98d7360581b0360c6556001654d515663970960561b0360c755600165944620b0e70f60551b0360c855600166011c592761c66760541b0360c95560016602214d10d014eb60531b0360ca55600166020ade36b7dbef60531b0360cb5560016603eab73b3bbfe360521b0360cc556001660782ee3593f6d760511b0360cd556001661ccf4b44bb4821604f1b0360ce5560016606e7f88ad8a77760511b0360cf5560016669f3d1c921891d604d1b0360d055600166cb2ff529eb71e5604c1b0360d155600166c2d415c3db974b604c1b0360d25560016702eb40f9f620fda7604a1b0360d35560016705990681d961a1eb60491b0360d455600167055e12902701414760491b0360d55560016714962dee9dc9764160471b0360d65560016704ef57b9b560fab560491b0360d75560016712ed7b32a58f552b60471b0360d8556001679131271922eaa60760441b0360d9556001678b380f3558668c4760441b0360da556001680215f77c045fbe885760421b0360db556001600160831b0360dc556001670f577eded5773a1160471b0360dd556001680eb5ec597592befbf5603f1b0360de556001681c35fedd14b861eb05603e1b0360df556001683619c87664579bc94b603d1b0360e05560016867c00a3b07ffc01fd7603c1b0360e155600168c6f6c8f8739773a7a5603b1b0360e255600168bec763f8209b7a72b1603b1b0360e35560016902dbb8caad9b7097b91b60391b0360e455600169057b3d49dda84556d6f760381b0360e555600169054183095b2c8ececf3160381b0360e6556001690a14517cc6b9457111ef60371b0360e75560016913545598e5c23276ccf160361b0360e8556001692511882c39c3adea96ff60351b0360e955600169471649d87199aa99075760341b0360ea557004429a21a029d4c1457cfbffffffffffff60eb55700415bc6d6fb7dd71af2cb3ffffffffffff60ec557003eab73b3bbfe282243ce1ffffffffffff60ed557003c1771ac9fb6b4c18e229ffffffffffff60ee55700399e96897690418f785257fffffffffff60ef55700373fc456c53bb779bf0ea9fffffffffff60f05570034f9e8e490c48e67e6ab8bfffffffffff60f15570032cbfd4a7adc790560b3337ffffffffff60f25570030b50570f6e5d2acca94613ffffffffff60f3557002eb40f9f620fda6b56c2861ffffffffff60f4557002cc8340ecb0d0f520a6af58ffffffffff60f5557002af09481380a0a35cf1ba02ffffffffff60f655700292c5bdd3b92ec810287b1b3fffffffff60f755700277abdcdab07d5a77ac6d6b9fffffffff60f85570025daf6654b1eaa55fd64df5efffffffff60f955700244c49c648baa98192dce88b7ffffffff60fa5570022ce03cd5619a311b2471268bffffffff60fb55700215f77c045fbe885654a44a0fffffffff60fc556001600160811b0360fd557001eaefdbdaaee7421fc4d3ede5ffffffff60fe557001d6bd8b2eb257df7e8ca57b09bfffffff60ff557001c35fedd14b861eb0443f7f133fffffff610100557001b0ce43b322bcde4a56e8ada5afffffff6101015570019f0028ec1fff007f5a195a39dfffffff6101025570018ded91f0e72ee74f49b15ba527ffffff6101035570017d8ec7f04136f4e5615fd41a63ffffff6101045570016ddc6556cdb84bdc8d12d22e6fffffff6101055570015ecf52776a1155b5bd8395814f7fffff6101065570015060c256cb23b3b3cc3754cf40ffffff610107557001428a2f98d728ae223ddab715be3fffff6101085570013545598e5c23276ccf0ede68034fffff610109557001288c4161ce1d6f54b7f61081194fffff61010a5570011c592761c666aa641d5a01a40f17ffff61010b55700110a688680a7530515f3e6e6cfdcdffff61010c557001056f1b5bedf75c6bcb2ce8aed428ffff61010d556ffaadceceeff8a0890f3875f008277fff61010e556ff05dc6b27edad306388a600f6ba0bfff61010f556fe67a5a25da41063de1495d5b18cdbfff610110556fdcff115b14eedde6fc3aa5353f2e4fff610111556fd3e7a3924312399f9aae2e0f868f8fff610112556fcb2ff529eb71e41582cccd5a1ee26fff610113556fc2d415c3db974ab32a51840c0b67edff610114556fbad03e7d883f69ad5b0a186184e06bff610115556fb320d03b2c343d4829abd6075f0cc5ff610116556fabc25204e02828d73c6e80bcdb1a95bf610117556fa4b16f74ee4bb2040a1ec6c15fbbf2df610118556f9deaf736ac1f569deb1b5ae3f36c130f610119556f976bd9952c7aa957f5937d790ef6503761011a556f9131271922eaa6064b73a22d0bd4f2bf61011b556f8b380f3558668c46c91c49a2f8e967b961011c556f857ddf0117efa215952912839f6473e661011d5561011e805463ffffffff191663ffffffff92909216919091179055506200084290503060001962000979565b5062000c78565b600054610100900460ff1615620008b75760405162461bcd60e51b815260206004820152602760248201527f496e697469616c697a61626c653a20636f6e747261637420697320696e697469604482015266616c697a696e6760c81b60648201526084015b60405180910390fd5b60005460ff9081161462000909576000805460ff191660ff9081179091556040519081527f7f26b83ff96e1f2b6a682f133852f6798a09c465da95921460cefb38474024989060200160405180910390a15b565b6000620009226200099f60201b6200127f1760201c565b905090565b609780546001600160a01b038381166001600160a01b0319831681179093556040519116919082907f8be0079c531659141344cd1fd0a4f28419497f9722a3daafe3b4186f6b6457e090600090a35050565b600080620009866200090b565b905062000995818585620009df565b5060019392505050565b600060143610801590620009c7575061011e546001600160a01b036401000000009091041633145b15620009da575060131936013560601c90565b503390565b6001600160a01b03831662000a435760405162461bcd60e51b8152602060048201526024808201527f45524332303a20617070726f76652066726f6d20746865207a65726f206164646044820152637265737360e01b6064820152608401620008ae565b6001600160a01b03821662000aa65760405162461bcd60e51b815260206004820152602260248201527f45524332303a20617070726f766520746f20746865207a65726f206164647265604482015261737360f01b6064820152608401620008ae565b6001600160a01b0383811660008181526099602090815260408083209487168084529482529182902085905590518481527f8c5be1e5ebec7d5bd14f71427d1e84f3dd0314c0f7b2291e5b200ac8c7c3b925910160405180910390a3505050565b634e487b7160e01b600052604160045260246000fd5b600181811c9082168062000b3257607f821691505b60208210810362000b5357634e487b7160e01b600052602260045260246000fd5b50919050565b601f82111562000ba757600081815260208120601f850160051c8101602086101562000b825750805b601f850160051c820191505b8181101562000ba35782815560010162000b8e565b5050505b505050565b81516001600160401b0381111562000bc85762000bc862000b07565b62000be08162000bd9845462000b1d565b8462000b59565b602080601f83116001811462000c18576000841562000bff5750858301515b600019600386901b1c1916600185901b17855562000ba3565b600085815260208120601f198616915b8281101562000c495788860151825594840194600190910190840162000c28565b508582101562000c685787850151600019600388901b60f8161c191681555b5050505050600190811b01905550565b6135778062000c886000396000f3fe608060405234801561001057600080fd5b50600436106102485760003560e01c80637cbed3e01161013b578063a457c2d7116100b8578063dd62ed3e1161007c578063dd62ed3e14610517578063f2fde38b1461052a578063f4325d671461053d578063f851a44014610551578063f8a2c98e1461056557600080fd5b8063a457c2d7146104c2578063a9059cbb146104d5578063c5f956af146104e8578063cb0aad36146104fc578063da12457a1461050f57600080fd5b806395d89b41116100ff57806395d89b4114610483578063963438861461048b5780639db3ad7e1461049e578063a0712d68146104a6578063a10954fe146104b957600080fd5b80637cbed3e0146104115780637da0a877146104245780638cf2b63e1461043e5780638da5cb5b1461045f5780638e8ab69e1461047057600080fd5b806339509351116101c957806354fd4d501161018d57806354fd4d5014610398578063572b6c05146103a0578063630e9032146103cb57806370a08231146103de578063715018a61461040757600080fd5b8063395093511461032b5780634162169f1461033e57806341de68301461036357806342966c681461037257806349f9b0f71461038557600080fd5b806318160ddd1161021057806318160ddd146102e457806323b872dd146102ec57806329a00e7c146102ff578063313ce5671461031257806333a4ea061461032157600080fd5b806301ffc9a71461024d57806306fdde0314610275578063095ea7b31461028a5780630c7d5cd81461029d5780630d8f9f7f146102c3575b600080fd5b61026061025b3660046130ab565b61058c565b60405190151581526020015b60405180910390f35b61027d6105c3565b60405161026c91906130dc565b61026061029836600461313f565b610655565b61011e546102ae9063ffffffff1681565b60405163ffffffff909116815260200161026c565b6102d66102d136600461316b565b610677565b60405190815260200161026c565b609a546102d6565b6102606102fa366004613184565b610698565b6102d661030d3660046131de565b6106c6565b6040516012815260200161026c565b6102d66101245481565b61026061033936600461313f565b6107cf565b6065546001600160a01b03165b6040516001600160a01b03909116815260200161026c565b600160405161026c919061321b565b6102d661038036600461316b565b6107fb565b6102d66103933660046131de565b61090e565b61027d610a26565b6102606103ae366004613243565b61011e5464010000000090046001600160a01b0390811691161490565b6102ae6103d9366004613260565b610ab4565b6102d66103ec366004613243565b6001600160a01b031660009081526098602052604090205490565b61040f610acf565b005b6102d661041f36600461316b565b610ae3565b61011e5464010000000090046001600160a01b031661034b565b6102d661044c366004613243565b6101206020526000908152604090205481565b6097546001600160a01b031661034b565b61040f61047e366004613282565b610b04565b61027d610d4f565b61040f61049936600461316b565b610d5e565b6102d6610da7565b6102d66104b436600461316b565b610e29565b610121546102d6565b6102606104d036600461313f565b610f40565b6102606104e336600461313f565b610fc6565b6101235461034b906001600160a01b031681565b61040f61050a36600461316b565b610fde565b6102d66111d0565b6102d66105253660046132f9565b6111db565b61040f610538366004613243565b611206565b6101225461034b906001600160a01b031681565b61011f5461034b906001600160a01b031681565b6102d67f333faabe8d5b573697f548cb3885d6a81cd1e2ac87d1775bfec70a290e8e4d6081565b60006001600160e01b0319821663041de68360e41b14806105bd57506301ffc9a760e01b6001600160e01b03198316145b92915050565b6060609b80546105d290613332565b80601f01602080910402602001604051908101604052809291908181526020018280546105fe90613332565b801561064b5780601f106106205761010080835404028352916020019161064b565b820191906000526020600020905b81548152906001019060200180831161062e57829003601f168201915b5050505050905090565b6000806106606112bc565b905061066d8185856112c6565b5060019392505050565b60006105bd6106846111d0565b6101215461011e5463ffffffff16856106c6565b6000806106a36112bc565b90506106b08582856113eb565b6106bb85858561145f565b506001949350505050565b600080851180156106d75750600084115b80156106e9575060008363ffffffff16115b80156106fe5750620f424063ffffffff841611155b6107415760405162461bcd60e51b815260206004820152600f60248201526e24b73b30b634b21034b7383aba399760891b60448201526064015b60405180910390fd5b81600003610751575060006107c7565b620f423f1963ffffffff84160161077e578361076d8387613382565b61077791906133af565b90506107c7565b6000808061078c87866133c3565b905061079d818888620f424061160a565b9093509150600060ff83166107b2858b613382565b901c90506107c089826133d6565b9450505050505b949350505050565b6000806107da6112bc565b905061066d8185856107ec85896111db565b6107f691906133c3565b6112c6565b6000806108078361178a565b90508061012060006108176112bc565b6001600160a01b03166001600160a01b031681526020019081526020016000205461084291906133d6565b610120600061084f6112bc565b6001600160a01b03168152602081019190915260400160002055610121546108789082906133d6565b61012155610122546001600160a01b031663a9059cbb6108966112bc565b6040516001600160e01b031960e084901b1681526001600160a01b039091166004820152602481018490526044016020604051808303816000875af11580156108e3573d6000803e3d6000fd5b505050506040513d601f19601f8201168201806040525081019061090791906133e9565b5092915050565b6000808511801561091f5750600084115b8015610931575060008363ffffffff16115b80156109465750620f424063ffffffff841611155b80156109525750848211155b6109905760405162461bcd60e51b815260206004820152600f60248201526e24b73b30b634b21034b7383aba399760891b6044820152606401610738565b816000036109a0575060006107c7565b8482036109ae5750826107c7565b620f423f1963ffffffff8416016109ca578461076d8386613382565b600080806109d885896133d6565b90506109e98882620f42408961160a565b909350915060006109fa8489613382565b905060ff831688901b84610a0e82846133d6565b610a1891906133af565b9a9950505050505050505050565b609d8054610a3390613332565b80601f0160208091040260200160405190810160405280929190818152602001828054610a5f90613332565b8015610aac5780601f10610a8157610100808354040283529160200191610aac565b820191906000526020600020905b815481529060010190602001808311610a8f57829003601f168201915b505050505081565b600080620f4240610ac584866133c3565b6107c7919061340b565b610ad7611892565b610ae1600061190b565b565b60006105bd610af06111d0565b6101215461011e5463ffffffff168561090e565b600054610100900460ff1615808015610b245750600054600160ff909116105b80610b3e5750303b158015610b3e575060005460ff166001145b610ba15760405162461bcd60e51b815260206004820152602e60248201527f496e697469616c697a61626c653a20636f6e747261637420697320616c72656160448201526d191e481a5b9a5d1a585b1a5e995960921b6064820152608401610738565b6000805460ff191660011790558015610bc4576000805461ff0019166101001790555b610bcd8761195d565b610bd7848461198d565b61011f80546001600160a01b038089166001600160a01b0319928316179092556101238054858416908316179055610121869055610122805492881692909116821790556323b872dd610c286112bc565b6040516001600160e01b031960e084901b1681526001600160a01b039091166004820152306024820152604481018790526064016020604051808303816000875af1158015610c7b573d6000803e3d6000fd5b505050506040513d601f19601f82011682018060405250810190610c9f91906133e9565b50836101206000610cae6112bc565b6001600160a01b03166001600160a01b0316815260200190815260200160002054610cd991906133c3565b6101206000610ce66112bc565b6001600160a01b031681526020810191909152604001600020558015610d46576000805461ff0019169055604051600181527f7f26b83ff96e1f2b6a682f133852f6798a09c465da95921460cefb38474024989060200160405180910390a15b50505050505050565b6060609c80546105d290613332565b610d6833826119ad565b7f23ff0e75edf108e3d0392d92e13e8c8a868ef19001bd49f9e94876dc46dff87f33826000604051610d9c9392919061341f565b60405180910390a150565b61012154610122546040516370a0823160e01b8152306004820152600092916001600160a01b0316906370a0823190602401602060405180830381865afa158015610df6573d6000803e3d6000fd5b505050506040513d601f19601f82011682018060405250810190610e1a9190613440565b610e2491906133d6565b905090565b6000816101206000610e396112bc565b6001600160a01b03166001600160a01b0316815260200190815260200160002054610e6491906133c3565b6101206000610e716112bc565b6001600160a01b03908116825260208201929092526040016000209190915561012254166323b872dd610ea26112bc565b6040516001600160e01b031960e084901b1681526001600160a01b039091166004820152306024820152604481018590526064016020604051808303816000875af1158015610ef5573d6000803e3d6000fd5b505050506040513d601f19601f82011682018060405250810190610f1991906133e9565b506000610f2583611ad9565b90508261012154610f3691906133c3565b6101215592915050565b600080610f4b6112bc565b90506000610f5982866111db565b905083811015610fb95760405162461bcd60e51b815260206004820152602560248201527f45524332303a2064656372656173656420616c6c6f77616e63652062656c6f77604482015264207a65726f60d81b6064820152608401610738565b6106bb82868684036112c6565b600080610fd16112bc565b905061066d81858561145f565b6000610fe8610da7565b90508160010361106f57610122546101235460405163a9059cbb60e01b81526001600160a01b0391821660048201526024810184905291169063a9059cbb906044016020604051808303816000875af1158015611049573d6000803e3d6000fd5b505050506040513d601f19601f8201168201806040525081019061106d91906133e9565b505b8160020361111b5730600090815261012060205260409020546110939082906133c3565b30600090815261012060205260408120919091556110b082610677565b90506110bc3082611b74565b7f25b428dfde728ccfaddad7e29e4ac23c24ed7fd1a6e3e3f91894a9a073f5dfff3082846040516110ef9392919061341f565b60405180910390a1816101215461110691906133c3565b610121556111193063deadbeef8361145f565b505b816003036111cc57610122546040516370a0823160e01b81523060048201526001600160a01b03909116906370a0823190602401602060405180830381865afa15801561116c573d6000803e3d6000fd5b505050506040513d601f19601f820116820180604052508101906111909190613440565b61012155600061119f609a5490565b905060006111b08261012154610ab4565b61011e805463ffffffff191663ffffffff831617905590505b50505b5050565b6000610e24609a5490565b6001600160a01b03918216600090815260996020908152604080832093909416825291909152205490565b61120e611892565b6001600160a01b0381166112735760405162461bcd60e51b815260206004820152602660248201527f4f776e61626c653a206e6577206f776e657220697320746865207a65726f206160448201526564647265737360d01b6064820152608401610738565b61127c8161190b565b50565b6000601436108015906112a5575061011e5464010000000090046001600160a01b031633145b156112b7575060131936013560601c90565b503390565b6000610e2461127f565b6001600160a01b0383166113285760405162461bcd60e51b8152602060048201526024808201527f45524332303a20617070726f76652066726f6d20746865207a65726f206164646044820152637265737360e01b6064820152608401610738565b6001600160a01b0382166113895760405162461bcd60e51b815260206004820152602260248201527f45524332303a20617070726f766520746f20746865207a65726f206164647265604482015261737360f01b6064820152608401610738565b6001600160a01b0383811660008181526099602090815260408083209487168084529482529182902085905590518481527f8c5be1e5ebec7d5bd14f71427d1e84f3dd0314c0f7b2291e5b200ac8c7c3b92591015b60405180910390a3505050565b60006113f784846111db565b905060001981146111c957818110156114525760405162461bcd60e51b815260206004820152601d60248201527f45524332303a20696e73756666696369656e7420616c6c6f77616e63650000006044820152606401610738565b6111c984848484036112c6565b6001600160a01b0383166114c35760405162461bcd60e51b815260206004820152602560248201527f45524332303a207472616e736665722066726f6d20746865207a65726f206164604482015264647265737360d81b6064820152608401610738565b6001600160a01b0382166115255760405162461bcd60e51b815260206004820152602360248201527f45524332303a207472616e7366657220746f20746865207a65726f206164647260448201526265737360e81b6064820152608401610738565b6001600160a01b0383166000908152609860205260409020548181101561159d5760405162461bcd60e51b815260206004820152602660248201527f45524332303a207472616e7366657220616d6f756e7420657863656564732062604482015265616c616e636560d01b6064820152608401610738565b6001600160a01b0380851660008181526098602052604080822086860390559286168082529083902080548601905591517fddf252ad1be2c89b69c2b068fc378daa952ba7f163c4a11628f55a4df523b3ef906115fd9086815260200190565b60405180910390a36111c9565b600080600160811b86106116605760405162461bcd60e51b815260206004820152601860248201527f626173654e2065786365656473206d61782076616c75652e00000000000000006044820152606401610738565b848610156116b05760405162461bcd60e51b815260206004820152601c60248201527f4261736573203c203120617265206e6f7420737570706f727465642e000000006044820152606401610738565b600080866116c26001607f1b8a613382565b6116cc91906133af565b905070015bf0a8b1457695355fb8ac404e7a79e38110156116f7576116f081611c35565b9150611703565b611700816121ae565b91505b60008563ffffffff168763ffffffff168461171e9190613382565b61172891906133af565b9050600160831b81101561174d5761173f8161229d565b607f94509450505050611781565b6000611758826128c8565b905061177461176882607f613459565b60ff1683901c8261298d565b9550935061178192505050565b94509492505050565b60008082116117db5760405162461bcd60e51b815260206004820152601860248201527f416d6f756e74206d757374206265206e6f6e2d7a65726f2e00000000000000006044820152606401610738565b3360009081526098602052604090205482111561183a5760405162461bcd60e51b815260206004820152601c60248201527f496e73756666696369656e7420746f6b656e7320746f206275726e2e000000006044820152606401610738565b600061184583610ae3565b905061185133846119ad565b7f23ff0e75edf108e3d0392d92e13e8c8a868ef19001bd49f9e94876dc46dff87f3384836040516118849392919061341f565b60405180910390a192915050565b61189a6112bc565b6001600160a01b03166118b56097546001600160a01b031690565b6001600160a01b031614610ae15760405162461bcd60e51b815260206004820181905260248201527f4f776e61626c653a2063616c6c6572206973206e6f7420746865206f776e65726044820152606401610738565b609780546001600160a01b038381166001600160a01b0319831681179093556040519116919082907f8be0079c531659141344cd1fd0a4f28419497f9722a3daafe3b4186f6b6457e090600090a35050565b600054610100900460ff166119845760405162461bcd60e51b815260040161073890613472565b61127c81612ff4565b61011e805463ffffffff191663ffffffff83161790556111cc3383611b74565b6001600160a01b038216611a0d5760405162461bcd60e51b815260206004820152602160248201527f45524332303a206275726e2066726f6d20746865207a65726f206164647265736044820152607360f81b6064820152608401610738565b6001600160a01b03821660009081526098602052604090205481811015611a815760405162461bcd60e51b815260206004820152602260248201527f45524332303a206275726e20616d6f756e7420657863656564732062616c616e604482015261636560f01b6064820152608401610738565b6001600160a01b03831660008181526098602090815260408083208686039055609a80548790039055518581529192917fddf252ad1be2c89b69c2b068fc378daa952ba7f163c4a11628f55a4df523b3ef91016113de565b6000808211611b2a5760405162461bcd60e51b815260206004820152601960248201527f4465706f736974206d757374206265206e6f6e2d7a65726f2e000000000000006044820152606401610738565b6000611b3583610677565b9050611b413382611b74565b7f25b428dfde728ccfaddad7e29e4ac23c24ed7fd1a6e3e3f91894a9a073f5dfff3382856040516118849392919061341f565b6001600160a01b038216611bca5760405162461bcd60e51b815260206004820152601f60248201527f45524332303a206d696e7420746f20746865207a65726f2061646472657373006044820152606401610738565b80609a6000828254611bdc91906133c3565b90915550506001600160a01b0382166000818152609860209081526040808320805486019055518481527fddf252ad1be2c89b69c2b068fc378daa952ba7f163c4a11628f55a4df523b3ef910160405180910390a35050565b6000808080806fd3094c70f034de4b96ff7d5b6f99fcd88610611c8e57611c606001607e1b856133c3565b93506fd3094c70f034de4b96ff7d5b6f99fcd8611c816001607f1b88613382565b611c8b91906133af565b95505b6fa45af1e1f40c333b3de1db4dd55f29a78610611ce157611cb36001607d1b856133c3565b93506fa45af1e1f40c333b3de1db4dd55f29a7611cd46001607f1b88613382565b611cde91906133af565b95505b6f910b022db7ae67ce76b441c27035c6a18610611d3457611d066001607c1b856133c3565b93506f910b022db7ae67ce76b441c27035c6a1611d276001607f1b88613382565b611d3191906133af565b95505b6f88415abbe9a76bead8d00cf112e4d4a88610611d8757611d596001607b1b856133c3565b93506f88415abbe9a76bead8d00cf112e4d4a8611d7a6001607f1b88613382565b611d8491906133af565b95505b6f84102b00893f64c705e841d5d4064bd38610611dda57611dac6001607a1b856133c3565b93506f84102b00893f64c705e841d5d4064bd3611dcd6001607f1b88613382565b611dd791906133af565b95505b6f8204055aaef1c8bd5c3259f4822735a28610611e2d57611dff600160791b856133c3565b93506f8204055aaef1c8bd5c3259f4822735a2611e206001607f1b88613382565b611e2a91906133af565b95505b6f810100ab00222d861931c15e39b44e998610611e8057611e52600160781b856133c3565b93506f810100ab00222d861931c15e39b44e99611e736001607f1b88613382565b611e7d91906133af565b95505b6f808040155aabbbe9451521693554f7338610611ed357611ea5600160771b856133c3565b93506f808040155aabbbe9451521693554f733611ec66001607f1b88613382565b611ed091906133af565b95505b611ee16001607f1b876133d6565b92508291506001607f1b611ef58380613382565b611eff91906133af565b9050600160801b611f1084826133d6565b611f1a9084613382565b611f2491906133af565b611f2e90856133c3565b93506001607f1b611f3f8284613382565b611f4991906133af565b9150600160811b611f6a846faaaaaaaaaaaaaaaaaaaaaaaaaaaaaaaa6133d6565b611f749084613382565b611f7e91906133af565b611f8890856133c3565b93506001607f1b611f998284613382565b611fa391906133af565b9150600360801b611fc4846f999999999999999999999999999999996133d6565b611fce9084613382565b611fd891906133af565b611fe290856133c3565b93506001607f1b611ff38284613382565b611ffd91906133af565b9150600160821b61201e846f924924924924924924924924924924926133d6565b6120289084613382565b61203291906133af565b61203c90856133c3565b93506001607f1b61204d8284613382565b61205791906133af565b9150600560801b612078846f8e38e38e38e38e38e38e38e38e38e38e6133d6565b6120829084613382565b61208c91906133af565b61209690856133c3565b93506001607f1b6120a78284613382565b6120b191906133af565b9150600360811b6120d2846f8ba2e8ba2e8ba2e8ba2e8ba2e8ba2e8b6133d6565b6120dc9084613382565b6120e691906133af565b6120f090856133c3565b93506001607f1b6121018284613382565b61210b91906133af565b9150600760801b61212c846f89d89d89d89d89d89d89d89d89d89d896133d6565b6121369084613382565b61214091906133af565b61214a90856133c3565b93506001607f1b61215b8284613382565b61216591906133af565b9150600160831b612186846f888888888888888888888888888888886133d6565b6121909084613382565b61219a91906133af565b6121a490856133c3565b9695505050505050565b60008082600160801b81106121f35760006121d56121d06001607f1b846133af565b61303d565b60ff811692831c929091506121ef906001607f1b90613382565b9250505b6001607f1b81111561226857607f5b60ff811615612266576001607f1b61221a8380613382565b61222491906133af565b9150600160801b821061225657600191821c916122419082613459565b60ff166001901b8361225391906133c3565b92505b61225f816134bd565b9050612202565b505b6f05b9de1d10bf4103d647b0955897ba806122936f03f80fe03f80fe03f80fe03f80fe03f884613382565b6107c791906133af565b60008080806122b06001607c1b8661340b565b91508190506001607f1b6122c48280613382565b6122ce91906133af565b90506122e2816710e1b3be415a0000613382565b6122ec90846133c3565b92506001607f1b6122fd8383613382565b61230791906133af565b905061231b816705a0913f6b1e0000613382565b61232590846133c3565b92506001607f1b6123368383613382565b61234091906133af565b905061235481670168244fdac78000613382565b61235e90846133c3565b92506001607f1b61236f8383613382565b61237991906133af565b905061238c81664807432bc18000613382565b61239690846133c3565b92506001607f1b6123a78383613382565b6123b191906133af565b90506123c481660c0135dca04000613382565b6123ce90846133c3565b92506001607f1b6123df8383613382565b6123e991906133af565b90506123fc816601b707b1cdc000613382565b61240690846133c3565b92506001607f1b6124178383613382565b61242191906133af565b9050612433816536e0f639b800613382565b61243d90846133c3565b92506001607f1b61244e8383613382565b61245891906133af565b905061246a81650618fee9f800613382565b61247490846133c3565b92506001607f1b6124858383613382565b61248f91906133af565b90506124a081649c197dcc00613382565b6124aa90846133c3565b92506001607f1b6124bb8383613382565b6124c591906133af565b90506124d681640e30dce400613382565b6124e090846133c3565b92506001607f1b6124f18383613382565b6124fb91906133af565b905061250c8164012ebd1300613382565b61251690846133c3565b92506001607f1b6125278383613382565b61253191906133af565b9050612541816317499f00613382565b61254b90846133c3565b92506001607f1b61255c8383613382565b61256691906133af565b9050612576816301a9d480613382565b61258090846133c3565b92506001607f1b6125918383613382565b61259b91906133af565b90506125aa81621c6380613382565b6125b490846133c3565b92506001607f1b6125c58383613382565b6125cf91906133af565b90506125de816201c638613382565b6125e890846133c3565b92506001607f1b6125f98383613382565b61260391906133af565b905061261181611ab8613382565b61261b90846133c3565b92506001607f1b61262c8383613382565b61263691906133af565b90506126448161017c613382565b61264e90846133c3565b92506001607f1b61265f8383613382565b61266991906133af565b9050612676816014613382565b61268090846133c3565b92506001607f1b6126918383613382565b61269b91906133af565b90506126a8816001613382565b6126b290846133c3565b92506001607f1b826126cc6721c3677c82b40000866133af565b6126d691906133c3565b6126e091906133c3565b92506001607c1b8516156127285770018ebef9eac820ae8682b9793ac6d1e77661271b847001c3d6a24ed82218787d624d3e5eba95f9613382565b61272591906133af565b92505b6001607d1b85161561276e577001368b2fc6f9609fe7aceb46aa619baed46127618470018ebef9eac820ae8682b9793ac6d1e778613382565b61276b91906133af565b92505b6001607e1b8516156127b3576fbc5ab1b16779be3575bd8f0520a9f21f6127a6847001368b2fc6f9609fe7aceb46aa619baed5613382565b6127b091906133af565b92505b6001607f1b8516156127f7576f454aaa8efe072e7f6ddbab84b40a55c96127ea846fbc5ab1b16779be3575bd8f0520a9f21e613382565b6127f491906133af565b92505b600160801b85161561283b576f0960aadc109e7a3bf4578099615711ea61282e846f454aaa8efe072e7f6ddbab84b40a55c5613382565b61283891906133af565b92505b600160811b85161561287e576e2bf84208204f5977f9a8cf01fdce3d612871846f0960aadc109e7a3bf4578099615711d7613382565b61287b91906133af565b92505b600160821b8516156128bf576d03c6ab775dd0b95b4cbee7e65d116128b2846e2bf84208204f5977f9a8cf01fdc307613382565b6128bc91906133af565b92505b50909392505050565b60006020607f5b60ff81166128de8360016134da565b60ff16101561293157600060026128f583856134da565b6128ff91906134f3565b905084609e8260ff166080811061291857612918613515565b0154106129275780925061292b565b8091505b506128cf565b83609e8260ff166080811061294857612948613515565b015410612956579392505050565b83609e8360ff166080811061296d5761296d613515565b01541061297b575092915050565b61298361352b565b5060009392505050565b6000828160ff841661299f8380613382565b901c91506129bd826f03442c4e6074a82f1797f72ac0000000613382565b6129c790826133c3565b905060ff84166129d78684613382565b901c91506129f5826f0116b96f757c380fb287fd0e40000000613382565b6129ff90826133c3565b905060ff8416612a0f8684613382565b901c9150612a2c826e45ae5bdd5f0e03eca1ff4390000000613382565b612a3690826133c3565b905060ff8416612a468684613382565b901c9150612a63826e0defabf91302cd95b9ffda50000000613382565b612a6d90826133c3565b905060ff8416612a7d8684613382565b901c9150612a9a826e02529ca9832b22439efff9b8000000613382565b612aa490826133c3565b905060ff8416612ab48684613382565b901c9150612ad0826d54f1cf12bd04e516b6da88000000613382565b612ada90826133c3565b905060ff8416612aea8684613382565b901c9150612b06826d0a9e39e257a09ca2d6db51000000613382565b612b1090826133c3565b905060ff8416612b208684613382565b901c9150612b3c826d012e066e7b839fa050c309000000613382565b612b4690826133c3565b905060ff8416612b568684613382565b901c9150612b71826c1e33d7d926c329a1ad1a800000613382565b612b7b90826133c3565b905060ff8416612b8b8684613382565b901c9150612ba6826c02bee513bdb4a6b19b5f800000613382565b612bb090826133c3565b905060ff8416612bc08684613382565b901c9150612bda826b3a9316fa79b88eccf2a00000613382565b612be490826133c3565b905060ff8416612bf48684613382565b901c9150612c0e826b048177ebe1fa812375200000613382565b612c1890826133c3565b905060ff8416612c288684613382565b901c9150612c41826a5263fe90242dcbacf00000613382565b612c4b90826133c3565b905060ff8416612c5b8684613382565b901c9150612c74826a057e22099c030d94100000613382565b612c7e90826133c3565b905060ff8416612c8e8684613382565b901c9150612ca6826957e22099c030d9410000613382565b612cb090826133c3565b905060ff8416612cc08684613382565b901c9150612cd88269052b6b54569976310000613382565b612ce290826133c3565b905060ff8416612cf28684613382565b901c9150612d0982684985f67696bf748000613382565b612d1390826133c3565b905060ff8416612d238684613382565b901c9150612d3a826803dea12ea99e498000613382565b612d4490826133c3565b905060ff8416612d548684613382565b901c9150612d6a826731880f2214b6e000613382565b612d7490826133c3565b905060ff8416612d848684613382565b901c9150612d9a8267025bcff56eb36000613382565b612da490826133c3565b905060ff8416612db48684613382565b901c9150612dc982661b722e10ab1000613382565b612dd390826133c3565b905060ff8416612de38684613382565b901c9150612df8826601317c70077000613382565b612e0290826133c3565b905060ff8416612e128684613382565b901c9150612e2682650cba84aafa00613382565b612e3090826133c3565b905060ff8416612e408684613382565b901c9150612e53826482573a0a00613382565b612e5d90826133c3565b905060ff8416612e6d8684613382565b901c9150612e80826405035ad900613382565b612e8a90826133c3565b905060ff8416612e9a8684613382565b901c9150612eac82632f881b00613382565b612eb690826133c3565b905060ff8416612ec68684613382565b901c9150612ed8826301b29340613382565b612ee290826133c3565b905060ff8416612ef28684613382565b901c9150612f0382620efc40613382565b612f0d90826133c3565b905060ff8416612f1d8684613382565b901c9150612f2d82617fe0613382565b612f3790826133c3565b905060ff8416612f478684613382565b901c9150612f5782610420613382565b612f6190826133c3565b905060ff8416612f718684613382565b901c9150612f80826021613382565b612f8a90826133c3565b905060ff8416612f9a8684613382565b901c9150612fa9826001613382565b612fb390826133c3565b9050600160ff85161b85612fd76f0688589cc0e9505e2f2fee5580000000846133af565b612fe191906133c3565b612feb91906133c3565b95945050505050565b600054610100900460ff1661301b5760405162461bcd60e51b815260040161073890613472565b606580546001600160a01b0319166001600160a01b0392909216919091179055565b60008082610100811015613071575b600181111561306c57600190811c9061306590836134da565b915061304c565b610907565b60805b60ff8116156130a357600160ff82161b8210613098579182179160ff81169190911c905b60011c607f16613074565b505092915050565b6000602082840312156130bd57600080fd5b81356001600160e01b0319811681146130d557600080fd5b9392505050565b600060208083528351808285015260005b81811015613109578581018301518582016040015282016130ed565b506000604082860101526040601f19601f8301168501019250505092915050565b6001600160a01b038116811461127c57600080fd5b6000806040838503121561315257600080fd5b823561315d8161312a565b946020939093013593505050565b60006020828403121561317d57600080fd5b5035919050565b60008060006060848603121561319957600080fd5b83356131a48161312a565b925060208401356131b48161312a565b929592945050506040919091013590565b803563ffffffff811681146131d957600080fd5b919050565b600080600080608085870312156131f457600080fd5b843593506020850135925061320b604086016131c5565b9396929550929360600135925050565b602081016003831061323d57634e487b7160e01b600052602160045260246000fd5b91905290565b60006020828403121561325557600080fd5b81356130d58161312a565b6000806040838503121561327357600080fd5b50508035926020909101359150565b60008060008060008060c0878903121561329b57600080fd5b86356132a68161312a565b955060208701356132b68161312a565b945060408701356132c68161312a565b9350606087013592506132db608088016131c5565b915060a08701356132eb8161312a565b809150509295509295509295565b6000806040838503121561330c57600080fd5b82356133178161312a565b915060208301356133278161312a565b809150509250929050565b600181811c9082168061334657607f821691505b60208210810361336657634e487b7160e01b600052602260045260246000fd5b50919050565b634e487b7160e01b600052601160045260246000fd5b80820281158282048414176105bd576105bd61336c565b634e487b7160e01b600052601260045260246000fd5b6000826133be576133be613399565b500490565b808201808211156105bd576105bd61336c565b818103818111156105bd576105bd61336c565b6000602082840312156133fb57600080fd5b815180151581146130d557600080fd5b60008261341a5761341a613399565b500690565b6001600160a01b039390931683526020830191909152604082015260600190565b60006020828403121561345257600080fd5b5051919050565b60ff82811682821603908111156105bd576105bd61336c565b6020808252602b908201527f496e697469616c697a61626c653a20636f6e7472616374206973206e6f74206960408201526a6e697469616c697a696e6760a81b606082015260800190565b600060ff8216806134d0576134d061336c565b6000190192915050565b60ff81811683821601908111156105bd576105bd61336c565b600060ff83168061350657613506613399565b8060ff84160491505092915050565b634e487b7160e01b600052603260045260246000fd5b634e487b7160e01b600052600160045260246000fdfea2646970667358221220c54405feb6dc72ce10ce54624db34a7bc56130ea564bf45a77dc144304f0824e64736f6c63430008110033",
    "linkReferences": {}
  },
  "methodIdentifiers": {
    "ADMIN_EXECUTE_PERMISSION_ID()": "f8a2c98e",
    "admin()": "f851a440",
    "allowance(address,address)": "dd62ed3e",
    "approve(address,uint256)": "095ea7b3",
    "balanceOf(address)": "70a08231",
    "burn(uint256)": "42966c68",
    "calculatePurchaseReturn(uint256,uint256,uint32,uint256)": "29a00e7c",
    "calculateReserveRatio(uint256,uint256)": "630e9032",
    "calculateSaleReturn(uint256,uint256,uint32,uint256)": "49f9b0f7",
    "continuousSupply()": "da12457a",
    "dao()": "4162169f",
    "decimals()": "313ce567",
    "decreaseAllowance(address,uint256)": "a457c2d7",
    "getContinuousBurnRefund(uint256)": "7cbed3e0",
    "getContinuousMintReward(uint256)": "0d8f9f7f",
    "increaseAllowance(address,uint256)": "39509351",
    "initialize(address,address,address,uint256,uint32,address)": "8e8ab69e",
    "isTrustedForwarder(address)": "572b6c05",
    "manageYieldSurplus(uint256)": "cb0aad36",
    "mint(uint256)": "a0712d68",
    "name()": "06fdde03",
    "owner()": "8da5cb5b",
    "pluginType()": "41de6830",
    "renounceOwnership()": "715018a6",
    "reserveBalance()": "a10954fe",
    "reserveRatio()": "0c7d5cd8",
    "reserveSurplus()": "9db3ad7e",
    "reserveToken()": "f4325d67",
    "sponsoredBurn(uint256)": "96343886",
    "supportsInterface(bytes4)": "01ffc9a7",
    "symbol()": "95d89b41",
    "taxPct()": "33a4ea06",
    "totalSupply()": "18160ddd",
    "transfer(address,uint256)": "a9059cbb",
    "transferFrom(address,address,uint256)": "23b872dd",
    "transferOwnership(address)": "f2fde38b",
    "treasuryAddress()": "c5f956af",
    "trustedForwarder()": "7da0a877",
    "userLockedBalance(address)": "8cf2b63e",
    "version()": "54fd4d50"
  },
  "id": 73
}