{
  "abi": [
    {
      "inputs": [],
      "stateMutability": "nonpayable",
      "type": "constructor"
    },
    {
      "anonymous": false,
      "inputs": [
        {
          "indexed": true,
          "internalType": "address",
          "name": "owner",
          "type": "address"
        },
        {
          "indexed": true,
          "internalType": "address",
          "name": "spender",
          "type": "address"
        },
        {
          "indexed": false,
          "internalType": "uint256",
          "name": "value",
          "type": "uint256"
        }
      ],
      "name": "Approval",
      "type": "event"
    },
    {
      "anonymous": false,
      "inputs": [
        {
          "indexed": false,
          "internalType": "address",
          "name": "sender",
          "type": "address"
        },
        {
          "indexed": false,
          "internalType": "uint256",
          "name": "amount",
          "type": "uint256"
        },
        {
          "indexed": false,
          "internalType": "uint256",
          "name": "refund",
          "type": "uint256"
        }
      ],
      "name": "Burned",
      "type": "event"
    },
    {
      "anonymous": false,
      "inputs": [
        {
          "indexed": false,
          "internalType": "uint8",
          "name": "version",
          "type": "uint8"
        }
      ],
      "name": "Initialized",
      "type": "event"
    },
    {
      "anonymous": false,
      "inputs": [
        {
          "indexed": false,
          "internalType": "address",
          "name": "sender",
          "type": "address"
        },
        {
          "indexed": false,
          "internalType": "uint256",
          "name": "amount",
          "type": "uint256"
        },
        {
          "indexed": false,
          "internalType": "uint256",
          "name": "deposit",
          "type": "uint256"
        }
      ],
      "name": "Minted",
      "type": "event"
    },
    {
      "anonymous": false,
      "inputs": [
        {
          "indexed": true,
          "internalType": "address",
          "name": "previousOwner",
          "type": "address"
        },
        {
          "indexed": true,
          "internalType": "address",
          "name": "newOwner",
          "type": "address"
        }
      ],
      "name": "OwnershipTransferred",
      "type": "event"
    },
    {
      "anonymous": false,
      "inputs": [
        {
          "indexed": true,
          "internalType": "address",
          "name": "from",
          "type": "address"
        },
        {
          "indexed": true,
          "internalType": "address",
          "name": "to",
          "type": "address"
        },
        {
          "indexed": false,
          "internalType": "uint256",
          "name": "value",
          "type": "uint256"
        }
      ],
      "name": "Transfer",
      "type": "event"
    },
    {
      "inputs": [],
      "name": "ADMIN_EXECUTE_PERMISSION_ID",
      "outputs": [
        {
          "internalType": "bytes32",
          "name": "",
          "type": "bytes32"
        }
      ],
      "stateMutability": "view",
      "type": "function"
    },
    {
      "inputs": [],
      "name": "admin",
      "outputs": [
        {
          "internalType": "address",
          "name": "",
          "type": "address"
        }
      ],
      "stateMutability": "view",
      "type": "function"
    },
    {
      "inputs": [
        {
          "internalType": "address",
          "name": "owner",
          "type": "address"
        },
        {
          "internalType": "address",
          "name": "spender",
          "type": "address"
        }
      ],
      "name": "allowance",
      "outputs": [
        {
          "internalType": "uint256",
          "name": "",
          "type": "uint256"
        }
      ],
      "stateMutability": "view",
      "type": "function"
    },
    {
      "inputs": [
        {
          "internalType": "address",
          "name": "spender",
          "type": "address"
        },
        {
          "internalType": "uint256",
          "name": "amount",
          "type": "uint256"
        }
      ],
      "name": "approve",
      "outputs": [
        {
          "internalType": "bool",
          "name": "",
          "type": "bool"
        }
      ],
      "stateMutability": "nonpayable",
      "type": "function"
    },
    {
      "inputs": [
        {
          "internalType": "address",
          "name": "account",
          "type": "address"
        }
      ],
      "name": "balanceOf",
      "outputs": [
        {
          "internalType": "uint256",
          "name": "",
          "type": "uint256"
        }
      ],
      "stateMutability": "view",
      "type": "function"
    },
    {
      "inputs": [
        {
          "internalType": "uint256",
          "name": "_amount",
          "type": "uint256"
        }
      ],
      "name": "burn",
      "outputs": [
        {
          "internalType": "uint256",
          "name": "",
          "type": "uint256"
        }
      ],
      "stateMutability": "nonpayable",
      "type": "function"
    },
    {
      "inputs": [
        {
          "internalType": "uint256",
          "name": "_supply",
          "type": "uint256"
        },
        {
          "internalType": "uint256",
          "name": "_reserveBalance",
          "type": "uint256"
        },
        {
          "internalType": "uint32",
          "name": "_reserveRatio",
          "type": "uint32"
        },
        {
          "internalType": "uint256",
          "name": "_depositAmount",
          "type": "uint256"
        }
      ],
      "name": "calculatePurchaseReturn",
      "outputs": [
        {
          "internalType": "uint256",
          "name": "",
          "type": "uint256"
        }
      ],
      "stateMutability": "view",
      "type": "function"
    },
    {
      "inputs": [
        {
          "internalType": "uint256",
          "name": "_supply",
          "type": "uint256"
        },
        {
          "internalType": "uint256",
          "name": "_reserve",
          "type": "uint256"
        }
      ],
      "name": "calculateReserveRatio",
      "outputs": [
        {
          "internalType": "uint32",
          "name": "",
          "type": "uint32"
        }
      ],
      "stateMutability": "pure",
      "type": "function"
    },
    {
      "inputs": [
        {
          "internalType": "uint256",
          "name": "_supply",
          "type": "uint256"
        },
        {
          "internalType": "uint256",
          "name": "_reserveBalance",
          "type": "uint256"
        },
        {
          "internalType": "uint32",
          "name": "_reserveRatio",
          "type": "uint32"
        },
        {
          "internalType": "uint256",
          "name": "_sellAmount",
          "type": "uint256"
        }
      ],
      "name": "calculateSaleReturn",
      "outputs": [
        {
          "internalType": "uint256",
          "name": "",
          "type": "uint256"
        }
      ],
      "stateMutability": "view",
      "type": "function"
    },
    {
      "inputs": [],
      "name": "continuousSupply",
      "outputs": [
        {
          "internalType": "uint256",
          "name": "",
          "type": "uint256"
        }
      ],
      "stateMutability": "view",
      "type": "function"
    },
    {
      "inputs": [],
      "name": "dao",
      "outputs": [
        {
          "internalType": "contract IDAO",
          "name": "",
          "type": "address"
        }
      ],
      "stateMutability": "view",
      "type": "function"
    },
    {
      "inputs": [],
      "name": "decimals",
      "outputs": [
        {
          "internalType": "uint8",
          "name": "",
          "type": "uint8"
        }
      ],
      "stateMutability": "view",
      "type": "function"
    },
    {
      "inputs": [
        {
          "internalType": "address",
          "name": "spender",
          "type": "address"
        },
        {
          "internalType": "uint256",
          "name": "subtractedValue",
          "type": "uint256"
        }
      ],
      "name": "decreaseAllowance",
      "outputs": [
        {
          "internalType": "bool",
          "name": "",
          "type": "bool"
        }
      ],
      "stateMutability": "nonpayable",
      "type": "function"
    },
    {
      "inputs": [
        {
          "internalType": "uint256",
          "name": "_continuousTokenAmount",
          "type": "uint256"
        }
      ],
      "name": "getContinuousBurnRefund",
      "outputs": [
        {
          "internalType": "uint256",
          "name": "",
          "type": "uint256"
        }
      ],
      "stateMutability": "view",
      "type": "function"
    },
    {
      "inputs": [
        {
          "internalType": "uint256",
          "name": "_reserveTokenAmount",
          "type": "uint256"
        }
      ],
      "name": "getContinuousMintReward",
      "outputs": [
        {
          "internalType": "uint256",
          "name": "",
          "type": "uint256"
        }
      ],
      "stateMutability": "view",
      "type": "function"
    },
    {
      "inputs": [
        {
          "internalType": "address",
          "name": "spender",
          "type": "address"
        },
        {
          "internalType": "uint256",
          "name": "addedValue",
          "type": "uint256"
        }
      ],
      "name": "increaseAllowance",
      "outputs": [
        {
          "internalType": "bool",
          "name": "",
          "type": "bool"
        }
      ],
      "stateMutability": "nonpayable",
      "type": "function"
    },
    {
      "inputs": [
        {
          "internalType": "contract IDAO",
          "name": "_dao",
          "type": "address"
        },
        {
          "internalType": "address",
          "name": "_admin",
          "type": "address"
        },
        {
          "internalType": "address",
          "name": "_reserveToken",
          "type": "address"
        },
        {
          "internalType": "uint256",
          "name": "_initialReserve",
          "type": "uint256"
        },
        {
          "internalType": "uint32",
          "name": "_reserveRatio",
          "type": "uint32"
        }
      ],
      "name": "initialize",
      "outputs": [],
      "stateMutability": "nonpayable",
      "type": "function"
    },
    {
      "inputs": [
        {
          "internalType": "uint256",
          "name": "mode",
          "type": "uint256"
        }
      ],
      "name": "manageYieldSurplus",
      "outputs": [],
      "stateMutability": "nonpayable",
      "type": "function"
    },
    {
      "inputs": [
        {
          "internalType": "uint256",
          "name": "_amount",
          "type": "uint256"
        }
      ],
      "name": "mint",
      "outputs": [
        {
          "internalType": "uint256",
          "name": "",
          "type": "uint256"
        }
      ],
      "stateMutability": "nonpayable",
      "type": "function"
    },
    {
      "inputs": [],
      "name": "name",
      "outputs": [
        {
          "internalType": "string",
          "name": "",
          "type": "string"
        }
      ],
      "stateMutability": "view",
      "type": "function"
    },
    {
      "inputs": [],
      "name": "owner",
      "outputs": [
        {
          "internalType": "address",
          "name": "",
          "type": "address"
        }
      ],
      "stateMutability": "view",
      "type": "function"
    },
    {
      "inputs": [],
      "name": "pluginType",
      "outputs": [
        {
          "internalType": "enum IPlugin.PluginType",
          "name": "",
          "type": "uint8"
        }
      ],
      "stateMutability": "pure",
      "type": "function"
    },
    {
      "inputs": [],
      "name": "renounceOwnership",
      "outputs": [],
      "stateMutability": "nonpayable",
      "type": "function"
    },
    {
      "inputs": [],
      "name": "reserveBalance",
      "outputs": [
        {
          "internalType": "uint256",
          "name": "",
          "type": "uint256"
        }
      ],
      "stateMutability": "view",
      "type": "function"
    },
    {
      "inputs": [],
      "name": "reserveRatio",
      "outputs": [
        {
          "internalType": "uint32",
          "name": "",
          "type": "uint32"
        }
      ],
      "stateMutability": "view",
      "type": "function"
    },
    {
      "inputs": [],
      "name": "reserveSurplus",
      "outputs": [
        {
          "internalType": "uint256",
          "name": "",
          "type": "uint256"
        }
      ],
      "stateMutability": "view",
      "type": "function"
    },
    {
      "inputs": [],
      "name": "reserveToken",
      "outputs": [
        {
          "internalType": "contract ERC20",
          "name": "",
          "type": "address"
        }
      ],
      "stateMutability": "view",
      "type": "function"
    },
    {
      "inputs": [
        {
          "internalType": "uint256",
          "name": "_amount",
          "type": "uint256"
        }
      ],
      "name": "sponsoredBurn",
      "outputs": [],
      "stateMutability": "nonpayable",
      "type": "function"
    },
    {
      "inputs": [
        {
          "internalType": "bytes4",
          "name": "_interfaceId",
          "type": "bytes4"
        }
      ],
      "name": "supportsInterface",
      "outputs": [
        {
          "internalType": "bool",
          "name": "",
          "type": "bool"
        }
      ],
      "stateMutability": "view",
      "type": "function"
    },
    {
      "inputs": [],
      "name": "symbol",
      "outputs": [
        {
          "internalType": "string",
          "name": "",
          "type": "string"
        }
      ],
      "stateMutability": "view",
      "type": "function"
    },
    {
      "inputs": [],
      "name": "taxPct",
      "outputs": [
        {
          "internalType": "uint256",
          "name": "",
          "type": "uint256"
        }
      ],
      "stateMutability": "view",
      "type": "function"
    },
    {
      "inputs": [],
      "name": "totalSupply",
      "outputs": [
        {
          "internalType": "uint256",
          "name": "",
          "type": "uint256"
        }
      ],
      "stateMutability": "view",
      "type": "function"
    },
    {
      "inputs": [
        {
          "internalType": "address",
          "name": "to",
          "type": "address"
        },
        {
          "internalType": "uint256",
          "name": "amount",
          "type": "uint256"
        }
      ],
      "name": "transfer",
      "outputs": [
        {
          "internalType": "bool",
          "name": "",
          "type": "bool"
        }
      ],
      "stateMutability": "nonpayable",
      "type": "function"
    },
    {
      "inputs": [
        {
          "internalType": "address",
          "name": "from",
          "type": "address"
        },
        {
          "internalType": "address",
          "name": "to",
          "type": "address"
        },
        {
          "internalType": "uint256",
          "name": "amount",
          "type": "uint256"
        }
      ],
      "name": "transferFrom",
      "outputs": [
        {
          "internalType": "bool",
          "name": "",
          "type": "bool"
        }
      ],
      "stateMutability": "nonpayable",
      "type": "function"
    },
    {
      "inputs": [
        {
          "internalType": "address",
          "name": "newOwner",
          "type": "address"
        }
      ],
      "name": "transferOwnership",
      "outputs": [],
      "stateMutability": "nonpayable",
      "type": "function"
    },
    {
      "inputs": [],
      "name": "treasuryAddress",
      "outputs": [
        {
          "internalType": "address",
          "name": "",
          "type": "address"
        }
      ],
      "stateMutability": "view",
      "type": "function"
    },
    {
      "inputs": [
        {
          "internalType": "address",
          "name": "",
          "type": "address"
        }
      ],
      "name": "userLockedBalance",
      "outputs": [
        {
          "internalType": "uint256",
          "name": "",
          "type": "uint256"
        }
      ],
      "stateMutability": "view",
      "type": "function"
    },
    {
      "inputs": [],
      "name": "version",
      "outputs": [
        {
          "internalType": "string",
          "name": "",
          "type": "string"
        }
      ],
      "stateMutability": "view",
      "type": "function"
    }
  ],
  "bytecode": {
    "object": "0x60c06040526003608090815262302e3360e81b60a052609d90620000249082620009e9565b503480156200003257600080fd5b506040518060400160405280601b81526020017f53796d62696f746963426f6e64696e674375727665506c7567696e00000000008152506040518060400160405280600381526020016253424360e81b815250620493e082826200009b6200083160201b60201c565b620000a633620008f2565b609b620000b48382620009e9565b50609c620000c38282620009e9565b50506001641c35fedd1560601b0360be55506001646c3390ecc9605e1b0360bf556001640cf801476160611b0360c05560016431bdb23e1d605f1b0360c15560016502fb1d8fe083605b1b0360c25560016505b771955b37605a1b0360c3556001650af67a93bb5160591b0360c45560016515060c256cb360581b0360c5556001651428a2f98d7360581b0360c6556001654d515663970960561b0360c755600165944620b0e70f60551b0360c855600166011c592761c66760541b0360c95560016602214d10d014eb60531b0360ca55600166020ade36b7dbef60531b0360cb5560016603eab73b3bbfe360521b0360cc556001660782ee3593f6d760511b0360cd556001661ccf4b44bb4821604f1b0360ce5560016606e7f88ad8a77760511b0360cf5560016669f3d1c921891d604d1b0360d055600166cb2ff529eb71e5604c1b0360d155600166c2d415c3db974b604c1b0360d25560016702eb40f9f620fda7604a1b0360d35560016705990681d961a1eb60491b0360d455600167055e12902701414760491b0360d55560016714962dee9dc9764160471b0360d65560016704ef57b9b560fab560491b0360d75560016712ed7b32a58f552b60471b0360d8556001679131271922eaa60760441b0360d9556001678b380f3558668c4760441b0360da556001680215f77c045fbe885760421b0360db556001600160831b0360dc556001670f577eded5773a1160471b0360dd556001680eb5ec597592befbf5603f1b0360de556001681c35fedd14b861eb05603e1b0360df556001683619c87664579bc94b603d1b0360e05560016867c00a3b07ffc01fd7603c1b0360e155600168c6f6c8f8739773a7a5603b1b0360e255600168bec763f8209b7a72b1603b1b0360e35560016902dbb8caad9b7097b91b60391b0360e455600169057b3d49dda84556d6f760381b0360e555600169054183095b2c8ececf3160381b0360e6556001690a14517cc6b9457111ef60371b0360e75560016913545598e5c23276ccf160361b0360e8556001692511882c39c3adea96ff60351b0360e955600169471649d87199aa99075760341b0360ea557004429a21a029d4c1457cfbffffffffffff60eb55700415bc6d6fb7dd71af2cb3ffffffffffff60ec557003eab73b3bbfe282243ce1ffffffffffff60ed557003c1771ac9fb6b4c18e229ffffffffffff60ee55700399e96897690418f785257fffffffffff60ef55700373fc456c53bb779bf0ea9fffffffffff60f05570034f9e8e490c48e67e6ab8bfffffffffff60f15570032cbfd4a7adc790560b3337ffffffffff60f25570030b50570f6e5d2acca94613ffffffffff60f3557002eb40f9f620fda6b56c2861ffffffffff60f4557002cc8340ecb0d0f520a6af58ffffffffff60f5557002af09481380a0a35cf1ba02ffffffffff60f655700292c5bdd3b92ec810287b1b3fffffffff60f755700277abdcdab07d5a77ac6d6b9fffffffff60f85570025daf6654b1eaa55fd64df5efffffffff60f955700244c49c648baa98192dce88b7ffffffff60fa5570022ce03cd5619a311b2471268bffffffff60fb55700215f77c045fbe885654a44a0fffffffff60fc556001600160811b0360fd557001eaefdbdaaee7421fc4d3ede5ffffffff60fe557001d6bd8b2eb257df7e8ca57b09bfffffff60ff557001c35fedd14b861eb0443f7f133fffffff610100557001b0ce43b322bcde4a56e8ada5afffffff6101015570019f0028ec1fff007f5a195a39dfffffff6101025570018ded91f0e72ee74f49b15ba527ffffff6101035570017d8ec7f04136f4e5615fd41a63ffffff6101045570016ddc6556cdb84bdc8d12d22e6fffffff6101055570015ecf52776a1155b5bd8395814f7fffff6101065570015060c256cb23b3b3cc3754cf40ffffff610107557001428a2f98d728ae223ddab715be3fffff6101085570013545598e5c23276ccf0ede68034fffff610109557001288c4161ce1d6f54b7f61081194fffff61010a5570011c592761c666aa641d5a01a40f17ffff61010b55700110a688680a7530515f3e6e6cfdcdffff61010c557001056f1b5bedf75c6bcb2ce8aed428ffff61010d556ffaadceceeff8a0890f3875f008277fff61010e556ff05dc6b27edad306388a600f6ba0bfff61010f556fe67a5a25da41063de1495d5b18cdbfff610110556fdcff115b14eedde6fc3aa5353f2e4fff610111556fd3e7a3924312399f9aae2e0f868f8fff610112556fcb2ff529eb71e41582cccd5a1ee26fff610113556fc2d415c3db974ab32a51840c0b67edff610114556fbad03e7d883f69ad5b0a186184e06bff610115556fb320d03b2c343d4829abd6075f0cc5ff610116556fabc25204e02828d73c6e80bcdb1a95bf610117556fa4b16f74ee4bb2040a1ec6c15fbbf2df610118556f9deaf736ac1f569deb1b5ae3f36c130f610119556f976bd9952c7aa957f5937d790ef6503761011a556f9131271922eaa6064b73a22d0bd4f2bf61011b556f8b380f3558668c46c91c49a2f8e967b961011c556f857ddf0117efa215952912839f6473e661011d5561011e805463ffffffff191663ffffffff929092169190911790555062000ab59050565b600054610100900460ff16156200089e5760405162461bcd60e51b815260206004820152602760248201527f496e697469616c697a61626c653a20636f6e747261637420697320696e697469604482015266616c697a696e6760c81b606482015260840160405180910390fd5b60005460ff90811614620008f0576000805460ff191660ff9081179091556040519081527f7f26b83ff96e1f2b6a682f133852f6798a09c465da95921460cefb38474024989060200160405180910390a15b565b609780546001600160a01b038381166001600160a01b0319831681179093556040519116919082907f8be0079c531659141344cd1fd0a4f28419497f9722a3daafe3b4186f6b6457e090600090a35050565b634e487b7160e01b600052604160045260246000fd5b600181811c908216806200096f57607f821691505b6020821081036200099057634e487b7160e01b600052602260045260246000fd5b50919050565b601f821115620009e457600081815260208120601f850160051c81016020861015620009bf5750805b601f850160051c820191505b81811015620009e057828155600101620009cb565b5050505b505050565b81516001600160401b0381111562000a055762000a0562000944565b62000a1d8162000a1684546200095a565b8462000996565b602080601f83116001811462000a55576000841562000a3c5750858301515b600019600386901b1c1916600185901b178555620009e0565b600085815260208120601f198616915b8281101562000a865788860151825594840194600190910190840162000a65565b508582101562000aa55787850151600019600388901b60f8161c191681555b5050505050600190811b01905550565b6133fd8062000ac56000396000f3fe608060405234801561001057600080fd5b50600436106102325760003560e01c8063715018a611610130578063a457c2d7116100b8578063dd62ed3e1161007c578063dd62ed3e146104c1578063f2fde38b146104d4578063f4325d67146104e7578063f851a440146104fb578063f8a2c98e1461051757600080fd5b8063a457c2d71461046c578063a9059cbb1461047f578063c5f956af14610492578063cb0aad36146104a6578063da12457a146104b957600080fd5b806395d89b41116100ff57806395d89b411461042d57806396343886146104355780639db3ad7e14610448578063a0712d6814610450578063a10954fe1461046357600080fd5b8063715018a6146103e05780637cbed3e0146103e85780638cf2b63e146103fb5780638da5cb5b1461041c57600080fd5b806333a4ea06116101be57806349f9b0f71161018257806349f9b0f71461036f57806354fd4d5014610382578063630e90321461038a57806366c4ab23146103a257806370a08231146103b757600080fd5b806333a4ea061461030b57806339509351146103155780634162169f1461032857806341de68301461034d57806342966c681461035c57600080fd5b80630d8f9f7f116102055780630d8f9f7f146102ad57806318160ddd146102ce57806323b872dd146102d657806329a00e7c146102e9578063313ce567146102fc57600080fd5b806301ffc9a71461023757806306fdde031461025f578063095ea7b3146102745780630c7d5cd814610287575b600080fd5b61024a610245366004612f65565b61053e565b60405190151581526020015b60405180910390f35b610267610575565b6040516102569190612f96565b61024a610282366004612ff9565b610607565b61011e546102989063ffffffff1681565b60405163ffffffff9091168152602001610256565b6102c06102bb366004613025565b61061f565b604051908152602001610256565b609a546102c0565b61024a6102e436600461303e565b610640565b6102c06102f7366004613098565b610664565b60405160128152602001610256565b6102c06101235481565b61024a610323366004612ff9565b610798565b6065546001600160a01b03165b6040516001600160a01b039091168152602001610256565b600160405161025691906130d5565b6102c061036a366004613025565b6107ba565b6102c061037d366004613098565b610894565b6102676109ac565b6102986103983660046130fd565b620493e092915050565b6103b56103b036600461311f565b610a3a565b005b6102c06103c5366004613183565b6001600160a01b031660009081526098602052604090205490565b6103b5610c52565b6102c06103f6366004613025565b610c66565b6102c0610409366004613183565b61011f6020526000908152604090205481565b6097546001600160a01b0316610335565b610267610c87565b6103b5610443366004613025565b610c96565b6102c0610ce3565b6102c061045e366004613025565b610d65565b610120546102c0565b61024a61047a366004612ff9565b610e3e565b61024a61048d366004612ff9565b610eb9565b61012254610335906001600160a01b031681565b6103b56104b4366004613025565b610ec7565b6102c061108e565b6102c06104cf3660046131a0565b611099565b6103b56104e2366004613183565b6110c4565b61012154610335906001600160a01b031681565b61011e546103359064010000000090046001600160a01b031681565b6102c07f333faabe8d5b573697f548cb3885d6a81cd1e2ac87d1775bfec70a290e8e4d6081565b60006001600160e01b0319821663041de68360e41b148061056f57506301ffc9a760e01b6001600160e01b03198316145b92915050565b6060609b8054610584906131d9565b80601f01602080910402602001604051908101604052809291908181526020018280546105b0906131d9565b80156105fd5780601f106105d2576101008083540402835291602001916105fd565b820191906000526020600020905b8154815290600101906020018083116105e057829003601f168201915b5050505050905090565b60003361061581858561113d565b5060019392505050565b600061056f61062c61108e565b6101205461011e5463ffffffff1685610664565b60003361064e858285611262565b6106598585856112d6565b506001949350505050565b600061066f85611481565b61067884611481565b6106878363ffffffff16611481565b61069082611481565b6000851180156106a05750600084115b80156106b2575060008363ffffffff16115b80156106c75750620f424063ffffffff841611155b61070a5760405162461bcd60e51b815260206004820152600f60248201526e24b73b30b634b21034b7383aba399760891b60448201526064015b60405180910390fd5b8160000361071a57506000610790565b620f423f1963ffffffff84160161074757836107368387613229565b6107409190613256565b9050610790565b60008080610755878661326a565b9050610766818888620f42406114c6565b9093509150600060ff831661077b858b613229565b901c9050610789898261327d565b9450505050505b949350505050565b6000336106158185856107ab8383611099565b6107b5919061326a565b61113d565b6000806107c683611646565b33600090815261011f60205260409020549091506107e590829061327d565b33600090815261011f60205260409020556101205461080590829061327d565b61012055610121546001600160a01b031663a9059cbb336040516001600160e01b031960e084901b1681526001600160a01b039091166004820152602481018490526044016020604051808303816000875af1158015610869573d6000803e3d6000fd5b505050506040513d601f19601f8201168201806040525081019061088d9190613290565b5092915050565b600080851180156108a55750600084115b80156108b7575060008363ffffffff16115b80156108cc5750620f424063ffffffff841611155b80156108d85750848211155b6109165760405162461bcd60e51b815260206004820152600f60248201526e24b73b30b634b21034b7383aba399760891b6044820152606401610701565b8160000361092657506000610790565b848203610934575082610790565b620f423f1963ffffffff84160161095057846107368386613229565b6000808061095e858961327d565b905061096f8882620f4240896114c6565b909350915060006109808489613229565b905060ff831688901b84610994828461327d565b61099e9190613256565b9a9950505050505050505050565b609d80546109b9906131d9565b80601f01602080910402602001604051908101604052809291908181526020018280546109e5906131d9565b8015610a325780601f10610a0757610100808354040283529160200191610a32565b820191906000526020600020905b815481529060010190602001808311610a1557829003601f168201915b505050505081565b600054610100900460ff1615808015610a5a5750600054600160ff909116105b80610a745750303b158015610a74575060005460ff166001145b610ad75760405162461bcd60e51b815260206004820152602e60248201527f496e697469616c697a61626c653a20636f6e747261637420697320616c72656160448201526d191e481a5b9a5d1a585b1a5e995960921b6064820152608401610701565b6000805460ff191660011790558015610afa576000805461ff0019166101001790555b610b0386611755565b610b0d8383611785565b61011e8054640100000000600160c01b0319166401000000006001600160a01b03888116919091029190911790915561012084905561012180546001600160a01b03191691861691821790556323b872dd336040516001600160e01b031960e084901b1681526001600160a01b039091166004820152306024820152604481018690526064016020604051808303816000875af1158015610bb2573d6000803e3d6000fd5b505050506040513d601f19601f82011682018060405250810190610bd69190613290565b5033600090815261011f6020526040902054610bf390849061326a565b33600090815261011f60205260409020558015610c4a576000805461ff0019169055604051600181527f7f26b83ff96e1f2b6a682f133852f6798a09c465da95921460cefb38474024989060200160405180910390a15b505050505050565b610c5a61178f565b610c6460006117e9565b565b600061056f610c7361108e565b6101205461011e5463ffffffff1685610894565b6060609c8054610584906131d9565b610ca0338261183b565b604080513381526020810183905260008183015290517f23ff0e75edf108e3d0392d92e13e8c8a868ef19001bd49f9e94876dc46dff87f9181900360600190a150565b61012054610121546040516370a0823160e01b8152306004820152600092916001600160a01b0316906370a0823190602401602060405180830381865afa158015610d32573d6000803e3d6000fd5b505050506040513d601f19601f82011682018060405250810190610d5691906132b2565b610d60919061327d565b905090565b33600090815261011f6020526040812054610d8190839061326a565b33600081815261011f60209081526040808320949094556101215484516323b872dd60e01b815260048101949094523060248501526044840187905293516001600160a01b03909416936323b872dd936064808201949183900301908290875af1158015610df3573d6000803e3d6000fd5b505050506040513d601f19601f82011682018060405250810190610e179190613290565b506000610e2383611967565b90508261012054610e34919061326a565b6101205592915050565b60003381610e4c8286611099565b905083811015610eac5760405162461bcd60e51b815260206004820152602560248201527f45524332303a2064656372656173656420616c6c6f77616e63652062656c6f77604482015264207a65726f60d81b6064820152608401610701565b610659828686840361113d565b6000336106158185856112d6565b6000610ed1610ce3565b905081600103610f5857610121546101225460405163a9059cbb60e01b81526001600160a01b0391821660048201526024810184905291169063a9059cbb906044016020604051808303816000875af1158015610f32573d6000803e3d6000fd5b505050506040513d601f19601f82011682018060405250810190610f569190613290565b505b81600203610fe9576000610f6b82610d65565b6101215460405163a9059cbb60e01b815263deadbeef6004820152602481018390529192506001600160a01b03169063a9059cbb906044016020604051808303816000875af1158015610fc2573d6000803e3d6000fd5b505050506040513d601f19601f82011682018060405250810190610fe69190613290565b50505b8160030361108a57610121546040516370a0823160e01b81523060048201526001600160a01b03909116906370a0823190602401602060405180830381865afa15801561103a573d6000803e3d6000fd5b505050506040513d601f19601f8201168201806040525081019061105e91906132b2565b61012055600061106d609a5490565b61011e805463ffffffff1916620493e09081179091559091505b50505b5050565b6000610d60609a5490565b6001600160a01b03918216600090815260996020908152604080832093909416825291909152205490565b6110cc61178f565b6001600160a01b0381166111315760405162461bcd60e51b815260206004820152602660248201527f4f776e61626c653a206e6577206f776e657220697320746865207a65726f206160448201526564647265737360d01b6064820152608401610701565b61113a816117e9565b50565b6001600160a01b03831661119f5760405162461bcd60e51b8152602060048201526024808201527f45524332303a20617070726f76652066726f6d20746865207a65726f206164646044820152637265737360e01b6064820152608401610701565b6001600160a01b0382166112005760405162461bcd60e51b815260206004820152602260248201527f45524332303a20617070726f766520746f20746865207a65726f206164647265604482015261737360f01b6064820152608401610701565b6001600160a01b0383811660008181526099602090815260408083209487168084529482529182902085905590518481527f8c5be1e5ebec7d5bd14f71427d1e84f3dd0314c0f7b2291e5b200ac8c7c3b92591015b60405180910390a3505050565b600061126e8484611099565b9050600019811461108757818110156112c95760405162461bcd60e51b815260206004820152601d60248201527f45524332303a20696e73756666696369656e7420616c6c6f77616e63650000006044820152606401610701565b611087848484840361113d565b6001600160a01b03831661133a5760405162461bcd60e51b815260206004820152602560248201527f45524332303a207472616e736665722066726f6d20746865207a65726f206164604482015264647265737360d81b6064820152608401610701565b6001600160a01b03821661139c5760405162461bcd60e51b815260206004820152602360248201527f45524332303a207472616e7366657220746f20746865207a65726f206164647260448201526265737360e81b6064820152608401610701565b6001600160a01b038316600090815260986020526040902054818110156114145760405162461bcd60e51b815260206004820152602660248201527f45524332303a207472616e7366657220616d6f756e7420657863656564732062604482015265616c616e636560d01b6064820152608401610701565b6001600160a01b0380851660008181526098602052604080822086860390559286168082529083902080548601905591517fddf252ad1be2c89b69c2b068fc378daa952ba7f163c4a11628f55a4df523b3ef906114749086815260200190565b60405180910390a3611087565b61113a8160405160240161149791815260200190565b60408051601f198184030181529190526020810180516001600160e01b031663f5b1bba960e01b179052611a0d565b600080600160811b861061151c5760405162461bcd60e51b815260206004820152601860248201527f626173654e2065786365656473206d61782076616c75652e00000000000000006044820152606401610701565b8486101561156c5760405162461bcd60e51b815260206004820152601c60248201527f4261736573203c203120617265206e6f7420737570706f727465642e000000006044820152606401610701565b6000808661157e6001607f1b8a613229565b6115889190613256565b905070015bf0a8b1457695355fb8ac404e7a79e38110156115b3576115ac81611a2e565b91506115bf565b6115bc81611fa7565b91505b60008563ffffffff168763ffffffff16846115da9190613229565b6115e49190613256565b9050600160831b811015611609576115fb81612096565b607f9450945050505061163d565b6000611614826126c1565b905061163061162482607f6132cb565b60ff1683901c82612786565b9550935061163d92505050565b94509492505050565b60008082116116975760405162461bcd60e51b815260206004820152601860248201527f416d6f756e74206d757374206265206e6f6e2d7a65726f2e00000000000000006044820152606401610701565b336000908152609860205260409020548211156116f65760405162461bcd60e51b815260206004820152601c60248201527f496e73756666696369656e7420746f6b656e7320746f206275726e2e000000006044820152606401610701565b600061170183610c66565b905061170d338461183b565b60408051338152602081018590529081018290527f23ff0e75edf108e3d0392d92e13e8c8a868ef19001bd49f9e94876dc46dff87f906060015b60405180910390a192915050565b600054610100900460ff1661177c5760405162461bcd60e51b8152600401610701906132e4565b61113a81612ded565b61108a3383612e36565b6097546001600160a01b03163314610c645760405162461bcd60e51b815260206004820181905260248201527f4f776e61626c653a2063616c6c6572206973206e6f7420746865206f776e65726044820152606401610701565b609780546001600160a01b038381166001600160a01b0319831681179093556040519116919082907f8be0079c531659141344cd1fd0a4f28419497f9722a3daafe3b4186f6b6457e090600090a35050565b6001600160a01b03821661189b5760405162461bcd60e51b815260206004820152602160248201527f45524332303a206275726e2066726f6d20746865207a65726f206164647265736044820152607360f81b6064820152608401610701565b6001600160a01b0382166000908152609860205260409020548181101561190f5760405162461bcd60e51b815260206004820152602260248201527f45524332303a206275726e20616d6f756e7420657863656564732062616c616e604482015261636560f01b6064820152608401610701565b6001600160a01b03831660008181526098602090815260408083208686039055609a80548790039055518581529192917fddf252ad1be2c89b69c2b068fc378daa952ba7f163c4a11628f55a4df523b3ef9101611255565b60008082116119b85760405162461bcd60e51b815260206004820152601960248201527f4465706f736974206d757374206265206e6f6e2d7a65726f2e000000000000006044820152606401610701565b60006119c38361061f565b90506119cf3382612e36565b60408051338152602081018390529081018490527f25b428dfde728ccfaddad7e29e4ac23c24ed7fd1a6e3e3f91894a9a073f5dfff90606001611747565b80516a636f6e736f6c652e6c6f67602083016000808483855afa5050505050565b6000808080806fd3094c70f034de4b96ff7d5b6f99fcd88610611a8757611a596001607e1b8561326a565b93506fd3094c70f034de4b96ff7d5b6f99fcd8611a7a6001607f1b88613229565b611a849190613256565b95505b6fa45af1e1f40c333b3de1db4dd55f29a78610611ada57611aac6001607d1b8561326a565b93506fa45af1e1f40c333b3de1db4dd55f29a7611acd6001607f1b88613229565b611ad79190613256565b95505b6f910b022db7ae67ce76b441c27035c6a18610611b2d57611aff6001607c1b8561326a565b93506f910b022db7ae67ce76b441c27035c6a1611b206001607f1b88613229565b611b2a9190613256565b95505b6f88415abbe9a76bead8d00cf112e4d4a88610611b8057611b526001607b1b8561326a565b93506f88415abbe9a76bead8d00cf112e4d4a8611b736001607f1b88613229565b611b7d9190613256565b95505b6f84102b00893f64c705e841d5d4064bd38610611bd357611ba56001607a1b8561326a565b93506f84102b00893f64c705e841d5d4064bd3611bc66001607f1b88613229565b611bd09190613256565b95505b6f8204055aaef1c8bd5c3259f4822735a28610611c2657611bf8600160791b8561326a565b93506f8204055aaef1c8bd5c3259f4822735a2611c196001607f1b88613229565b611c239190613256565b95505b6f810100ab00222d861931c15e39b44e998610611c7957611c4b600160781b8561326a565b93506f810100ab00222d861931c15e39b44e99611c6c6001607f1b88613229565b611c769190613256565b95505b6f808040155aabbbe9451521693554f7338610611ccc57611c9e600160771b8561326a565b93506f808040155aabbbe9451521693554f733611cbf6001607f1b88613229565b611cc99190613256565b95505b611cda6001607f1b8761327d565b92508291506001607f1b611cee8380613229565b611cf89190613256565b9050600160801b611d09848261327d565b611d139084613229565b611d1d9190613256565b611d27908561326a565b93506001607f1b611d388284613229565b611d429190613256565b9150600160811b611d63846faaaaaaaaaaaaaaaaaaaaaaaaaaaaaaaa61327d565b611d6d9084613229565b611d779190613256565b611d81908561326a565b93506001607f1b611d928284613229565b611d9c9190613256565b9150600360801b611dbd846f9999999999999999999999999999999961327d565b611dc79084613229565b611dd19190613256565b611ddb908561326a565b93506001607f1b611dec8284613229565b611df69190613256565b9150600160821b611e17846f9249249249249249249249249249249261327d565b611e219084613229565b611e2b9190613256565b611e35908561326a565b93506001607f1b611e468284613229565b611e509190613256565b9150600560801b611e71846f8e38e38e38e38e38e38e38e38e38e38e61327d565b611e7b9084613229565b611e859190613256565b611e8f908561326a565b93506001607f1b611ea08284613229565b611eaa9190613256565b9150600360811b611ecb846f8ba2e8ba2e8ba2e8ba2e8ba2e8ba2e8b61327d565b611ed59084613229565b611edf9190613256565b611ee9908561326a565b93506001607f1b611efa8284613229565b611f049190613256565b9150600760801b611f25846f89d89d89d89d89d89d89d89d89d89d8961327d565b611f2f9084613229565b611f399190613256565b611f43908561326a565b93506001607f1b611f548284613229565b611f5e9190613256565b9150600160831b611f7f846f8888888888888888888888888888888861327d565b611f899084613229565b611f939190613256565b611f9d908561326a565b9695505050505050565b60008082600160801b8110611fec576000611fce611fc96001607f1b84613256565b612ef7565b60ff811692831c92909150611fe8906001607f1b90613229565b9250505b6001607f1b81111561206157607f5b60ff81161561205f576001607f1b6120138380613229565b61201d9190613256565b9150600160801b821061204f57600191821c9161203a90826132cb565b60ff166001901b8361204c919061326a565b92505b6120588161332f565b9050611ffb565b505b6f05b9de1d10bf4103d647b0955897ba8061208c6f03f80fe03f80fe03f80fe03f80fe03f884613229565b6107909190613256565b60008080806120a96001607c1b8661334c565b91508190506001607f1b6120bd8280613229565b6120c79190613256565b90506120db816710e1b3be415a0000613229565b6120e5908461326a565b92506001607f1b6120f68383613229565b6121009190613256565b9050612114816705a0913f6b1e0000613229565b61211e908461326a565b92506001607f1b61212f8383613229565b6121399190613256565b905061214d81670168244fdac78000613229565b612157908461326a565b92506001607f1b6121688383613229565b6121729190613256565b905061218581664807432bc18000613229565b61218f908461326a565b92506001607f1b6121a08383613229565b6121aa9190613256565b90506121bd81660c0135dca04000613229565b6121c7908461326a565b92506001607f1b6121d88383613229565b6121e29190613256565b90506121f5816601b707b1cdc000613229565b6121ff908461326a565b92506001607f1b6122108383613229565b61221a9190613256565b905061222c816536e0f639b800613229565b612236908461326a565b92506001607f1b6122478383613229565b6122519190613256565b905061226381650618fee9f800613229565b61226d908461326a565b92506001607f1b61227e8383613229565b6122889190613256565b905061229981649c197dcc00613229565b6122a3908461326a565b92506001607f1b6122b48383613229565b6122be9190613256565b90506122cf81640e30dce400613229565b6122d9908461326a565b92506001607f1b6122ea8383613229565b6122f49190613256565b90506123058164012ebd1300613229565b61230f908461326a565b92506001607f1b6123208383613229565b61232a9190613256565b905061233a816317499f00613229565b612344908461326a565b92506001607f1b6123558383613229565b61235f9190613256565b905061236f816301a9d480613229565b612379908461326a565b92506001607f1b61238a8383613229565b6123949190613256565b90506123a381621c6380613229565b6123ad908461326a565b92506001607f1b6123be8383613229565b6123c89190613256565b90506123d7816201c638613229565b6123e1908461326a565b92506001607f1b6123f28383613229565b6123fc9190613256565b905061240a81611ab8613229565b612414908461326a565b92506001607f1b6124258383613229565b61242f9190613256565b905061243d8161017c613229565b612447908461326a565b92506001607f1b6124588383613229565b6124629190613256565b905061246f816014613229565b612479908461326a565b92506001607f1b61248a8383613229565b6124949190613256565b90506124a1816001613229565b6124ab908461326a565b92506001607f1b826124c56721c3677c82b4000086613256565b6124cf919061326a565b6124d9919061326a565b92506001607c1b8516156125215770018ebef9eac820ae8682b9793ac6d1e776612514847001c3d6a24ed82218787d624d3e5eba95f9613229565b61251e9190613256565b92505b6001607d1b851615612567577001368b2fc6f9609fe7aceb46aa619baed461255a8470018ebef9eac820ae8682b9793ac6d1e778613229565b6125649190613256565b92505b6001607e1b8516156125ac576fbc5ab1b16779be3575bd8f0520a9f21f61259f847001368b2fc6f9609fe7aceb46aa619baed5613229565b6125a99190613256565b92505b6001607f1b8516156125f0576f454aaa8efe072e7f6ddbab84b40a55c96125e3846fbc5ab1b16779be3575bd8f0520a9f21e613229565b6125ed9190613256565b92505b600160801b851615612634576f0960aadc109e7a3bf4578099615711ea612627846f454aaa8efe072e7f6ddbab84b40a55c5613229565b6126319190613256565b92505b600160811b851615612677576e2bf84208204f5977f9a8cf01fdce3d61266a846f0960aadc109e7a3bf4578099615711d7613229565b6126749190613256565b92505b600160821b8516156126b8576d03c6ab775dd0b95b4cbee7e65d116126ab846e2bf84208204f5977f9a8cf01fdc307613229565b6126b59190613256565b92505b50909392505050565b60006020607f5b60ff81166126d7836001613360565b60ff16101561272a57600060026126ee8385613360565b6126f89190613379565b905084609e8260ff16608081106127115761271161339b565b01541061272057809250612724565b8091505b506126c8565b83609e8260ff16608081106127415761274161339b565b01541061274f579392505050565b83609e8360ff16608081106127665761276661339b565b015410612774575092915050565b61277c6133b1565b5060009392505050565b6000828160ff84166127988380613229565b901c91506127b6826f03442c4e6074a82f1797f72ac0000000613229565b6127c0908261326a565b905060ff84166127d08684613229565b901c91506127ee826f0116b96f757c380fb287fd0e40000000613229565b6127f8908261326a565b905060ff84166128088684613229565b901c9150612825826e45ae5bdd5f0e03eca1ff4390000000613229565b61282f908261326a565b905060ff841661283f8684613229565b901c915061285c826e0defabf91302cd95b9ffda50000000613229565b612866908261326a565b905060ff84166128768684613229565b901c9150612893826e02529ca9832b22439efff9b8000000613229565b61289d908261326a565b905060ff84166128ad8684613229565b901c91506128c9826d54f1cf12bd04e516b6da88000000613229565b6128d3908261326a565b905060ff84166128e38684613229565b901c91506128ff826d0a9e39e257a09ca2d6db51000000613229565b612909908261326a565b905060ff84166129198684613229565b901c9150612935826d012e066e7b839fa050c309000000613229565b61293f908261326a565b905060ff841661294f8684613229565b901c915061296a826c1e33d7d926c329a1ad1a800000613229565b612974908261326a565b905060ff84166129848684613229565b901c915061299f826c02bee513bdb4a6b19b5f800000613229565b6129a9908261326a565b905060ff84166129b98684613229565b901c91506129d3826b3a9316fa79b88eccf2a00000613229565b6129dd908261326a565b905060ff84166129ed8684613229565b901c9150612a07826b048177ebe1fa812375200000613229565b612a11908261326a565b905060ff8416612a218684613229565b901c9150612a3a826a5263fe90242dcbacf00000613229565b612a44908261326a565b905060ff8416612a548684613229565b901c9150612a6d826a057e22099c030d94100000613229565b612a77908261326a565b905060ff8416612a878684613229565b901c9150612a9f826957e22099c030d9410000613229565b612aa9908261326a565b905060ff8416612ab98684613229565b901c9150612ad18269052b6b54569976310000613229565b612adb908261326a565b905060ff8416612aeb8684613229565b901c9150612b0282684985f67696bf748000613229565b612b0c908261326a565b905060ff8416612b1c8684613229565b901c9150612b33826803dea12ea99e498000613229565b612b3d908261326a565b905060ff8416612b4d8684613229565b901c9150612b63826731880f2214b6e000613229565b612b6d908261326a565b905060ff8416612b7d8684613229565b901c9150612b938267025bcff56eb36000613229565b612b9d908261326a565b905060ff8416612bad8684613229565b901c9150612bc282661b722e10ab1000613229565b612bcc908261326a565b905060ff8416612bdc8684613229565b901c9150612bf1826601317c70077000613229565b612bfb908261326a565b905060ff8416612c0b8684613229565b901c9150612c1f82650cba84aafa00613229565b612c29908261326a565b905060ff8416612c398684613229565b901c9150612c4c826482573a0a00613229565b612c56908261326a565b905060ff8416612c668684613229565b901c9150612c79826405035ad900613229565b612c83908261326a565b905060ff8416612c938684613229565b901c9150612ca582632f881b00613229565b612caf908261326a565b905060ff8416612cbf8684613229565b901c9150612cd1826301b29340613229565b612cdb908261326a565b905060ff8416612ceb8684613229565b901c9150612cfc82620efc40613229565b612d06908261326a565b905060ff8416612d168684613229565b901c9150612d2682617fe0613229565b612d30908261326a565b905060ff8416612d408684613229565b901c9150612d5082610420613229565b612d5a908261326a565b905060ff8416612d6a8684613229565b901c9150612d79826021613229565b612d83908261326a565b905060ff8416612d938684613229565b901c9150612da2826001613229565b612dac908261326a565b9050600160ff85161b85612dd06f0688589cc0e9505e2f2fee558000000084613256565b612dda919061326a565b612de4919061326a565b95945050505050565b600054610100900460ff16612e145760405162461bcd60e51b8152600401610701906132e4565b606580546001600160a01b0319166001600160a01b0392909216919091179055565b6001600160a01b038216612e8c5760405162461bcd60e51b815260206004820152601f60248201527f45524332303a206d696e7420746f20746865207a65726f2061646472657373006044820152606401610701565b80609a6000828254612e9e919061326a565b90915550506001600160a01b0382166000818152609860209081526040808320805486019055518481527fddf252ad1be2c89b69c2b068fc378daa952ba7f163c4a11628f55a4df523b3ef910160405180910390a35050565b60008082610100811015612f2b575b6001811115612f2657600190811c90612f1f9083613360565b9150612f06565b61088d565b60805b60ff811615612f5d57600160ff82161b8210612f52579182179160ff81169190911c905b60011c607f16612f2e565b505092915050565b600060208284031215612f7757600080fd5b81356001600160e01b031981168114612f8f57600080fd5b9392505050565b600060208083528351808285015260005b81811015612fc357858101830151858201604001528201612fa7565b506000604082860101526040601f19601f8301168501019250505092915050565b6001600160a01b038116811461113a57600080fd5b6000806040838503121561300c57600080fd5b823561301781612fe4565b946020939093013593505050565b60006020828403121561303757600080fd5b5035919050565b60008060006060848603121561305357600080fd5b833561305e81612fe4565b9250602084013561306e81612fe4565b929592945050506040919091013590565b803563ffffffff8116811461309357600080fd5b919050565b600080600080608085870312156130ae57600080fd5b84359350602085013592506130c56040860161307f565b9396929550929360600135925050565b60208101600383106130f757634e487b7160e01b600052602160045260246000fd5b91905290565b6000806040838503121561311057600080fd5b50508035926020909101359150565b600080600080600060a0868803121561313757600080fd5b853561314281612fe4565b9450602086013561315281612fe4565b9350604086013561316281612fe4565b9250606086013591506131776080870161307f565b90509295509295909350565b60006020828403121561319557600080fd5b8135612f8f81612fe4565b600080604083850312156131b357600080fd5b82356131be81612fe4565b915060208301356131ce81612fe4565b809150509250929050565b600181811c908216806131ed57607f821691505b60208210810361320d57634e487b7160e01b600052602260045260246000fd5b50919050565b634e487b7160e01b600052601160045260246000fd5b808202811582820484141761056f5761056f613213565b634e487b7160e01b600052601260045260246000fd5b60008261326557613265613240565b500490565b8082018082111561056f5761056f613213565b8181038181111561056f5761056f613213565b6000602082840312156132a257600080fd5b81518015158114612f8f57600080fd5b6000602082840312156132c457600080fd5b5051919050565b60ff828116828216039081111561056f5761056f613213565b6020808252602b908201527f496e697469616c697a61626c653a20636f6e7472616374206973206e6f74206960408201526a6e697469616c697a696e6760a81b606082015260800190565b600060ff82168061334257613342613213565b6000190192915050565b60008261335b5761335b613240565b500690565b60ff818116838216019081111561056f5761056f613213565b600060ff83168061338c5761338c613240565b8060ff84160491505092915050565b634e487b7160e01b600052603260045260246000fd5b634e487b7160e01b600052600160045260246000fdfea2646970667358221220d46ebe73851396981d027a92a6c2d564ed72686ab8a08e602f39a743264027db64736f6c63430008110033",
    "linkReferences": {}
  },
  "methodIdentifiers": {
    "ADMIN_EXECUTE_PERMISSION_ID()": "f8a2c98e",
    "admin()": "f851a440",
    "allowance(address,address)": "dd62ed3e",
    "approve(address,uint256)": "095ea7b3",
    "balanceOf(address)": "70a08231",
    "burn(uint256)": "42966c68",
    "calculatePurchaseReturn(uint256,uint256,uint32,uint256)": "29a00e7c",
    "calculateReserveRatio(uint256,uint256)": "630e9032",
    "calculateSaleReturn(uint256,uint256,uint32,uint256)": "49f9b0f7",
    "continuousSupply()": "da12457a",
    "dao()": "4162169f",
    "decimals()": "313ce567",
    "decreaseAllowance(address,uint256)": "a457c2d7",
    "getContinuousBurnRefund(uint256)": "7cbed3e0",
    "getContinuousMintReward(uint256)": "0d8f9f7f",
    "increaseAllowance(address,uint256)": "39509351",
    "initialize(address,address,address,uint256,uint32)": "66c4ab23",
    "manageYieldSurplus(uint256)": "cb0aad36",
    "mint(uint256)": "a0712d68",
    "name()": "06fdde03",
    "owner()": "8da5cb5b",
    "pluginType()": "41de6830",
    "renounceOwnership()": "715018a6",
    "reserveBalance()": "a10954fe",
    "reserveRatio()": "0c7d5cd8",
    "reserveSurplus()": "9db3ad7e",
    "reserveToken()": "f4325d67",
    "sponsoredBurn(uint256)": "96343886",
    "supportsInterface(bytes4)": "01ffc9a7",
    "symbol()": "95d89b41",
    "taxPct()": "33a4ea06",
    "totalSupply()": "18160ddd",
    "transfer(address,uint256)": "a9059cbb",
    "transferFrom(address,address,uint256)": "23b872dd",
    "transferOwnership(address)": "f2fde38b",
    "treasuryAddress()": "c5f956af",
    "userLockedBalance(address)": "8cf2b63e",
    "version()": "54fd4d50"
  },
  "id": 71
}