{
  "abi": [
    {
      "inputs": [
        {
          "internalType": "uint256",
          "name": "_supply",
          "type": "uint256"
        },
        {
          "internalType": "uint256",
          "name": "_reserveBalance",
          "type": "uint256"
        },
        {
          "internalType": "uint32",
          "name": "_reserveRatio",
          "type": "uint32"
        },
        {
          "internalType": "uint256",
          "name": "_depositAmount",
          "type": "uint256"
        }
      ],
      "name": "calculatePurchaseReturn",
      "outputs": [
        {
          "internalType": "uint256",
          "name": "",
          "type": "uint256"
        }
      ],
      "stateMutability": "view",
      "type": "function"
    },
    {
      "inputs": [
        {
          "internalType": "uint256",
          "name": "_supply",
          "type": "uint256"
        },
        {
          "internalType": "uint256",
          "name": "_reserveBalance",
          "type": "uint256"
        },
        {
          "internalType": "uint32",
          "name": "_reserveRatio",
          "type": "uint32"
        },
        {
          "internalType": "uint256",
          "name": "_sellAmount",
          "type": "uint256"
        }
      ],
      "name": "calculateSaleReturn",
      "outputs": [
        {
          "internalType": "uint256",
          "name": "",
          "type": "uint256"
        }
      ],
      "stateMutability": "view",
      "type": "function"
    },
    {
      "inputs": [],
      "name": "version",
      "outputs": [
        {
          "internalType": "string",
          "name": "",
          "type": "string"
        }
      ],
      "stateMutability": "view",
      "type": "function"
    }
  ],
  "bytecode": {
    "object": "0x60c06040526003608090815262302e3360e81b60a05260009062000024908262000807565b503480156200003257600080fd5b506001641c35fedd1560601b036021556001646c3390ecc9605e1b036022556001640cf801476160611b0360235560016431bdb23e1d605f1b0360245560016502fb1d8fe083605b1b0360255560016505b771955b37605a1b036026556001650af67a93bb5160591b0360275560016515060c256cb360581b036028556001651428a2f98d7360581b036029556001654d515663970960561b03602a55600165944620b0e70f60551b03602b55600166011c592761c66760541b03602c5560016602214d10d014eb60531b03602d55600166020ade36b7dbef60531b03602e5560016603eab73b3bbfe360521b03602f556001660782ee3593f6d760511b036030556001661ccf4b44bb4821604f1b0360315560016606e7f88ad8a77760511b0360325560016669f3d1c921891d604d1b03603355600166cb2ff529eb71e5604c1b03603455600166c2d415c3db974b604c1b0360355560016702eb40f9f620fda7604a1b0360365560016705990681d961a1eb60491b03603755600167055e12902701414760491b0360385560016714962dee9dc9764160471b0360395560016704ef57b9b560fab560491b03603a5560016712ed7b32a58f552b60471b03603b556001679131271922eaa60760441b03603c556001678b380f3558668c4760441b03603d556001680215f77c045fbe885760421b03603e556001600160831b03603f556001670f577eded5773a1160471b036040556001680eb5ec597592befbf5603f1b036041556001681c35fedd14b861eb05603e1b036042556001683619c87664579bc94b603d1b0360435560016867c00a3b07ffc01fd7603c1b03604455600168c6f6c8f8739773a7a5603b1b03604555600168bec763f8209b7a72b1603b1b0360465560016902dbb8caad9b7097b91b60391b03604755600169057b3d49dda84556d6f760381b03604855600169054183095b2c8ececf3160381b036049556001690a14517cc6b9457111ef60371b03604a5560016913545598e5c23276ccf160361b03604b556001692511882c39c3adea96ff60351b03604c55600169471649d87199aa99075760341b03604d557004429a21a029d4c1457cfbffffffffffff604e55700415bc6d6fb7dd71af2cb3ffffffffffff604f557003eab73b3bbfe282243ce1ffffffffffff6050557003c1771ac9fb6b4c18e229ffffffffffff605155700399e96897690418f785257fffffffffff605255700373fc456c53bb779bf0ea9fffffffffff60535570034f9e8e490c48e67e6ab8bfffffffffff60545570032cbfd4a7adc790560b3337ffffffffff60555570030b50570f6e5d2acca94613ffffffffff6056557002eb40f9f620fda6b56c2861ffffffffff6057557002cc8340ecb0d0f520a6af58ffffffffff6058557002af09481380a0a35cf1ba02ffffffffff605955700292c5bdd3b92ec810287b1b3fffffffff605a55700277abdcdab07d5a77ac6d6b9fffffffff605b5570025daf6654b1eaa55fd64df5efffffffff605c55700244c49c648baa98192dce88b7ffffffff605d5570022ce03cd5619a311b2471268bffffffff605e55700215f77c045fbe885654a44a0fffffffff605f556001600160811b036060557001eaefdbdaaee7421fc4d3ede5ffffffff6061557001d6bd8b2eb257df7e8ca57b09bfffffff6062557001c35fedd14b861eb0443f7f133fffffff6063557001b0ce43b322bcde4a56e8ada5afffffff60645570019f0028ec1fff007f5a195a39dfffffff60655570018ded91f0e72ee74f49b15ba527ffffff60665570017d8ec7f04136f4e5615fd41a63ffffff60675570016ddc6556cdb84bdc8d12d22e6fffffff60685570015ecf52776a1155b5bd8395814f7fffff60695570015060c256cb23b3b3cc3754cf40ffffff606a557001428a2f98d728ae223ddab715be3fffff606b5570013545598e5c23276ccf0ede68034fffff606c557001288c4161ce1d6f54b7f61081194fffff606d5570011c592761c666aa641d5a01a40f17ffff606e55700110a688680a7530515f3e6e6cfdcdffff606f557001056f1b5bedf75c6bcb2ce8aed428ffff6070556ffaadceceeff8a0890f3875f008277fff6071556ff05dc6b27edad306388a600f6ba0bfff6072556fe67a5a25da41063de1495d5b18cdbfff6073556fdcff115b14eedde6fc3aa5353f2e4fff6074556fd3e7a3924312399f9aae2e0f868f8fff6075556fcb2ff529eb71e41582cccd5a1ee26fff6076556fc2d415c3db974ab32a51840c0b67edff6077556fbad03e7d883f69ad5b0a186184e06bff6078556fb320d03b2c343d4829abd6075f0cc5ff6079556fabc25204e02828d73c6e80bcdb1a95bf607a556fa4b16f74ee4bb2040a1ec6c15fbbf2df607b556f9deaf736ac1f569deb1b5ae3f36c130f607c556f976bd9952c7aa957f5937d790ef65037607d556f9131271922eaa6064b73a22d0bd4f2bf607e556f8b380f3558668c46c91c49a2f8e967b9607f556f857ddf0117efa215952912839f6473e6608055620008d3565b634e487b7160e01b600052604160045260246000fd5b600181811c908216806200078d57607f821691505b602082108103620007ae57634e487b7160e01b600052602260045260246000fd5b50919050565b601f8211156200080257600081815260208120601f850160051c81016020861015620007dd5750805b601f850160051c820191505b81811015620007fe57828155600101620007e9565b5050505b505050565b81516001600160401b0381111562000823576200082362000762565b6200083b8162000834845462000778565b84620007b4565b602080601f8311600181146200087357600084156200085a5750858301515b600019600386901b1c1916600185901b178555620007fe565b600085815260208120601f198616915b82811015620008a45788860151825594840194600190910190840162000883565b5085821015620008c35787850151600019600388901b60f8161c191681555b5050505050600190811b01905550565b611b2780620008e36000396000f3fe608060405234801561001057600080fd5b50600436106100415760003560e01c806329a00e7c1461004657806349f9b0f71461006c57806354fd4d501461007f575b600080fd5b6100596100543660046118f3565b610094565b6040519081526020015b60405180910390f35b61005961007a3660046118f3565b61019d565b6100876102b5565b604051610063919061193b565b600080851180156100a55750600084115b80156100b7575060008363ffffffff16115b80156100cc5750620f424063ffffffff841611155b61010f5760405162461bcd60e51b815260206004820152600f60248201526e24b73b30b634b21034b7383aba399760891b60448201526064015b60405180910390fd5b8160000361011f57506000610195565b620f423f1963ffffffff84160161014c578361013b838761199f565b61014591906119cc565b9050610195565b6000808061015a87866119e0565b905061016b818888620f4240610343565b9093509150600060ff8316610180858b61199f565b901c905061018e89826119f3565b9450505050505b949350505050565b600080851180156101ae5750600084115b80156101c0575060008363ffffffff16115b80156101d55750620f424063ffffffff841611155b80156101e15750848211155b61021f5760405162461bcd60e51b815260206004820152600f60248201526e24b73b30b634b21034b7383aba399760891b6044820152606401610106565b8160000361022f57506000610195565b84820361023d575082610195565b620f423f1963ffffffff841601610259578461013b838661199f565b6000808061026785896119f3565b90506102788882620f424089610343565b90935091506000610289848961199f565b905060ff831688901b8461029d82846119f3565b6102a791906119cc565b9a9950505050505050505050565b600080546102c290611a06565b80601f01602080910402602001604051908101604052809291908181526020018280546102ee90611a06565b801561033b5780601f106103105761010080835404028352916020019161033b565b820191906000526020600020905b81548152906001019060200180831161031e57829003601f168201915b505050505081565b600080600160811b86106103995760405162461bcd60e51b815260206004820152601860248201527f626173654e2065786365656473206d61782076616c75652e00000000000000006044820152606401610106565b848610156103e95760405162461bcd60e51b815260206004820152601c60248201527f4261736573203c203120617265206e6f7420737570706f727465642e000000006044820152606401610106565b600080866103fb6001607f1b8a61199f565b61040591906119cc565b905070015bf0a8b1457695355fb8ac404e7a79e381101561043057610429816104c3565b915061043c565b61043981610a3c565b91505b60008563ffffffff168763ffffffff1684610457919061199f565b61046191906119cc565b9050600160831b8110156104865761047881610b2b565b607f945094505050506104ba565b600061049182611156565b90506104ad6104a182607f611a40565b60ff1683901c8261121b565b955093506104ba92505050565b94509492505050565b6000808080806fd3094c70f034de4b96ff7d5b6f99fcd8861061051c576104ee6001607e1b856119e0565b93506fd3094c70f034de4b96ff7d5b6f99fcd861050f6001607f1b8861199f565b61051991906119cc565b95505b6fa45af1e1f40c333b3de1db4dd55f29a7861061056f576105416001607d1b856119e0565b93506fa45af1e1f40c333b3de1db4dd55f29a76105626001607f1b8861199f565b61056c91906119cc565b95505b6f910b022db7ae67ce76b441c27035c6a186106105c2576105946001607c1b856119e0565b93506f910b022db7ae67ce76b441c27035c6a16105b56001607f1b8861199f565b6105bf91906119cc565b95505b6f88415abbe9a76bead8d00cf112e4d4a88610610615576105e76001607b1b856119e0565b93506f88415abbe9a76bead8d00cf112e4d4a86106086001607f1b8861199f565b61061291906119cc565b95505b6f84102b00893f64c705e841d5d4064bd386106106685761063a6001607a1b856119e0565b93506f84102b00893f64c705e841d5d4064bd361065b6001607f1b8861199f565b61066591906119cc565b95505b6f8204055aaef1c8bd5c3259f4822735a286106106bb5761068d600160791b856119e0565b93506f8204055aaef1c8bd5c3259f4822735a26106ae6001607f1b8861199f565b6106b891906119cc565b95505b6f810100ab00222d861931c15e39b44e99861061070e576106e0600160781b856119e0565b93506f810100ab00222d861931c15e39b44e996107016001607f1b8861199f565b61070b91906119cc565b95505b6f808040155aabbbe9451521693554f733861061076157610733600160771b856119e0565b93506f808040155aabbbe9451521693554f7336107546001607f1b8861199f565b61075e91906119cc565b95505b61076f6001607f1b876119f3565b92508291506001607f1b610783838061199f565b61078d91906119cc565b9050600160801b61079e84826119f3565b6107a8908461199f565b6107b291906119cc565b6107bc90856119e0565b93506001607f1b6107cd828461199f565b6107d791906119cc565b9150600160811b6107f8846faaaaaaaaaaaaaaaaaaaaaaaaaaaaaaaa6119f3565b610802908461199f565b61080c91906119cc565b61081690856119e0565b93506001607f1b610827828461199f565b61083191906119cc565b9150600360801b610852846f999999999999999999999999999999996119f3565b61085c908461199f565b61086691906119cc565b61087090856119e0565b93506001607f1b610881828461199f565b61088b91906119cc565b9150600160821b6108ac846f924924924924924924924924924924926119f3565b6108b6908461199f565b6108c091906119cc565b6108ca90856119e0565b93506001607f1b6108db828461199f565b6108e591906119cc565b9150600560801b610906846f8e38e38e38e38e38e38e38e38e38e38e6119f3565b610910908461199f565b61091a91906119cc565b61092490856119e0565b93506001607f1b610935828461199f565b61093f91906119cc565b9150600360811b610960846f8ba2e8ba2e8ba2e8ba2e8ba2e8ba2e8b6119f3565b61096a908461199f565b61097491906119cc565b61097e90856119e0565b93506001607f1b61098f828461199f565b61099991906119cc565b9150600760801b6109ba846f89d89d89d89d89d89d89d89d89d89d896119f3565b6109c4908461199f565b6109ce91906119cc565b6109d890856119e0565b93506001607f1b6109e9828461199f565b6109f391906119cc565b9150600160831b610a14846f888888888888888888888888888888886119f3565b610a1e908461199f565b610a2891906119cc565b610a3290856119e0565b9695505050505050565b60008082600160801b8110610a81576000610a63610a5e6001607f1b846119cc565b611884565b60ff811692831c92909150610a7d906001607f1b9061199f565b9250505b6001607f1b811115610af657607f5b60ff811615610af4576001607f1b610aa8838061199f565b610ab291906119cc565b9150600160801b8210610ae457600191821c91610acf9082611a40565b60ff166001901b83610ae191906119e0565b92505b610aed81611a59565b9050610a90565b505b6f05b9de1d10bf4103d647b0955897ba80610b216f03f80fe03f80fe03f80fe03f80fe03f88461199f565b61019591906119cc565b6000808080610b3e6001607c1b86611a76565b91508190506001607f1b610b52828061199f565b610b5c91906119cc565b9050610b70816710e1b3be415a000061199f565b610b7a90846119e0565b92506001607f1b610b8b838361199f565b610b9591906119cc565b9050610ba9816705a0913f6b1e000061199f565b610bb390846119e0565b92506001607f1b610bc4838361199f565b610bce91906119cc565b9050610be281670168244fdac7800061199f565b610bec90846119e0565b92506001607f1b610bfd838361199f565b610c0791906119cc565b9050610c1a81664807432bc1800061199f565b610c2490846119e0565b92506001607f1b610c35838361199f565b610c3f91906119cc565b9050610c5281660c0135dca0400061199f565b610c5c90846119e0565b92506001607f1b610c6d838361199f565b610c7791906119cc565b9050610c8a816601b707b1cdc00061199f565b610c9490846119e0565b92506001607f1b610ca5838361199f565b610caf91906119cc565b9050610cc1816536e0f639b80061199f565b610ccb90846119e0565b92506001607f1b610cdc838361199f565b610ce691906119cc565b9050610cf881650618fee9f80061199f565b610d0290846119e0565b92506001607f1b610d13838361199f565b610d1d91906119cc565b9050610d2e81649c197dcc0061199f565b610d3890846119e0565b92506001607f1b610d49838361199f565b610d5391906119cc565b9050610d6481640e30dce40061199f565b610d6e90846119e0565b92506001607f1b610d7f838361199f565b610d8991906119cc565b9050610d9a8164012ebd130061199f565b610da490846119e0565b92506001607f1b610db5838361199f565b610dbf91906119cc565b9050610dcf816317499f0061199f565b610dd990846119e0565b92506001607f1b610dea838361199f565b610df491906119cc565b9050610e04816301a9d48061199f565b610e0e90846119e0565b92506001607f1b610e1f838361199f565b610e2991906119cc565b9050610e3881621c638061199f565b610e4290846119e0565b92506001607f1b610e53838361199f565b610e5d91906119cc565b9050610e6c816201c63861199f565b610e7690846119e0565b92506001607f1b610e87838361199f565b610e9191906119cc565b9050610e9f81611ab861199f565b610ea990846119e0565b92506001607f1b610eba838361199f565b610ec491906119cc565b9050610ed28161017c61199f565b610edc90846119e0565b92506001607f1b610eed838361199f565b610ef791906119cc565b9050610f0481601461199f565b610f0e90846119e0565b92506001607f1b610f1f838361199f565b610f2991906119cc565b9050610f3681600161199f565b610f4090846119e0565b92506001607f1b82610f5a6721c3677c82b40000866119cc565b610f6491906119e0565b610f6e91906119e0565b92506001607c1b851615610fb65770018ebef9eac820ae8682b9793ac6d1e776610fa9847001c3d6a24ed82218787d624d3e5eba95f961199f565b610fb391906119cc565b92505b6001607d1b851615610ffc577001368b2fc6f9609fe7aceb46aa619baed4610fef8470018ebef9eac820ae8682b9793ac6d1e77861199f565b610ff991906119cc565b92505b6001607e1b851615611041576fbc5ab1b16779be3575bd8f0520a9f21f611034847001368b2fc6f9609fe7aceb46aa619baed561199f565b61103e91906119cc565b92505b6001607f1b851615611085576f454aaa8efe072e7f6ddbab84b40a55c9611078846fbc5ab1b16779be3575bd8f0520a9f21e61199f565b61108291906119cc565b92505b600160801b8516156110c9576f0960aadc109e7a3bf4578099615711ea6110bc846f454aaa8efe072e7f6ddbab84b40a55c561199f565b6110c691906119cc565b92505b600160811b85161561110c576e2bf84208204f5977f9a8cf01fdce3d6110ff846f0960aadc109e7a3bf4578099615711d761199f565b61110991906119cc565b92505b600160821b85161561114d576d03c6ab775dd0b95b4cbee7e65d11611140846e2bf84208204f5977f9a8cf01fdc30761199f565b61114a91906119cc565b92505b50909392505050565b60006020607f5b60ff811661116c836001611a8a565b60ff1610156111bf57600060026111838385611a8a565b61118d9190611aa3565b90508460018260ff16608081106111a6576111a6611ac5565b0154106111b5578092506111b9565b8091505b5061115d565b8360018260ff16608081106111d6576111d6611ac5565b0154106111e4579392505050565b8360018360ff16608081106111fb576111fb611ac5565b015410611209575092915050565b611211611adb565b5060009392505050565b6000828160ff841661122d838061199f565b901c915061124b826f03442c4e6074a82f1797f72ac000000061199f565b61125590826119e0565b905060ff8416611265868461199f565b901c9150611283826f0116b96f757c380fb287fd0e4000000061199f565b61128d90826119e0565b905060ff841661129d868461199f565b901c91506112ba826e45ae5bdd5f0e03eca1ff439000000061199f565b6112c490826119e0565b905060ff84166112d4868461199f565b901c91506112f1826e0defabf91302cd95b9ffda5000000061199f565b6112fb90826119e0565b905060ff841661130b868461199f565b901c9150611328826e02529ca9832b22439efff9b800000061199f565b61133290826119e0565b905060ff8416611342868461199f565b901c915061135e826d54f1cf12bd04e516b6da8800000061199f565b61136890826119e0565b905060ff8416611378868461199f565b901c9150611394826d0a9e39e257a09ca2d6db5100000061199f565b61139e90826119e0565b905060ff84166113ae868461199f565b901c91506113ca826d012e066e7b839fa050c30900000061199f565b6113d490826119e0565b905060ff84166113e4868461199f565b901c91506113ff826c1e33d7d926c329a1ad1a80000061199f565b61140990826119e0565b905060ff8416611419868461199f565b901c9150611434826c02bee513bdb4a6b19b5f80000061199f565b61143e90826119e0565b905060ff841661144e868461199f565b901c9150611468826b3a9316fa79b88eccf2a0000061199f565b61147290826119e0565b905060ff8416611482868461199f565b901c915061149c826b048177ebe1fa81237520000061199f565b6114a690826119e0565b905060ff84166114b6868461199f565b901c91506114cf826a5263fe90242dcbacf0000061199f565b6114d990826119e0565b905060ff84166114e9868461199f565b901c9150611502826a057e22099c030d9410000061199f565b61150c90826119e0565b905060ff841661151c868461199f565b901c9150611534826957e22099c030d941000061199f565b61153e90826119e0565b905060ff841661154e868461199f565b901c91506115668269052b6b5456997631000061199f565b61157090826119e0565b905060ff8416611580868461199f565b901c915061159782684985f67696bf74800061199f565b6115a190826119e0565b905060ff84166115b1868461199f565b901c91506115c8826803dea12ea99e49800061199f565b6115d290826119e0565b905060ff84166115e2868461199f565b901c91506115f8826731880f2214b6e00061199f565b61160290826119e0565b905060ff8416611612868461199f565b901c91506116288267025bcff56eb3600061199f565b61163290826119e0565b905060ff8416611642868461199f565b901c915061165782661b722e10ab100061199f565b61166190826119e0565b905060ff8416611671868461199f565b901c9150611686826601317c7007700061199f565b61169090826119e0565b905060ff84166116a0868461199f565b901c91506116b482650cba84aafa0061199f565b6116be90826119e0565b905060ff84166116ce868461199f565b901c91506116e1826482573a0a0061199f565b6116eb90826119e0565b905060ff84166116fb868461199f565b901c915061170e826405035ad90061199f565b61171890826119e0565b905060ff8416611728868461199f565b901c915061173a82632f881b0061199f565b61174490826119e0565b905060ff8416611754868461199f565b901c9150611766826301b2934061199f565b61177090826119e0565b905060ff8416611780868461199f565b901c915061179182620efc4061199f565b61179b90826119e0565b905060ff84166117ab868461199f565b901c91506117bb82617fe061199f565b6117c590826119e0565b905060ff84166117d5868461199f565b901c91506117e58261042061199f565b6117ef90826119e0565b905060ff84166117ff868461199f565b901c915061180e82602161199f565b61181890826119e0565b905060ff8416611828868461199f565b901c915061183782600161199f565b61184190826119e0565b9050600160ff85161b856118656f0688589cc0e9505e2f2fee5580000000846119cc565b61186f91906119e0565b61187991906119e0565b925050505b92915050565b600080826101008110156118b8575b60018111156118b357600190811c906118ac9083611a8a565b9150611893565b6118ec565b60805b60ff8116156118ea57600160ff82161b82106118df579182179160ff81169190911c905b60011c607f166118bb565b505b5092915050565b6000806000806080858703121561190957600080fd5b8435935060208501359250604085013563ffffffff8116811461192b57600080fd5b9396929550929360600135925050565b600060208083528351808285015260005b818110156119685785810183015185820160400152820161194c565b506000604082860101526040601f19601f8301168501019250505092915050565b634e487b7160e01b600052601160045260246000fd5b808202811582820484141761187e5761187e611989565b634e487b7160e01b600052601260045260246000fd5b6000826119db576119db6119b6565b500490565b8082018082111561187e5761187e611989565b8181038181111561187e5761187e611989565b600181811c90821680611a1a57607f821691505b602082108103611a3a57634e487b7160e01b600052602260045260246000fd5b50919050565b60ff828116828216039081111561187e5761187e611989565b600060ff821680611a6c57611a6c611989565b6000190192915050565b600082611a8557611a856119b6565b500690565b60ff818116838216019081111561187e5761187e611989565b600060ff831680611ab657611ab66119b6565b8060ff84160491505092915050565b634e487b7160e01b600052603260045260246000fd5b634e487b7160e01b600052600160045260246000fdfea2646970667358221220872664a6e6419dde69f2fc40f5209cd6b2ed51bab34b56b3a17685445e5adf4564736f6c63430008110033",
    "linkReferences": {}
  },
  "methodIdentifiers": {
    "calculatePurchaseReturn(uint256,uint256,uint32,uint256)": "29a00e7c",
    "calculateSaleReturn(uint256,uint256,uint32,uint256)": "49f9b0f7",
    "version()": "54fd4d50"
  },
  "id": 76
}