{
  "abi": [
    {
      "inputs": [
        {
          "internalType": "uint256",
          "name": "_supply",
          "type": "uint256"
        },
        {
          "internalType": "uint256",
          "name": "_reserveBalance",
          "type": "uint256"
        },
        {
          "internalType": "uint32",
          "name": "_reserveRatio",
          "type": "uint32"
        },
        {
          "internalType": "uint256",
          "name": "_depositAmount",
          "type": "uint256"
        }
      ],
      "name": "calculatePurchaseReturn",
      "outputs": [
        {
          "internalType": "uint256",
          "name": "",
          "type": "uint256"
        }
      ],
      "stateMutability": "view",
      "type": "function"
    },
    {
      "inputs": [
        {
          "internalType": "uint256",
          "name": "_supply",
          "type": "uint256"
        },
        {
          "internalType": "uint256",
          "name": "_reserveBalance",
          "type": "uint256"
        },
        {
          "internalType": "uint32",
          "name": "_reserveRatio",
          "type": "uint32"
        },
        {
          "internalType": "uint256",
          "name": "_sellAmount",
          "type": "uint256"
        }
      ],
      "name": "calculateSaleReturn",
      "outputs": [
        {
          "internalType": "uint256",
          "name": "",
          "type": "uint256"
        }
      ],
      "stateMutability": "view",
      "type": "function"
    },
    {
      "inputs": [],
      "name": "version",
      "outputs": [
        {
          "internalType": "string",
          "name": "",
          "type": "string"
        }
      ],
      "stateMutability": "view",
      "type": "function"
    }
  ],
  "bytecode": {
    "object": "0x60c06040526003608090815262302e3360e81b60a05260009062000024908262000807565b503480156200003257600080fd5b506001641c35fedd1560601b036021556001646c3390ecc9605e1b036022556001640cf801476160611b0360235560016431bdb23e1d605f1b0360245560016502fb1d8fe083605b1b0360255560016505b771955b37605a1b036026556001650af67a93bb5160591b0360275560016515060c256cb360581b036028556001651428a2f98d7360581b036029556001654d515663970960561b03602a55600165944620b0e70f60551b03602b55600166011c592761c66760541b03602c5560016602214d10d014eb60531b03602d55600166020ade36b7dbef60531b03602e5560016603eab73b3bbfe360521b03602f556001660782ee3593f6d760511b036030556001661ccf4b44bb4821604f1b0360315560016606e7f88ad8a77760511b0360325560016669f3d1c921891d604d1b03603355600166cb2ff529eb71e5604c1b03603455600166c2d415c3db974b604c1b0360355560016702eb40f9f620fda7604a1b0360365560016705990681d961a1eb60491b03603755600167055e12902701414760491b0360385560016714962dee9dc9764160471b0360395560016704ef57b9b560fab560491b03603a5560016712ed7b32a58f552b60471b03603b556001679131271922eaa60760441b03603c556001678b380f3558668c4760441b03603d556001680215f77c045fbe885760421b03603e556001600160831b03603f556001670f577eded5773a1160471b036040556001680eb5ec597592befbf5603f1b036041556001681c35fedd14b861eb05603e1b036042556001683619c87664579bc94b603d1b0360435560016867c00a3b07ffc01fd7603c1b03604455600168c6f6c8f8739773a7a5603b1b03604555600168bec763f8209b7a72b1603b1b0360465560016902dbb8caad9b7097b91b60391b03604755600169057b3d49dda84556d6f760381b03604855600169054183095b2c8ececf3160381b036049556001690a14517cc6b9457111ef60371b03604a5560016913545598e5c23276ccf160361b03604b556001692511882c39c3adea96ff60351b03604c55600169471649d87199aa99075760341b03604d557004429a21a029d4c1457cfbffffffffffff604e55700415bc6d6fb7dd71af2cb3ffffffffffff604f557003eab73b3bbfe282243ce1ffffffffffff6050557003c1771ac9fb6b4c18e229ffffffffffff605155700399e96897690418f785257fffffffffff605255700373fc456c53bb779bf0ea9fffffffffff60535570034f9e8e490c48e67e6ab8bfffffffffff60545570032cbfd4a7adc790560b3337ffffffffff60555570030b50570f6e5d2acca94613ffffffffff6056557002eb40f9f620fda6b56c2861ffffffffff6057557002cc8340ecb0d0f520a6af58ffffffffff6058557002af09481380a0a35cf1ba02ffffffffff605955700292c5bdd3b92ec810287b1b3fffffffff605a55700277abdcdab07d5a77ac6d6b9fffffffff605b5570025daf6654b1eaa55fd64df5efffffffff605c55700244c49c648baa98192dce88b7ffffffff605d5570022ce03cd5619a311b2471268bffffffff605e55700215f77c045fbe885654a44a0fffffffff605f556001600160811b036060557001eaefdbdaaee7421fc4d3ede5ffffffff6061557001d6bd8b2eb257df7e8ca57b09bfffffff6062557001c35fedd14b861eb0443f7f133fffffff6063557001b0ce43b322bcde4a56e8ada5afffffff60645570019f0028ec1fff007f5a195a39dfffffff60655570018ded91f0e72ee74f49b15ba527ffffff60665570017d8ec7f04136f4e5615fd41a63ffffff60675570016ddc6556cdb84bdc8d12d22e6fffffff60685570015ecf52776a1155b5bd8395814f7fffff60695570015060c256cb23b3b3cc3754cf40ffffff606a557001428a2f98d728ae223ddab715be3fffff606b5570013545598e5c23276ccf0ede68034fffff606c557001288c4161ce1d6f54b7f61081194fffff606d5570011c592761c666aa641d5a01a40f17ffff606e55700110a688680a7530515f3e6e6cfdcdffff606f557001056f1b5bedf75c6bcb2ce8aed428ffff6070556ffaadceceeff8a0890f3875f008277fff6071556ff05dc6b27edad306388a600f6ba0bfff6072556fe67a5a25da41063de1495d5b18cdbfff6073556fdcff115b14eedde6fc3aa5353f2e4fff6074556fd3e7a3924312399f9aae2e0f868f8fff6075556fcb2ff529eb71e41582cccd5a1ee26fff6076556fc2d415c3db974ab32a51840c0b67edff6077556fbad03e7d883f69ad5b0a186184e06bff6078556fb320d03b2c343d4829abd6075f0cc5ff6079556fabc25204e02828d73c6e80bcdb1a95bf607a556fa4b16f74ee4bb2040a1ec6c15fbbf2df607b556f9deaf736ac1f569deb1b5ae3f36c130f607c556f976bd9952c7aa957f5937d790ef65037607d556f9131271922eaa6064b73a22d0bd4f2bf607e556f8b380f3558668c46c91c49a2f8e967b9607f556f857ddf0117efa215952912839f6473e6608055620008d3565b634e487b7160e01b600052604160045260246000fd5b600181811c908216806200078d57607f821691505b602082108103620007ae57634e487b7160e01b600052602260045260246000fd5b50919050565b601f8211156200080257600081815260208120601f850160051c81016020861015620007dd5750805b601f850160051c820191505b81811015620007fe57828155600101620007e9565b5050505b505050565b81516001600160401b0381111562000823576200082362000762565b6200083b8162000834845462000778565b84620007b4565b602080601f8311600181146200087357600084156200085a5750858301515b600019600386901b1c1916600185901b178555620007fe565b600085815260208120601f198616915b82811015620008a45788860151825594840194600190910190840162000883565b5085821015620008c35787850151600019600388901b60f8161c191681555b5050505050600190811b01905550565b611bbb80620008e36000396000f3fe608060405234801561001057600080fd5b50600436106100415760003560e01c806329a00e7c1461004657806349f9b0f71461006c57806354fd4d501461007f575b600080fd5b610059610054366004611987565b610094565b6040519081526020015b60405180910390f35b61005961007a366004611987565b6101c8565b6100876102e0565b60405161006391906119cf565b600061009f8561036e565b6100a88461036e565b6100b78363ffffffff1661036e565b6100c08261036e565b6000851180156100d05750600084115b80156100e2575060008363ffffffff16115b80156100f75750620f424063ffffffff841611155b61013a5760405162461bcd60e51b815260206004820152600f60248201526e24b73b30b634b21034b7383aba399760891b60448201526064015b60405180910390fd5b8160000361014a575060006101c0565b620f423f1963ffffffff84160161017757836101668387611a33565b6101709190611a60565b90506101c0565b600080806101858786611a74565b9050610196818888620f42406103b6565b9093509150600060ff83166101ab858b611a33565b901c90506101b98982611a87565b9450505050505b949350505050565b600080851180156101d95750600084115b80156101eb575060008363ffffffff16115b80156102005750620f424063ffffffff841611155b801561020c5750848211155b61024a5760405162461bcd60e51b815260206004820152600f60248201526e24b73b30b634b21034b7383aba399760891b6044820152606401610131565b8160000361025a575060006101c0565b8482036102685750826101c0565b620f423f1963ffffffff84160161028457846101668386611a33565b600080806102928589611a87565b90506102a38882620f4240896103b6565b909350915060006102b48489611a33565b905060ff831688901b846102c88284611a87565b6102d29190611a60565b9a9950505050505050505050565b600080546102ed90611a9a565b80601f016020809104026020016040519081016040528092919081815260200182805461031990611a9a565b80156103665780601f1061033b57610100808354040283529160200191610366565b820191906000526020600020905b81548152906001019060200180831161034957829003601f168201915b505050505081565b6103b38160405160240161038491815260200190565b60408051601f198184030181529190526020810180516001600160e01b031663f5b1bba960e01b179052610536565b50565b600080600160811b861061040c5760405162461bcd60e51b815260206004820152601860248201527f626173654e2065786365656473206d61782076616c75652e00000000000000006044820152606401610131565b8486101561045c5760405162461bcd60e51b815260206004820152601c60248201527f4261736573203c203120617265206e6f7420737570706f727465642e000000006044820152606401610131565b6000808661046e6001607f1b8a611a33565b6104789190611a60565b905070015bf0a8b1457695355fb8ac404e7a79e38110156104a35761049c81610557565b91506104af565b6104ac81610ad0565b91505b60008563ffffffff168763ffffffff16846104ca9190611a33565b6104d49190611a60565b9050600160831b8110156104f9576104eb81610bbf565b607f9450945050505061052d565b6000610504826111ea565b905061052061051482607f611ad4565b60ff1683901c826112af565b9550935061052d92505050565b94509492505050565b80516a636f6e736f6c652e6c6f67602083016000808483855afa5050505050565b6000808080806fd3094c70f034de4b96ff7d5b6f99fcd886106105b0576105826001607e1b85611a74565b93506fd3094c70f034de4b96ff7d5b6f99fcd86105a36001607f1b88611a33565b6105ad9190611a60565b95505b6fa45af1e1f40c333b3de1db4dd55f29a78610610603576105d56001607d1b85611a74565b93506fa45af1e1f40c333b3de1db4dd55f29a76105f66001607f1b88611a33565b6106009190611a60565b95505b6f910b022db7ae67ce76b441c27035c6a18610610656576106286001607c1b85611a74565b93506f910b022db7ae67ce76b441c27035c6a16106496001607f1b88611a33565b6106539190611a60565b95505b6f88415abbe9a76bead8d00cf112e4d4a886106106a95761067b6001607b1b85611a74565b93506f88415abbe9a76bead8d00cf112e4d4a861069c6001607f1b88611a33565b6106a69190611a60565b95505b6f84102b00893f64c705e841d5d4064bd386106106fc576106ce6001607a1b85611a74565b93506f84102b00893f64c705e841d5d4064bd36106ef6001607f1b88611a33565b6106f99190611a60565b95505b6f8204055aaef1c8bd5c3259f4822735a2861061074f57610721600160791b85611a74565b93506f8204055aaef1c8bd5c3259f4822735a26107426001607f1b88611a33565b61074c9190611a60565b95505b6f810100ab00222d861931c15e39b44e9986106107a257610774600160781b85611a74565b93506f810100ab00222d861931c15e39b44e996107956001607f1b88611a33565b61079f9190611a60565b95505b6f808040155aabbbe9451521693554f73386106107f5576107c7600160771b85611a74565b93506f808040155aabbbe9451521693554f7336107e86001607f1b88611a33565b6107f29190611a60565b95505b6108036001607f1b87611a87565b92508291506001607f1b6108178380611a33565b6108219190611a60565b9050600160801b6108328482611a87565b61083c9084611a33565b6108469190611a60565b6108509085611a74565b93506001607f1b6108618284611a33565b61086b9190611a60565b9150600160811b61088c846faaaaaaaaaaaaaaaaaaaaaaaaaaaaaaaa611a87565b6108969084611a33565b6108a09190611a60565b6108aa9085611a74565b93506001607f1b6108bb8284611a33565b6108c59190611a60565b9150600360801b6108e6846f99999999999999999999999999999999611a87565b6108f09084611a33565b6108fa9190611a60565b6109049085611a74565b93506001607f1b6109158284611a33565b61091f9190611a60565b9150600160821b610940846f92492492492492492492492492492492611a87565b61094a9084611a33565b6109549190611a60565b61095e9085611a74565b93506001607f1b61096f8284611a33565b6109799190611a60565b9150600560801b61099a846f8e38e38e38e38e38e38e38e38e38e38e611a87565b6109a49084611a33565b6109ae9190611a60565b6109b89085611a74565b93506001607f1b6109c98284611a33565b6109d39190611a60565b9150600360811b6109f4846f8ba2e8ba2e8ba2e8ba2e8ba2e8ba2e8b611a87565b6109fe9084611a33565b610a089190611a60565b610a129085611a74565b93506001607f1b610a238284611a33565b610a2d9190611a60565b9150600760801b610a4e846f89d89d89d89d89d89d89d89d89d89d89611a87565b610a589084611a33565b610a629190611a60565b610a6c9085611a74565b93506001607f1b610a7d8284611a33565b610a879190611a60565b9150600160831b610aa8846f88888888888888888888888888888888611a87565b610ab29084611a33565b610abc9190611a60565b610ac69085611a74565b9695505050505050565b60008082600160801b8110610b15576000610af7610af26001607f1b84611a60565b611918565b60ff811692831c92909150610b11906001607f1b90611a33565b9250505b6001607f1b811115610b8a57607f5b60ff811615610b88576001607f1b610b3c8380611a33565b610b469190611a60565b9150600160801b8210610b7857600191821c91610b639082611ad4565b60ff166001901b83610b759190611a74565b92505b610b8181611aed565b9050610b24565b505b6f05b9de1d10bf4103d647b0955897ba80610bb56f03f80fe03f80fe03f80fe03f80fe03f884611a33565b6101c09190611a60565b6000808080610bd26001607c1b86611b0a565b91508190506001607f1b610be68280611a33565b610bf09190611a60565b9050610c04816710e1b3be415a0000611a33565b610c0e9084611a74565b92506001607f1b610c1f8383611a33565b610c299190611a60565b9050610c3d816705a0913f6b1e0000611a33565b610c479084611a74565b92506001607f1b610c588383611a33565b610c629190611a60565b9050610c7681670168244fdac78000611a33565b610c809084611a74565b92506001607f1b610c918383611a33565b610c9b9190611a60565b9050610cae81664807432bc18000611a33565b610cb89084611a74565b92506001607f1b610cc98383611a33565b610cd39190611a60565b9050610ce681660c0135dca04000611a33565b610cf09084611a74565b92506001607f1b610d018383611a33565b610d0b9190611a60565b9050610d1e816601b707b1cdc000611a33565b610d289084611a74565b92506001607f1b610d398383611a33565b610d439190611a60565b9050610d55816536e0f639b800611a33565b610d5f9084611a74565b92506001607f1b610d708383611a33565b610d7a9190611a60565b9050610d8c81650618fee9f800611a33565b610d969084611a74565b92506001607f1b610da78383611a33565b610db19190611a60565b9050610dc281649c197dcc00611a33565b610dcc9084611a74565b92506001607f1b610ddd8383611a33565b610de79190611a60565b9050610df881640e30dce400611a33565b610e029084611a74565b92506001607f1b610e138383611a33565b610e1d9190611a60565b9050610e2e8164012ebd1300611a33565b610e389084611a74565b92506001607f1b610e498383611a33565b610e539190611a60565b9050610e63816317499f00611a33565b610e6d9084611a74565b92506001607f1b610e7e8383611a33565b610e889190611a60565b9050610e98816301a9d480611a33565b610ea29084611a74565b92506001607f1b610eb38383611a33565b610ebd9190611a60565b9050610ecc81621c6380611a33565b610ed69084611a74565b92506001607f1b610ee78383611a33565b610ef19190611a60565b9050610f00816201c638611a33565b610f0a9084611a74565b92506001607f1b610f1b8383611a33565b610f259190611a60565b9050610f3381611ab8611a33565b610f3d9084611a74565b92506001607f1b610f4e8383611a33565b610f589190611a60565b9050610f668161017c611a33565b610f709084611a74565b92506001607f1b610f818383611a33565b610f8b9190611a60565b9050610f98816014611a33565b610fa29084611a74565b92506001607f1b610fb38383611a33565b610fbd9190611a60565b9050610fca816001611a33565b610fd49084611a74565b92506001607f1b82610fee6721c3677c82b4000086611a60565b610ff89190611a74565b6110029190611a74565b92506001607c1b85161561104a5770018ebef9eac820ae8682b9793ac6d1e77661103d847001c3d6a24ed82218787d624d3e5eba95f9611a33565b6110479190611a60565b92505b6001607d1b851615611090577001368b2fc6f9609fe7aceb46aa619baed46110838470018ebef9eac820ae8682b9793ac6d1e778611a33565b61108d9190611a60565b92505b6001607e1b8516156110d5576fbc5ab1b16779be3575bd8f0520a9f21f6110c8847001368b2fc6f9609fe7aceb46aa619baed5611a33565b6110d29190611a60565b92505b6001607f1b851615611119576f454aaa8efe072e7f6ddbab84b40a55c961110c846fbc5ab1b16779be3575bd8f0520a9f21e611a33565b6111169190611a60565b92505b600160801b85161561115d576f0960aadc109e7a3bf4578099615711ea611150846f454aaa8efe072e7f6ddbab84b40a55c5611a33565b61115a9190611a60565b92505b600160811b8516156111a0576e2bf84208204f5977f9a8cf01fdce3d611193846f0960aadc109e7a3bf4578099615711d7611a33565b61119d9190611a60565b92505b600160821b8516156111e1576d03c6ab775dd0b95b4cbee7e65d116111d4846e2bf84208204f5977f9a8cf01fdc307611a33565b6111de9190611a60565b92505b50909392505050565b60006020607f5b60ff8116611200836001611b1e565b60ff16101561125357600060026112178385611b1e565b6112219190611b37565b90508460018260ff166080811061123a5761123a611b59565b0154106112495780925061124d565b8091505b506111f1565b8360018260ff166080811061126a5761126a611b59565b015410611278579392505050565b8360018360ff166080811061128f5761128f611b59565b01541061129d575092915050565b6112a5611b6f565b5060009392505050565b6000828160ff84166112c18380611a33565b901c91506112df826f03442c4e6074a82f1797f72ac0000000611a33565b6112e99082611a74565b905060ff84166112f98684611a33565b901c9150611317826f0116b96f757c380fb287fd0e40000000611a33565b6113219082611a74565b905060ff84166113318684611a33565b901c915061134e826e45ae5bdd5f0e03eca1ff4390000000611a33565b6113589082611a74565b905060ff84166113688684611a33565b901c9150611385826e0defabf91302cd95b9ffda50000000611a33565b61138f9082611a74565b905060ff841661139f8684611a33565b901c91506113bc826e02529ca9832b22439efff9b8000000611a33565b6113c69082611a74565b905060ff84166113d68684611a33565b901c91506113f2826d54f1cf12bd04e516b6da88000000611a33565b6113fc9082611a74565b905060ff841661140c8684611a33565b901c9150611428826d0a9e39e257a09ca2d6db51000000611a33565b6114329082611a74565b905060ff84166114428684611a33565b901c915061145e826d012e066e7b839fa050c309000000611a33565b6114689082611a74565b905060ff84166114788684611a33565b901c9150611493826c1e33d7d926c329a1ad1a800000611a33565b61149d9082611a74565b905060ff84166114ad8684611a33565b901c91506114c8826c02bee513bdb4a6b19b5f800000611a33565b6114d29082611a74565b905060ff84166114e28684611a33565b901c91506114fc826b3a9316fa79b88eccf2a00000611a33565b6115069082611a74565b905060ff84166115168684611a33565b901c9150611530826b048177ebe1fa812375200000611a33565b61153a9082611a74565b905060ff841661154a8684611a33565b901c9150611563826a5263fe90242dcbacf00000611a33565b61156d9082611a74565b905060ff841661157d8684611a33565b901c9150611596826a057e22099c030d94100000611a33565b6115a09082611a74565b905060ff84166115b08684611a33565b901c91506115c8826957e22099c030d9410000611a33565b6115d29082611a74565b905060ff84166115e28684611a33565b901c91506115fa8269052b6b54569976310000611a33565b6116049082611a74565b905060ff84166116148684611a33565b901c915061162b82684985f67696bf748000611a33565b6116359082611a74565b905060ff84166116458684611a33565b901c915061165c826803dea12ea99e498000611a33565b6116669082611a74565b905060ff84166116768684611a33565b901c915061168c826731880f2214b6e000611a33565b6116969082611a74565b905060ff84166116a68684611a33565b901c91506116bc8267025bcff56eb36000611a33565b6116c69082611a74565b905060ff84166116d68684611a33565b901c91506116eb82661b722e10ab1000611a33565b6116f59082611a74565b905060ff84166117058684611a33565b901c915061171a826601317c70077000611a33565b6117249082611a74565b905060ff84166117348684611a33565b901c915061174882650cba84aafa00611a33565b6117529082611a74565b905060ff84166117628684611a33565b901c9150611775826482573a0a00611a33565b61177f9082611a74565b905060ff841661178f8684611a33565b901c91506117a2826405035ad900611a33565b6117ac9082611a74565b905060ff84166117bc8684611a33565b901c91506117ce82632f881b00611a33565b6117d89082611a74565b905060ff84166117e88684611a33565b901c91506117fa826301b29340611a33565b6118049082611a74565b905060ff84166118148684611a33565b901c915061182582620efc40611a33565b61182f9082611a74565b905060ff841661183f8684611a33565b901c915061184f82617fe0611a33565b6118599082611a74565b905060ff84166118698684611a33565b901c915061187982610420611a33565b6118839082611a74565b905060ff84166118938684611a33565b901c91506118a2826021611a33565b6118ac9082611a74565b905060ff84166118bc8684611a33565b901c91506118cb826001611a33565b6118d59082611a74565b9050600160ff85161b856118f96f0688589cc0e9505e2f2fee558000000084611a60565b6119039190611a74565b61190d9190611a74565b925050505b92915050565b6000808261010081101561194c575b600181111561194757600190811c906119409083611b1e565b9150611927565b611980565b60805b60ff81161561197e57600160ff82161b8210611973579182179160ff81169190911c905b60011c607f1661194f565b505b5092915050565b6000806000806080858703121561199d57600080fd5b8435935060208501359250604085013563ffffffff811681146119bf57600080fd5b9396929550929360600135925050565b600060208083528351808285015260005b818110156119fc578581018301518582016040015282016119e0565b506000604082860101526040601f19601f8301168501019250505092915050565b634e487b7160e01b600052601160045260246000fd5b808202811582820484141761191257611912611a1d565b634e487b7160e01b600052601260045260246000fd5b600082611a6f57611a6f611a4a565b500490565b8082018082111561191257611912611a1d565b8181038181111561191257611912611a1d565b600181811c90821680611aae57607f821691505b602082108103611ace57634e487b7160e01b600052602260045260246000fd5b50919050565b60ff828116828216039081111561191257611912611a1d565b600060ff821680611b0057611b00611a1d565b6000190192915050565b600082611b1957611b19611a4a565b500690565b60ff818116838216019081111561191257611912611a1d565b600060ff831680611b4a57611b4a611a4a565b8060ff84160491505092915050565b634e487b7160e01b600052603260045260246000fd5b634e487b7160e01b600052600160045260246000fdfea26469706673582212202f224433ed1cb465fa5a0cef5f1b52922a2ff90430a1bbfb23c5e351e3b865dc64736f6c63430008110033",
    "linkReferences": {}
  },
  "methodIdentifiers": {
    "calculatePurchaseReturn(uint256,uint256,uint32,uint256)": "29a00e7c",
    "calculateSaleReturn(uint256,uint256,uint32,uint256)": "49f9b0f7",
    "version()": "54fd4d50"
  },
  "id": 76
}