{
  "abi": [
    {
      "inputs": [],
      "stateMutability": "nonpayable",
      "type": "constructor"
    },
    {
      "inputs": [
        {
          "internalType": "address",
          "name": "admin",
          "type": "address"
        }
      ],
      "name": "AdminAddressInvalid",
      "type": "error"
    },
    {
      "inputs": [],
      "name": "implementation",
      "outputs": [
        {
          "internalType": "address",
          "name": "",
          "type": "address"
        }
      ],
      "stateMutability": "view",
      "type": "function"
    },
    {
      "inputs": [
        {
          "internalType": "address",
          "name": "_dao",
          "type": "address"
        },
        {
          "internalType": "bytes",
          "name": "_data",
          "type": "bytes"
        }
      ],
      "name": "prepareInstallation",
      "outputs": [
        {
          "internalType": "address",
          "name": "plugin",
          "type": "address"
        },
        {
          "components": [
            {
              "internalType": "address[]",
              "name": "helpers",
              "type": "address[]"
            },
            {
              "components": [
                {
                  "internalType": "enum PermissionLib.Operation",
                  "name": "operation",
                  "type": "uint8"
                },
                {
                  "internalType": "address",
                  "name": "where",
                  "type": "address"
                },
                {
                  "internalType": "address",
                  "name": "who",
                  "type": "address"
                },
                {
                  "internalType": "address",
                  "name": "condition",
                  "type": "address"
                },
                {
                  "internalType": "bytes32",
                  "name": "permissionId",
                  "type": "bytes32"
                }
              ],
              "internalType": "struct PermissionLib.MultiTargetPermission[]",
              "name": "permissions",
              "type": "tuple[]"
            }
          ],
          "internalType": "struct IPluginSetup.PreparedSetupData",
          "name": "preparedSetupData",
          "type": "tuple"
        }
      ],
      "stateMutability": "nonpayable",
      "type": "function"
    },
    {
      "inputs": [
        {
          "internalType": "address",
          "name": "_dao",
          "type": "address"
        },
        {
          "components": [
            {
              "internalType": "address",
              "name": "plugin",
              "type": "address"
            },
            {
              "internalType": "address[]",
              "name": "currentHelpers",
              "type": "address[]"
            },
            {
              "internalType": "bytes",
              "name": "data",
              "type": "bytes"
            }
          ],
          "internalType": "struct IPluginSetup.SetupPayload",
          "name": "_payload",
          "type": "tuple"
        }
      ],
      "name": "prepareUninstallation",
      "outputs": [
        {
          "components": [
            {
              "internalType": "enum PermissionLib.Operation",
              "name": "operation",
              "type": "uint8"
            },
            {
              "internalType": "address",
              "name": "where",
              "type": "address"
            },
            {
              "internalType": "address",
              "name": "who",
              "type": "address"
            },
            {
              "internalType": "address",
              "name": "condition",
              "type": "address"
            },
            {
              "internalType": "bytes32",
              "name": "permissionId",
              "type": "bytes32"
            }
          ],
          "internalType": "struct PermissionLib.MultiTargetPermission[]",
          "name": "permissions",
          "type": "tuple[]"
        }
      ],
      "stateMutability": "view",
      "type": "function"
    },
    {
      "inputs": [
        {
          "internalType": "address",
          "name": "_dao",
          "type": "address"
        },
        {
          "internalType": "uint16",
          "name": "_currentBuild",
          "type": "uint16"
        },
        {
          "components": [
            {
              "internalType": "address",
              "name": "plugin",
              "type": "address"
            },
            {
              "internalType": "address[]",
              "name": "currentHelpers",
              "type": "address[]"
            },
            {
              "internalType": "bytes",
              "name": "data",
              "type": "bytes"
            }
          ],
          "internalType": "struct IPluginSetup.SetupPayload",
          "name": "_payload",
          "type": "tuple"
        }
      ],
      "name": "prepareUpdate",
      "outputs": [
        {
          "internalType": "bytes",
          "name": "initData",
          "type": "bytes"
        },
        {
          "components": [
            {
              "internalType": "address[]",
              "name": "helpers",
              "type": "address[]"
            },
            {
              "components": [
                {
                  "internalType": "enum PermissionLib.Operation",
                  "name": "operation",
                  "type": "uint8"
                },
                {
                  "internalType": "address",
                  "name": "where",
                  "type": "address"
                },
                {
                  "internalType": "address",
                  "name": "who",
                  "type": "address"
                },
                {
                  "internalType": "address",
                  "name": "condition",
                  "type": "address"
                },
                {
                  "internalType": "bytes32",
                  "name": "permissionId",
                  "type": "bytes32"
                }
              ],
              "internalType": "struct PermissionLib.MultiTargetPermission[]",
              "name": "permissions",
              "type": "tuple[]"
            }
          ],
          "internalType": "struct IPluginSetup.PreparedSetupData",
          "name": "preparedSetupData",
          "type": "tuple"
        }
      ],
      "stateMutability": "nonpayable",
      "type": "function"
    },
    {
      "inputs": [
        {
          "internalType": "bytes4",
          "name": "_interfaceId",
          "type": "bytes4"
        }
      ],
      "name": "supportsInterface",
      "outputs": [
        {
          "internalType": "bool",
          "name": "",
          "type": "bool"
        }
      ],
      "stateMutability": "view",
      "type": "function"
    }
  ],
  "bytecode": {
    "object": "0x60a060405234801561001057600080fd5b5060405161001d9061004b565b604051809103906000f080158015610039573d6000803e3d6000fd5b506001600160a01b0316608052610058565b610a3880610bff83390190565b608051610b8661007960003960008181609101526104430152610b866000f3fe608060405234801561001057600080fd5b50600436106100575760003560e01c806301ffc9a71461005c5780635c60da1b146100845780639cb0a124146100bb578063a8a9c29e146100db578063f10832f1146100fc575b600080fd5b61006f61006a366004610775565b61011d565b60405190151581526020015b60405180910390f35b6040516001600160a01b037f000000000000000000000000000000000000000000000000000000000000000016815260200161007b565b6100ce6100c93660046107d6565b610154565b60405161007b919061088c565b6100ee6100e93660046108d5565b6103b1565b60405161007b9291906109d1565b61010f61010a366004610a36565b6103d8565b60405161007b929190610abb565b60006001600160e01b0319821663099718b560e41b148061014e57506301ffc9a760e01b6001600160e01b03198316145b92915050565b606060006101656020840184610ae7565b90506000816001600160a01b031663f851a4406040518163ffffffff1660e01b8152600401602060405180830381865afa1580156101a7573d6000803e3d6000fd5b505050506040513d601f19601f820116820180604052508101906101cb9190610b04565b60408051600280825260608201909252919250816020015b6040805160a0810182526000808252602080830182905292820181905260608201819052608082015282526000199092019101816101e3579050506040805160a081019091529093508060018152602001836001600160a01b03168152602001826001600160a01b0316815260200160006001600160a01b03168152602001836001600160a01b031663f8a2c98e6040518163ffffffff1660e01b8152600401602060405180830381865afa1580156102a0573d6000803e3d6000fd5b505050506040513d601f19601f820116820180604052508101906102c49190610b21565b815250836000815181106102da576102da610b3a565b60209081029190910101526040805160a081019091528060018152602001866001600160a01b03168152602001836001600160a01b0316815260200160006001600160a01b03168152602001866001600160a01b0316630729d0546040518163ffffffff1660e01b8152600401602060405180830381865afa158015610364573d6000803e3d6000fd5b505050506040513d601f19601f820116820180604052508101906103889190610b21565b8152508360018151811061039e5761039e610b3a565b6020026020010181905250505092915050565b60606103d0604051806040016040528060608152602001606081525090565b935093915050565b60006103f7604051806040016040528060608152602001606081525090565b600061040584860186610ae7565b90506001600160a01b03811661043e57604051630849afa760e01b81526001600160a01b03821660048201526024015b60405180910390fd5b6104707f00000000000000000000000000000000000000000000000000000000000000006001600160a01b03166106db565b60405163485cc95560e01b81526001600160a01b03888116600483015283811660248301529194509084169063485cc95590604401600060405180830381600087803b1580156104bf57600080fd5b505af11580156104d3573d6000803e3d6000fd5b5060009250600291506104e39050565b60405190808252806020026020018201604052801561053c57816020015b6040805160a0810182526000808252602080830182905292820181905260608201819052608082015282526000199092019101816105015790505b506040805160a081019091529091508060008152602001856001600160a01b03168152602001836001600160a01b0316815260200160006001600160a01b03168152602001856001600160a01b031663f8a2c98e6040518163ffffffff1660e01b8152600401602060405180830381865afa1580156105bf573d6000803e3d6000fd5b505050506040513d601f19601f820116820180604052508101906105e39190610b21565b815250816000815181106105f9576105f9610b3a565b60209081029190910101526040805160a081019091528060008152602001886001600160a01b03168152602001856001600160a01b0316815260200160006001600160a01b03168152602001886001600160a01b0316630729d0546040518163ffffffff1660e01b8152600401602060405180830381865afa158015610683573d6000803e3d6000fd5b505050506040513d601f19601f820116820180604052508101906106a79190610b21565b815250816001815181106106bd576106bd610b3a565b60200260200101819052508083602001819052505050935093915050565b6000763d602d80600a3d3981f3363d3d373d3d3d363d730000008260601b60e81c176000526e5af43d82803e903d91602b57fd5bf38260781b17602052603760096000f090506001600160a01b0381166107705760405162461bcd60e51b8152602060048201526016602482015275115490cc4c4d8dce8818dc99585d194819985a5b195960521b6044820152606401610435565b919050565b60006020828403121561078757600080fd5b81356001600160e01b03198116811461079f57600080fd5b9392505050565b6001600160a01b03811681146107bb57600080fd5b50565b6000606082840312156107d057600080fd5b50919050565b600080604083850312156107e957600080fd5b82356107f4816107a6565b9150602083013567ffffffffffffffff81111561081057600080fd5b61081c858286016107be565b9150509250929050565b600081516003811061084857634e487b7160e01b600052602160045260246000fd5b8352506020818101516001600160a01b0390811691840191909152604080830151821690840152606080830151909116908301526080908101519082015260a00190565b6020808252825182820181905260009190848201906040850190845b818110156108c9576108bb838551610826565b9385019392506001016108a8565b50909695505050505050565b6000806000606084860312156108ea57600080fd5b83356108f5816107a6565b9250602084013561ffff8116811461090c57600080fd5b9150604084013567ffffffffffffffff81111561092857600080fd5b610934868287016107be565b9150509250925092565b805160408084528151908401819052600091602091908201906060860190845b818110156109835783516001600160a01b03168352928401929184019160010161095e565b50508483015186820387850152805180835290840192506000918401905b808310156109c6576109b4828551610826565b915084840193506001830192506109a1565b509695505050505050565b604081526000835180604084015260005b818110156109ff57602081870181015160608684010152016109e2565b50600060608285010152601f19601f820116830190506060838203016020840152610a2d606082018561093e565b95945050505050565b600080600060408486031215610a4b57600080fd5b8335610a56816107a6565b9250602084013567ffffffffffffffff80821115610a7357600080fd5b818601915086601f830112610a8757600080fd5b813581811115610a9657600080fd5b876020828501011115610aa857600080fd5b6020830194508093505050509250925092565b6001600160a01b0383168152604060208201819052600090610adf9083018461093e565b949350505050565b600060208284031215610af957600080fd5b813561079f816107a6565b600060208284031215610b1657600080fd5b815161079f816107a6565b600060208284031215610b3357600080fd5b5051919050565b634e487b7160e01b600052603260045260246000fdfea26469706673582212207220123724da80ff3a93a63b7258c6628019138e06d0c88715a6277e328951ef64736f6c63430008110033608060405234801561001057600080fd5b5061001961001e565b6100dd565b600054610100900460ff161561008a5760405162461bcd60e51b815260206004820152602760248201527f496e697469616c697a61626c653a20636f6e747261637420697320696e697469604482015266616c697a696e6760c81b606482015260840160405180910390fd5b60005460ff908116146100db576000805460ff191660ff9081179091556040519081527f7f26b83ff96e1f2b6a682f133852f6798a09c465da95921460cefb38474024989060200160405180910390a15b565b61094c806100ec6000396000f3fe608060405234801561001057600080fd5b506004361061007d5760003560e01c806341de68301161005b57806341de6830146100e4578063485cc955146100f3578063f851a44014610106578063f8a2c98e1461011957600080fd5b806301ffc9a7146100825780633f707e6b146100aa5780634162169f146100bf575b600080fd5b6100956100903660046104b3565b61014e565b60405190151581526020015b60405180910390f35b6100bd6100b83660046104e4565b610185565b005b6065546001600160a01b03165b6040516001600160a01b0390911681526020016100a1565b60016040516100a19190610559565b6100bd610101366004610596565b610247565b6097546100cc906001600160a01b031681565b6101407f333faabe8d5b573697f548cb3885d6a81cd1e2ac87d1775bfec70a290e8e4d6081565b6040519081526020016100a1565b60006001600160e01b0319821663041de68360e41b148061017f57506301ffc9a760e01b6001600160e01b03198316145b92915050565b6065547f333faabe8d5b573697f548cb3885d6a81cd1e2ac87d1775bfec70a290e8e4d60906101c2906001600160a01b031630338460003661037b565b6065546040516331c6fcc960e21b81526001600160a01b039091169063c71bf324906101f9906000908790879083906004016105f8565b6000604051808303816000875af1158015610218573d6000803e3d6000fd5b505050506040513d6000823e601f3d908101601f191682016040526102409190810190610733565b5050505050565b600054610100900460ff16158080156102675750600054600160ff909116105b806102815750303b158015610281575060005460ff166001145b6102e95760405162461bcd60e51b815260206004820152602e60248201527f496e697469616c697a61626c653a20636f6e747261637420697320616c72656160448201526d191e481a5b9a5d1a585b1a5e995960921b60648201526084015b60405180910390fd5b6000805460ff19166001179055801561030c576000805461ff0019166101001790555b61031583610437565b609780546001600160a01b0319166001600160a01b0384161790558015610376576000805461ff0019169055604051600181527f7f26b83ff96e1f2b6a682f133852f6798a09c465da95921460cefb38474024989060200160405180910390a15b505050565b604051637ef7c88360e11b81526001600160a01b0387169063fdef9106906103af908890889088908890889060040161086a565b602060405180830381865afa1580156103cc573d6000803e3d6000fd5b505050506040513d601f19601f820116820180604052508101906103f091906108a9565b61042f57604051630cb6f8ed60e21b81526001600160a01b038088166004830152808716602483015285166044820152606481018490526084016102e0565b505050505050565b600054610100900460ff1661045e5760405162461bcd60e51b81526004016102e0906108cb565b6104678161046a565b50565b600054610100900460ff166104915760405162461bcd60e51b81526004016102e0906108cb565b606580546001600160a01b0319166001600160a01b0392909216919091179055565b6000602082840312156104c557600080fd5b81356001600160e01b0319811681146104dd57600080fd5b9392505050565b600080602083850312156104f757600080fd5b823567ffffffffffffffff8082111561050f57600080fd5b818501915085601f83011261052357600080fd5b81358181111561053257600080fd5b8660208260051b850101111561054757600080fd5b60209290920196919550909350505050565b602081016003831061057b57634e487b7160e01b600052602160045260246000fd5b91905290565b6001600160a01b038116811461046757600080fd5b600080604083850312156105a957600080fd5b82356105b481610581565b915060208301356105c481610581565b809150509250929050565b81835281816020850137506000828201602090810191909152601f909101601f19169091010190565b60006060808301878452602082818601528187835260808601905060808860051b87010192508860005b898110156106d557878503607f190183528135368c9003605e1901811261064857600080fd5b8b01803561065581610581565b6001600160a01b03168652808501358587015260408082013536839003601e1901811261068157600080fd5b90910185810191903567ffffffffffffffff81111561069f57600080fd5b8036038313156106ae57600080fd5b88828901526106c089890182856105cf565b97505050928401925090830190600101610622565b505050506040939093019390935250949350505050565b634e487b7160e01b600052604160045260246000fd5b604051601f8201601f1916810167ffffffffffffffff8111828210171561072b5761072b6106ec565b604052919050565b600080604080848603121561074757600080fd5b835167ffffffffffffffff8082111561075f57600080fd5b8186019150601f878184011261077457600080fd5b8251602083821115610788576107886106ec565b8160051b610797828201610702565b928352858101820192828101908c8511156107b157600080fd5b83880192505b84831015610855578251878111156107cf5760008081fd5b8801603f81018e136107e15760008081fd5b84810151888111156107f5576107f56106ec565b610806818901601f19168701610702565b8181528f8c83850101111561081b5760008081fd5b60005b82811015610839578381018d0151828201890152870161081e565b50600091810187019190915283525091830191908301906107b7565b9a90920151999b999a50505050505050505050565b6001600160a01b038681168252851660208201526040810184905260806060820181905260009061089e90830184866105cf565b979650505050505050565b6000602082840312156108bb57600080fd5b815180151581146104dd57600080fd5b6020808252602b908201527f496e697469616c697a61626c653a20636f6e7472616374206973206e6f74206960408201526a6e697469616c697a696e6760a81b60608201526080019056fea2646970667358221220becc0d16474592382740117a9abed4ee0d7c979b267bbcda1acda10ecfee70c764736f6c63430008110033",
    "linkReferences": {}
  },
  "methodIdentifiers": {
    "implementation()": "5c60da1b",
    "prepareInstallation(address,bytes)": "f10832f1",
    "prepareUninstallation(address,(address,address[],bytes))": "9cb0a124",
    "prepareUpdate(address,uint16,(address,address[],bytes))": "a8a9c29e",
    "supportsInterface(bytes4)": "01ffc9a7"
  },
  "id": 69
}