{
  "abi": [
    {
      "inputs": [
        {
          "internalType": "address",
          "name": "dao",
          "type": "address"
        },
        {
          "internalType": "address",
          "name": "where",
          "type": "address"
        },
        {
          "internalType": "address",
          "name": "who",
          "type": "address"
        },
        {
          "internalType": "bytes32",
          "name": "permissionId",
          "type": "bytes32"
        }
      ],
      "name": "DaoUnauthorized",
      "type": "error"
    },
    {
      "anonymous": false,
      "inputs": [
        {
          "indexed": false,
          "internalType": "uint8",
          "name": "version",
          "type": "uint8"
        }
      ],
      "name": "Initialized",
      "type": "event"
    },
    {
      "inputs": [],
      "name": "ADMIN_EXECUTE_PERMISSION_ID",
      "outputs": [
        {
          "internalType": "bytes32",
          "name": "",
          "type": "bytes32"
        }
      ],
      "stateMutability": "view",
      "type": "function"
    },
    {
      "inputs": [],
      "name": "admin",
      "outputs": [
        {
          "internalType": "address",
          "name": "",
          "type": "address"
        }
      ],
      "stateMutability": "view",
      "type": "function"
    },
    {
      "inputs": [],
      "name": "dao",
      "outputs": [
        {
          "internalType": "contract IDAO",
          "name": "",
          "type": "address"
        }
      ],
      "stateMutability": "view",
      "type": "function"
    },
    {
      "inputs": [
        {
          "components": [
            {
              "internalType": "address",
              "name": "to",
              "type": "address"
            },
            {
              "internalType": "uint256",
              "name": "value",
              "type": "uint256"
            },
            {
              "internalType": "bytes",
              "name": "data",
              "type": "bytes"
            }
          ],
          "internalType": "struct IDAO.Action[]",
          "name": "_actions",
          "type": "tuple[]"
        }
      ],
      "name": "execute",
      "outputs": [],
      "stateMutability": "nonpayable",
      "type": "function"
    },
    {
      "inputs": [
        {
          "internalType": "contract IDAO",
          "name": "_dao",
          "type": "address"
        },
        {
          "internalType": "address",
          "name": "_admin",
          "type": "address"
        }
      ],
      "name": "initialize",
      "outputs": [],
      "stateMutability": "nonpayable",
      "type": "function"
    },
    {
      "inputs": [],
      "name": "pluginType",
      "outputs": [
        {
          "internalType": "enum IPlugin.PluginType",
          "name": "",
          "type": "uint8"
        }
      ],
      "stateMutability": "pure",
      "type": "function"
    },
    {
      "inputs": [
        {
          "internalType": "bytes4",
          "name": "_interfaceId",
          "type": "bytes4"
        }
      ],
      "name": "supportsInterface",
      "outputs": [
        {
          "internalType": "bool",
          "name": "",
          "type": "bool"
        }
      ],
      "stateMutability": "view",
      "type": "function"
    }
  ],
  "bytecode": {
    "object": "0x608060405234801561001057600080fd5b5061001961001e565b6100dd565b600054610100900460ff161561008a5760405162461bcd60e51b815260206004820152602760248201527f496e697469616c697a61626c653a20636f6e747261637420697320696e697469604482015266616c697a696e6760c81b606482015260840160405180910390fd5b60005460ff908116146100db576000805460ff191660ff9081179091556040519081527f7f26b83ff96e1f2b6a682f133852f6798a09c465da95921460cefb38474024989060200160405180910390a15b565b61094c806100ec6000396000f3fe608060405234801561001057600080fd5b506004361061007d5760003560e01c806341de68301161005b57806341de6830146100e4578063485cc955146100f3578063f851a44014610106578063f8a2c98e1461011957600080fd5b806301ffc9a7146100825780633f707e6b146100aa5780634162169f146100bf575b600080fd5b6100956100903660046104b3565b61014e565b60405190151581526020015b60405180910390f35b6100bd6100b83660046104e4565b610185565b005b6065546001600160a01b03165b6040516001600160a01b0390911681526020016100a1565b60016040516100a19190610559565b6100bd610101366004610596565b610247565b6097546100cc906001600160a01b031681565b6101407f333faabe8d5b573697f548cb3885d6a81cd1e2ac87d1775bfec70a290e8e4d6081565b6040519081526020016100a1565b60006001600160e01b0319821663041de68360e41b148061017f57506301ffc9a760e01b6001600160e01b03198316145b92915050565b6065547f333faabe8d5b573697f548cb3885d6a81cd1e2ac87d1775bfec70a290e8e4d60906101c2906001600160a01b031630338460003661037b565b6065546040516331c6fcc960e21b81526001600160a01b039091169063c71bf324906101f9906000908790879083906004016105f8565b6000604051808303816000875af1158015610218573d6000803e3d6000fd5b505050506040513d6000823e601f3d908101601f191682016040526102409190810190610733565b5050505050565b600054610100900460ff16158080156102675750600054600160ff909116105b806102815750303b158015610281575060005460ff166001145b6102e95760405162461bcd60e51b815260206004820152602e60248201527f496e697469616c697a61626c653a20636f6e747261637420697320616c72656160448201526d191e481a5b9a5d1a585b1a5e995960921b60648201526084015b60405180910390fd5b6000805460ff19166001179055801561030c576000805461ff0019166101001790555b61031583610437565b609780546001600160a01b0319166001600160a01b0384161790558015610376576000805461ff0019169055604051600181527f7f26b83ff96e1f2b6a682f133852f6798a09c465da95921460cefb38474024989060200160405180910390a15b505050565b604051637ef7c88360e11b81526001600160a01b0387169063fdef9106906103af908890889088908890889060040161086a565b602060405180830381865afa1580156103cc573d6000803e3d6000fd5b505050506040513d601f19601f820116820180604052508101906103f091906108a9565b61042f57604051630cb6f8ed60e21b81526001600160a01b038088166004830152808716602483015285166044820152606481018490526084016102e0565b505050505050565b600054610100900460ff1661045e5760405162461bcd60e51b81526004016102e0906108cb565b6104678161046a565b50565b600054610100900460ff166104915760405162461bcd60e51b81526004016102e0906108cb565b606580546001600160a01b0319166001600160a01b0392909216919091179055565b6000602082840312156104c557600080fd5b81356001600160e01b0319811681146104dd57600080fd5b9392505050565b600080602083850312156104f757600080fd5b823567ffffffffffffffff8082111561050f57600080fd5b818501915085601f83011261052357600080fd5b81358181111561053257600080fd5b8660208260051b850101111561054757600080fd5b60209290920196919550909350505050565b602081016003831061057b57634e487b7160e01b600052602160045260246000fd5b91905290565b6001600160a01b038116811461046757600080fd5b600080604083850312156105a957600080fd5b82356105b481610581565b915060208301356105c481610581565b809150509250929050565b81835281816020850137506000828201602090810191909152601f909101601f19169091010190565b60006060808301878452602082818601528187835260808601905060808860051b87010192508860005b898110156106d557878503607f190183528135368c9003605e1901811261064857600080fd5b8b01803561065581610581565b6001600160a01b03168652808501358587015260408082013536839003601e1901811261068157600080fd5b90910185810191903567ffffffffffffffff81111561069f57600080fd5b8036038313156106ae57600080fd5b88828901526106c089890182856105cf565b97505050928401925090830190600101610622565b505050506040939093019390935250949350505050565b634e487b7160e01b600052604160045260246000fd5b604051601f8201601f1916810167ffffffffffffffff8111828210171561072b5761072b6106ec565b604052919050565b600080604080848603121561074757600080fd5b835167ffffffffffffffff8082111561075f57600080fd5b8186019150601f878184011261077457600080fd5b8251602083821115610788576107886106ec565b8160051b610797828201610702565b928352858101820192828101908c8511156107b157600080fd5b83880192505b84831015610855578251878111156107cf5760008081fd5b8801603f81018e136107e15760008081fd5b84810151888111156107f5576107f56106ec565b610806818901601f19168701610702565b8181528f8c83850101111561081b5760008081fd5b60005b82811015610839578381018d0151828201890152870161081e565b50600091810187019190915283525091830191908301906107b7565b9a90920151999b999a50505050505050505050565b6001600160a01b038681168252851660208201526040810184905260806060820181905260009061089e90830184866105cf565b979650505050505050565b6000602082840312156108bb57600080fd5b815180151581146104dd57600080fd5b6020808252602b908201527f496e697469616c697a61626c653a20636f6e7472616374206973206e6f74206960408201526a6e697469616c697a696e6760a81b60608201526080019056fea2646970667358221220becc0d16474592382740117a9abed4ee0d7c979b267bbcda1acda10ecfee70c764736f6c63430008110033",
    "linkReferences": {}
  },
  "methodIdentifiers": {
    "ADMIN_EXECUTE_PERMISSION_ID()": "f8a2c98e",
    "admin()": "f851a440",
    "dao()": "4162169f",
    "execute((address,uint256,bytes)[])": "3f707e6b",
    "initialize(address,address)": "485cc955",
    "pluginType()": "41de6830",
    "supportsInterface(bytes4)": "01ffc9a7"
  },
  "id": 68
}