{
  "abi": [
    {
      "inputs": [],
      "stateMutability": "nonpayable",
      "type": "constructor"
    },
    {
      "inputs": [
        {
          "internalType": "address",
          "name": "admin",
          "type": "address"
        }
      ],
      "name": "AdminAddressInvalid",
      "type": "error"
    },
    {
      "inputs": [],
      "name": "implementation",
      "outputs": [
        {
          "internalType": "address",
          "name": "",
          "type": "address"
        }
      ],
      "stateMutability": "view",
      "type": "function"
    },
    {
      "inputs": [
        {
          "internalType": "address",
          "name": "_dao",
          "type": "address"
        },
        {
          "internalType": "bytes",
          "name": "_data",
          "type": "bytes"
        }
      ],
      "name": "prepareInstallation",
      "outputs": [
        {
          "internalType": "address",
          "name": "plugin",
          "type": "address"
        },
        {
          "components": [
            {
              "internalType": "address[]",
              "name": "helpers",
              "type": "address[]"
            },
            {
              "components": [
                {
                  "internalType": "enum PermissionLib.Operation",
                  "name": "operation",
                  "type": "uint8"
                },
                {
                  "internalType": "address",
                  "name": "where",
                  "type": "address"
                },
                {
                  "internalType": "address",
                  "name": "who",
                  "type": "address"
                },
                {
                  "internalType": "address",
                  "name": "condition",
                  "type": "address"
                },
                {
                  "internalType": "bytes32",
                  "name": "permissionId",
                  "type": "bytes32"
                }
              ],
              "internalType": "struct PermissionLib.MultiTargetPermission[]",
              "name": "permissions",
              "type": "tuple[]"
            }
          ],
          "internalType": "struct IPluginSetup.PreparedSetupData",
          "name": "preparedSetupData",
          "type": "tuple"
        }
      ],
      "stateMutability": "nonpayable",
      "type": "function"
    },
    {
      "inputs": [
        {
          "internalType": "address",
          "name": "_dao",
          "type": "address"
        },
        {
          "components": [
            {
              "internalType": "address",
              "name": "plugin",
              "type": "address"
            },
            {
              "internalType": "address[]",
              "name": "currentHelpers",
              "type": "address[]"
            },
            {
              "internalType": "bytes",
              "name": "data",
              "type": "bytes"
            }
          ],
          "internalType": "struct IPluginSetup.SetupPayload",
          "name": "_payload",
          "type": "tuple"
        }
      ],
      "name": "prepareUninstallation",
      "outputs": [
        {
          "components": [
            {
              "internalType": "enum PermissionLib.Operation",
              "name": "operation",
              "type": "uint8"
            },
            {
              "internalType": "address",
              "name": "where",
              "type": "address"
            },
            {
              "internalType": "address",
              "name": "who",
              "type": "address"
            },
            {
              "internalType": "address",
              "name": "condition",
              "type": "address"
            },
            {
              "internalType": "bytes32",
              "name": "permissionId",
              "type": "bytes32"
            }
          ],
          "internalType": "struct PermissionLib.MultiTargetPermission[]",
          "name": "permissions",
          "type": "tuple[]"
        }
      ],
      "stateMutability": "view",
      "type": "function"
    },
    {
      "inputs": [
        {
          "internalType": "address",
          "name": "_dao",
          "type": "address"
        },
        {
          "internalType": "uint16",
          "name": "_currentBuild",
          "type": "uint16"
        },
        {
          "components": [
            {
              "internalType": "address",
              "name": "plugin",
              "type": "address"
            },
            {
              "internalType": "address[]",
              "name": "currentHelpers",
              "type": "address[]"
            },
            {
              "internalType": "bytes",
              "name": "data",
              "type": "bytes"
            }
          ],
          "internalType": "struct IPluginSetup.SetupPayload",
          "name": "_payload",
          "type": "tuple"
        }
      ],
      "name": "prepareUpdate",
      "outputs": [
        {
          "internalType": "bytes",
          "name": "initData",
          "type": "bytes"
        },
        {
          "components": [
            {
              "internalType": "address[]",
              "name": "helpers",
              "type": "address[]"
            },
            {
              "components": [
                {
                  "internalType": "enum PermissionLib.Operation",
                  "name": "operation",
                  "type": "uint8"
                },
                {
                  "internalType": "address",
                  "name": "where",
                  "type": "address"
                },
                {
                  "internalType": "address",
                  "name": "who",
                  "type": "address"
                },
                {
                  "internalType": "address",
                  "name": "condition",
                  "type": "address"
                },
                {
                  "internalType": "bytes32",
                  "name": "permissionId",
                  "type": "bytes32"
                }
              ],
              "internalType": "struct PermissionLib.MultiTargetPermission[]",
              "name": "permissions",
              "type": "tuple[]"
            }
          ],
          "internalType": "struct IPluginSetup.PreparedSetupData",
          "name": "preparedSetupData",
          "type": "tuple"
        }
      ],
      "stateMutability": "nonpayable",
      "type": "function"
    },
    {
      "inputs": [
        {
          "internalType": "bytes4",
          "name": "_interfaceId",
          "type": "bytes4"
        }
      ],
      "name": "supportsInterface",
      "outputs": [
        {
          "internalType": "bool",
          "name": "",
          "type": "bool"
        }
      ],
      "stateMutability": "view",
      "type": "function"
    }
  ],
  "bytecode": {
    "object": "0x60a060405234801561001057600080fd5b5060405161001d9061004b565b604051809103906000f080158015610039573d6000803e3d6000fd5b506001600160a01b0316608052610058565b613b6680610bff83390190565b608051610b8661007960003960008181609101526104430152610b866000f3fe608060405234801561001057600080fd5b50600436106100575760003560e01c806301ffc9a71461005c5780635c60da1b146100845780639cb0a124146100bb578063a8a9c29e146100db578063f10832f1146100fc575b600080fd5b61006f61006a366004610775565b61011d565b60405190151581526020015b60405180910390f35b6040516001600160a01b037f000000000000000000000000000000000000000000000000000000000000000016815260200161007b565b6100ce6100c93660046107d6565b610154565b60405161007b919061088c565b6100ee6100e93660046108d5565b6103b1565b60405161007b9291906109d1565b61010f61010a366004610a36565b6103d8565b60405161007b929190610abb565b60006001600160e01b0319821663099718b560e41b148061014e57506301ffc9a760e01b6001600160e01b03198316145b92915050565b606060006101656020840184610ae7565b90506000816001600160a01b031663f851a4406040518163ffffffff1660e01b8152600401602060405180830381865afa1580156101a7573d6000803e3d6000fd5b505050506040513d601f19601f820116820180604052508101906101cb9190610b04565b60408051600280825260608201909252919250816020015b6040805160a0810182526000808252602080830182905292820181905260608201819052608082015282526000199092019101816101e3579050506040805160a081019091529093508060018152602001836001600160a01b03168152602001826001600160a01b0316815260200160006001600160a01b03168152602001836001600160a01b031663f8a2c98e6040518163ffffffff1660e01b8152600401602060405180830381865afa1580156102a0573d6000803e3d6000fd5b505050506040513d601f19601f820116820180604052508101906102c49190610b21565b815250836000815181106102da576102da610b3a565b60209081029190910101526040805160a081019091528060018152602001866001600160a01b03168152602001836001600160a01b0316815260200160006001600160a01b03168152602001866001600160a01b0316630729d0546040518163ffffffff1660e01b8152600401602060405180830381865afa158015610364573d6000803e3d6000fd5b505050506040513d601f19601f820116820180604052508101906103889190610b21565b8152508360018151811061039e5761039e610b3a565b6020026020010181905250505092915050565b60606103d0604051806040016040528060608152602001606081525090565b935093915050565b60006103f7604051806040016040528060608152602001606081525090565b600061040584860186610ae7565b90506001600160a01b03811661043e57604051630849afa760e01b81526001600160a01b03821660048201526024015b60405180910390fd5b6104707f00000000000000000000000000000000000000000000000000000000000000006001600160a01b03166106db565b60405163485cc95560e01b81526001600160a01b03888116600483015283811660248301529194509084169063485cc95590604401600060405180830381600087803b1580156104bf57600080fd5b505af11580156104d3573d6000803e3d6000fd5b5060009250600291506104e39050565b60405190808252806020026020018201604052801561053c57816020015b6040805160a0810182526000808252602080830182905292820181905260608201819052608082015282526000199092019101816105015790505b506040805160a081019091529091508060008152602001856001600160a01b03168152602001836001600160a01b0316815260200160006001600160a01b03168152602001856001600160a01b031663f8a2c98e6040518163ffffffff1660e01b8152600401602060405180830381865afa1580156105bf573d6000803e3d6000fd5b505050506040513d601f19601f820116820180604052508101906105e39190610b21565b815250816000815181106105f9576105f9610b3a565b60209081029190910101526040805160a081019091528060008152602001886001600160a01b03168152602001856001600160a01b0316815260200160006001600160a01b03168152602001886001600160a01b0316630729d0546040518163ffffffff1660e01b8152600401602060405180830381865afa158015610683573d6000803e3d6000fd5b505050506040513d601f19601f820116820180604052508101906106a79190610b21565b815250816001815181106106bd576106bd610b3a565b60200260200101819052508083602001819052505050935093915050565b6000763d602d80600a3d3981f3363d3d373d3d3d363d730000008260601b60e81c176000526e5af43d82803e903d91602b57fd5bf38260781b17602052603760096000f090506001600160a01b0381166107705760405162461bcd60e51b8152602060048201526016602482015275115490cc4c4d8dce8818dc99585d194819985a5b195960521b6044820152606401610435565b919050565b60006020828403121561078757600080fd5b81356001600160e01b03198116811461079f57600080fd5b9392505050565b6001600160a01b03811681146107bb57600080fd5b50565b6000606082840312156107d057600080fd5b50919050565b600080604083850312156107e957600080fd5b82356107f4816107a6565b9150602083013567ffffffffffffffff81111561081057600080fd5b61081c858286016107be565b9150509250929050565b600081516003811061084857634e487b7160e01b600052602160045260246000fd5b8352506020818101516001600160a01b0390811691840191909152604080830151821690840152606080830151909116908301526080908101519082015260a00190565b6020808252825182820181905260009190848201906040850190845b818110156108c9576108bb838551610826565b9385019392506001016108a8565b50909695505050505050565b6000806000606084860312156108ea57600080fd5b83356108f5816107a6565b9250602084013561ffff8116811461090c57600080fd5b9150604084013567ffffffffffffffff81111561092857600080fd5b610934868287016107be565b9150509250925092565b805160408084528151908401819052600091602091908201906060860190845b818110156109835783516001600160a01b03168352928401929184019160010161095e565b50508483015186820387850152805180835290840192506000918401905b808310156109c6576109b4828551610826565b915084840193506001830192506109a1565b509695505050505050565b604081526000835180604084015260005b818110156109ff57602081870181015160608684010152016109e2565b50600060608285010152601f19601f820116830190506060838203016020840152610a2d606082018561093e565b95945050505050565b600080600060408486031215610a4b57600080fd5b8335610a56816107a6565b9250602084013567ffffffffffffffff80821115610a7357600080fd5b818601915086601f830112610a8757600080fd5b813581811115610a9657600080fd5b876020828501011115610aa857600080fd5b6020830194508093505050509250925092565b6001600160a01b0383168152604060208201819052600090610adf9083018461093e565b949350505050565b600060208284031215610af957600080fd5b813561079f816107a6565b600060208284031215610b1657600080fd5b815161079f816107a6565b600060208284031215610b3357600080fd5b5051919050565b634e487b7160e01b600052603260045260246000fdfea26469706673582212206bba0551811ac6c3cbc8afbb2765660728b1a88f08ac7ce3c5de56f46f19c34a64736f6c6343000811003360c06040526003608090815262302e3360e81b60a052609d9062000024908262000af3565b506040518060400160405280601581526020017f53796d62696f746963426f6e64696e67437572766500000000000000000000008152506040518060400160405280600381526020016253424360e81b81525068056bc75e2d63100000620493e0808484620000986200087160201b60201c565b620000a33362000933565b609b620000b1838262000af3565b50609c620000c0828262000af3565b50506001641c35fedd1560601b0360be55506001646c3390ecc9605e1b0360bf556001640cf801476160611b0360c05560016431bdb23e1d605f1b0360c15560016502fb1d8fe083605b1b0360c25560016505b771955b37605a1b0360c3556001650af67a93bb5160591b0360c45560016515060c256cb360581b0360c5556001651428a2f98d7360581b0360c6556001654d515663970960561b0360c755600165944620b0e70f60551b0360c855600166011c592761c66760541b0360c95560016602214d10d014eb60531b0360ca55600166020ade36b7dbef60531b0360cb5560016603eab73b3bbfe360521b0360cc556001660782ee3593f6d760511b0360cd556001661ccf4b44bb4821604f1b0360ce5560016606e7f88ad8a77760511b0360cf5560016669f3d1c921891d604d1b0360d055600166cb2ff529eb71e5604c1b0360d155600166c2d415c3db974b604c1b0360d25560016702eb40f9f620fda7604a1b0360d35560016705990681d961a1eb60491b0360d455600167055e12902701414760491b0360d55560016714962dee9dc9764160471b0360d65560016704ef57b9b560fab560491b0360d75560016712ed7b32a58f552b60471b0360d8556001679131271922eaa60760441b0360d9556001678b380f3558668c4760441b0360da556001680215f77c045fbe885760421b0360db556001600160831b0360dc556001670f577eded5773a1160471b0360dd556001680eb5ec597592befbf5603f1b0360de556001681c35fedd14b861eb05603e1b0360df556001683619c87664579bc94b603d1b0360e05560016867c00a3b07ffc01fd7603c1b0360e155600168c6f6c8f8739773a7a5603b1b0360e255600168bec763f8209b7a72b1603b1b0360e35560016902dbb8caad9b7097b91b60391b0360e455600169057b3d49dda84556d6f760381b0360e555600169054183095b2c8ececf3160381b0360e6556001690a14517cc6b9457111ef60371b0360e75560016913545598e5c23276ccf160361b0360e8556001692511882c39c3adea96ff60351b0360e955600169471649d87199aa99075760341b0360ea557004429a21a029d4c1457cfbffffffffffff60eb55700415bc6d6fb7dd71af2cb3ffffffffffff60ec557003eab73b3bbfe282243ce1ffffffffffff60ed557003c1771ac9fb6b4c18e229ffffffffffff60ee55700399e96897690418f785257fffffffffff60ef55700373fc456c53bb779bf0ea9fffffffffff60f05570034f9e8e490c48e67e6ab8bfffffffffff60f15570032cbfd4a7adc790560b3337ffffffffff60f25570030b50570f6e5d2acca94613ffffffffff60f3557002eb40f9f620fda6b56c2861ffffffffff60f4557002cc8340ecb0d0f520a6af58ffffffffff60f5557002af09481380a0a35cf1ba02ffffffffff60f655700292c5bdd3b92ec810287b1b3fffffffff60f755700277abdcdab07d5a77ac6d6b9fffffffff60f85570025daf6654b1eaa55fd64df5efffffffff60f955700244c49c648baa98192dce88b7ffffffff60fa5570022ce03cd5619a311b2471268bffffffff60fb55700215f77c045fbe885654a44a0fffffffff60fc556001600160811b0360fd557001eaefdbdaaee7421fc4d3ede5ffffffff60fe557001d6bd8b2eb257df7e8ca57b09bfffffff60ff557001c35fedd14b861eb0443f7f133fffffff610100557001b0ce43b322bcde4a56e8ada5afffffff6101015570019f0028ec1fff007f5a195a39dfffffff6101025570018ded91f0e72ee74f49b15ba527ffffff6101035570017d8ec7f04136f4e5615fd41a63ffffff6101045570016ddc6556cdb84bdc8d12d22e6fffffff6101055570015ecf52776a1155b5bd8395814f7fffff6101065570015060c256cb23b3b3cc3754cf40ffffff610107557001428a2f98d728ae223ddab715be3fffff6101085570013545598e5c23276ccf0ede68034fffff610109557001288c4161ce1d6f54b7f61081194fffff61010a5570011c592761c666aa641d5a01a40f17ffff61010b55700110a688680a7530515f3e6e6cfdcdffff61010c557001056f1b5bedf75c6bcb2ce8aed428ffff61010d556ffaadceceeff8a0890f3875f008277fff61010e556ff05dc6b27edad306388a600f6ba0bfff61010f556fe67a5a25da41063de1495d5b18cdbfff610110556fdcff115b14eedde6fc3aa5353f2e4fff610111556fd3e7a3924312399f9aae2e0f868f8fff610112556fcb2ff529eb71e41582cccd5a1ee26fff610113556fc2d415c3db974ab32a51840c0b67edff610114556fbad03e7d883f69ad5b0a186184e06bff610115556fb320d03b2c343d4829abd6075f0cc5ff610116556fabc25204e02828d73c6e80bcdb1a95bf610117556fa4b16f74ee4bb2040a1ec6c15fbbf2df610118556f9deaf736ac1f569deb1b5ae3f36c130f610119556f976bd9952c7aa957f5937d790ef6503761011a556f9131271922eaa6064b73a22d0bd4f2bf61011b556f8b380f3558668c46c91c49a2f8e967b961011c556f857ddf0117efa215952912839f6473e661011d5561011e805463ffffffff191663ffffffff9290921691909117905562000831338362000985565b50503461011f81905533600090815261012060205260409020546200085a935090915062000bbf565b336000908152610120602052604090205562000be7565b600054610100900460ff1615620008df5760405162461bcd60e51b815260206004820152602760248201527f496e697469616c697a61626c653a20636f6e747261637420697320696e697469604482015266616c697a696e6760c81b60648201526084015b60405180910390fd5b60005460ff9081161462000931576000805460ff191660ff9081179091556040519081527f7f26b83ff96e1f2b6a682f133852f6798a09c465da95921460cefb38474024989060200160405180910390a15b565b609780546001600160a01b038381166001600160a01b0319831681179093556040519116919082907f8be0079c531659141344cd1fd0a4f28419497f9722a3daafe3b4186f6b6457e090600090a35050565b6001600160a01b038216620009dd5760405162461bcd60e51b815260206004820152601f60248201527f45524332303a206d696e7420746f20746865207a65726f2061646472657373006044820152606401620008d6565b80609a6000828254620009f1919062000bbf565b90915550506001600160a01b0382166000818152609860209081526040808320805486019055518481527fddf252ad1be2c89b69c2b068fc378daa952ba7f163c4a11628f55a4df523b3ef910160405180910390a35050565b505050565b634e487b7160e01b600052604160045260246000fd5b600181811c9082168062000a7a57607f821691505b60208210810362000a9b57634e487b7160e01b600052602260045260246000fd5b50919050565b601f82111562000a4a57600081815260208120601f850160051c8101602086101562000aca5750805b601f850160051c820191505b8181101562000aeb5782815560010162000ad6565b505050505050565b81516001600160401b0381111562000b0f5762000b0f62000a4f565b62000b278162000b20845462000a65565b8462000aa1565b602080601f83116001811462000b5f576000841562000b465750858301515b600019600386901b1c1916600185901b17855562000aeb565b600085815260208120601f198616915b8281101562000b905788860151825594840194600190910190840162000b6f565b508582101562000baf5787850151600019600388901b60f8161c191681555b5050505050600190811b01905550565b8082018082111562000be157634e487b7160e01b600052601160045260246000fd5b92915050565b612f6f8062000bf76000396000f3fe6080604052600436106101e35760003560e01c806354fd4d5011610102578063a10954fe11610095578063dd62ed3e11610064578063dd62ed3e14610575578063f2fde38b14610595578063f851a440146105b5578063f8a2c98e146105de57600080fd5b8063a10954fe1461050a578063a457c2d714610520578063a9059cbb14610540578063da12457a1461056057600080fd5b80638cf2b63e116100d15780638cf2b63e146104895780638da5cb5b146104b757806395d89b41146104d557806396343886146104ea57600080fd5b806354fd4d501461040957806370a082311461041e578063715018a6146104545780637cbed3e01461046957600080fd5b806329a00e7c1161017a57806341de68301161014957806341de68301461038d57806342966c68146103a9578063485cc955146103c957806349f9b0f7146103e957600080fd5b806329a00e7c146102ff578063313ce5671461031f578063395093511461033b5780634162169f1461035b57600080fd5b80630d8f9f7f116101b65780630d8f9f7f146102925780631249c58b146102c057806318160ddd146102ca57806323b872dd146102df57600080fd5b806301ffc9a7146101e857806306fdde031461021d578063095ea7b31461023f5780630c7d5cd81461025f575b600080fd5b3480156101f457600080fd5b50610208610203366004612ba6565b610612565b60405190151581526020015b60405180910390f35b34801561022957600080fd5b50610232610649565b6040516102149190612bd7565b34801561024b57600080fd5b5061020861025a366004612c3a565b6106db565b34801561026b57600080fd5b5061011e5461027d9063ffffffff1681565b60405163ffffffff9091168152602001610214565b34801561029e57600080fd5b506102b26102ad366004612c66565b6106f3565b604051908152602001610214565b6102c8610714565b005b3480156102d657600080fd5b50609a546102b2565b3480156102eb57600080fd5b506102086102fa366004612c7f565b610763565b34801561030b57600080fd5b506102b261031a366004612cc0565b610787565b34801561032b57600080fd5b5060405160128152602001610214565b34801561034757600080fd5b50610208610356366004612c3a565b610890565b34801561036757600080fd5b506065546001600160a01b03165b6040516001600160a01b039091168152602001610214565b34801561039957600080fd5b5060016040516102149190612d08565b3480156103b557600080fd5b506102c86103c4366004612c66565b6108b2565b3480156103d557600080fd5b506102c86103e4366004612d30565b610932565b3480156103f557600080fd5b506102b2610404366004612cc0565b610a6c565b34801561041557600080fd5b50610232610b84565b34801561042a57600080fd5b506102b2610439366004612d69565b6001600160a01b031660009081526098602052604090205490565b34801561046057600080fd5b506102c8610c12565b34801561047557600080fd5b506102b2610484366004612c66565b610c26565b34801561049557600080fd5b506102b26104a4366004612d69565b6101206020526000908152604090205481565b3480156104c357600080fd5b506097546001600160a01b0316610375565b3480156104e157600080fd5b50610232610c47565b3480156104f657600080fd5b506102c8610505366004612c66565b610c56565b34801561051657600080fd5b5061011f546102b2565b34801561052c57600080fd5b5061020861053b366004612c3a565b610ca3565b34801561054c57600080fd5b5061020861055b366004612c3a565b610d1e565b34801561056c57600080fd5b506102b2610d2c565b34801561058157600080fd5b506102b2610590366004612d30565b610d3c565b3480156105a157600080fd5b506102c86105b0366004612d69565b610d67565b3480156105c157600080fd5b5061011e546103759064010000000090046001600160a01b031681565b3480156105ea57600080fd5b506102b27f333faabe8d5b573697f548cb3885d6a81cd1e2ac87d1775bfec70a290e8e4d6081565b60006001600160e01b0319821663041de68360e41b148061064357506301ffc9a760e01b6001600160e01b03198316145b92915050565b6060609b805461065890612d86565b80601f016020809104026020016040519081016040528092919081815260200182805461068490612d86565b80156106d15780601f106106a6576101008083540402835291602001916106d1565b820191906000526020600020905b8154815290600101906020018083116106b457829003601f168201915b5050505050905090565b6000336106e9818585610de0565b5060019392505050565b6000610643610700610d2c565b61011f5461011e5463ffffffff1685610787565b33600090815261012060205260409020543490610732908290612dd6565b336000908152610120602052604090205561074c81610f04565b508061011f5461075c9190612dd6565b61011f5550565b600033610771858285610fb4565b61077c85858561102e565b506001949350505050565b600080851180156107985750600084115b80156107aa575060008363ffffffff16115b80156107bf5750620f424063ffffffff841611155b6108025760405162461bcd60e51b815260206004820152600f60248201526e24b73b30b634b21034b7383aba399760891b60448201526064015b60405180910390fd5b8160000361081257506000610888565b620f423f1963ffffffff84160161083f578361082e8387612de9565b6108389190612e16565b9050610888565b6000808061084d8786612dd6565b905061085e818888620f42406111d9565b9093509150600060ff8316610873858b612de9565b901c90506108818982612e2a565b9450505050505b949350505050565b6000336106e98185856108a38383610d3c565b6108ad9190612dd6565b610de0565b60006108bd82611359565b33600090815261012060205260409020549091506108dc908290612e2a565b336000908152610120602052604090205561011f546108fc908290612e2a565b61011f55604051339082156108fc029083906000818181858888f1935050505015801561092d573d6000803e3d6000fd5b505050565b600054610100900460ff16158080156109525750600054600160ff909116105b8061096c5750303b15801561096c575060005460ff166001145b6109cf5760405162461bcd60e51b815260206004820152602e60248201527f496e697469616c697a61626c653a20636f6e747261637420697320616c72656160448201526d191e481a5b9a5d1a585b1a5e995960921b60648201526084016107f9565b6000805460ff1916600117905580156109f2576000805461ff0019166101001790555b6109fb8361145e565b61011e8054640100000000600160c01b0319166401000000006001600160a01b03851602179055801561092d576000805461ff0019169055604051600181527f7f26b83ff96e1f2b6a682f133852f6798a09c465da95921460cefb38474024989060200160405180910390a1505050565b60008085118015610a7d5750600084115b8015610a8f575060008363ffffffff16115b8015610aa45750620f424063ffffffff841611155b8015610ab05750848211155b610aee5760405162461bcd60e51b815260206004820152600f60248201526e24b73b30b634b21034b7383aba399760891b60448201526064016107f9565b81600003610afe57506000610888565b848203610b0c575082610888565b620f423f1963ffffffff841601610b28578461082e8386612de9565b60008080610b368589612e2a565b9050610b478882620f4240896111d9565b90935091506000610b588489612de9565b905060ff831688901b84610b6c8284612e2a565b610b769190612e16565b9a9950505050505050505050565b609d8054610b9190612d86565b80601f0160208091040260200160405190810160405280929190818152602001828054610bbd90612d86565b8015610c0a5780601f10610bdf57610100808354040283529160200191610c0a565b820191906000526020600020905b815481529060010190602001808311610bed57829003601f168201915b505050505081565b610c1a61148e565b610c2460006114e8565b565b6000610643610c33610d2c565b61011f5461011e5463ffffffff1685610a6c565b6060609c805461065890612d86565b610c60338261153a565b604080513381526020810183905260008183015290517f23ff0e75edf108e3d0392d92e13e8c8a868ef19001bd49f9e94876dc46dff87f9181900360600190a150565b60003381610cb18286610d3c565b905083811015610d115760405162461bcd60e51b815260206004820152602560248201527f45524332303a2064656372656173656420616c6c6f77616e63652062656c6f77604482015264207a65726f60d81b60648201526084016107f9565b61077c8286868403610de0565b6000336106e981858561102e565b6000610d37609a5490565b905090565b6001600160a01b03918216600090815260996020908152604080832093909416825291909152205490565b610d6f61148e565b6001600160a01b038116610dd45760405162461bcd60e51b815260206004820152602660248201527f4f776e61626c653a206e6577206f776e657220697320746865207a65726f206160448201526564647265737360d01b60648201526084016107f9565b610ddd816114e8565b50565b6001600160a01b038316610e425760405162461bcd60e51b8152602060048201526024808201527f45524332303a20617070726f76652066726f6d20746865207a65726f206164646044820152637265737360e01b60648201526084016107f9565b6001600160a01b038216610ea35760405162461bcd60e51b815260206004820152602260248201527f45524332303a20617070726f766520746f20746865207a65726f206164647265604482015261737360f01b60648201526084016107f9565b6001600160a01b0383811660008181526099602090815260408083209487168084529482529182902085905590518481527f8c5be1e5ebec7d5bd14f71427d1e84f3dd0314c0f7b2291e5b200ac8c7c3b925910160405180910390a3505050565b6000808211610f555760405162461bcd60e51b815260206004820152601960248201527f4465706f736974206d757374206265206e6f6e2d7a65726f2e0000000000000060448201526064016107f9565b6000610f60836106f3565b9050610f6c338261166e565b60408051338152602081018390529081018490527f25b428dfde728ccfaddad7e29e4ac23c24ed7fd1a6e3e3f91894a9a073f5dfff906060015b60405180910390a192915050565b6000610fc08484610d3c565b90506000198114611028578181101561101b5760405162461bcd60e51b815260206004820152601d60248201527f45524332303a20696e73756666696369656e7420616c6c6f77616e636500000060448201526064016107f9565b6110288484848403610de0565b50505050565b6001600160a01b0383166110925760405162461bcd60e51b815260206004820152602560248201527f45524332303a207472616e736665722066726f6d20746865207a65726f206164604482015264647265737360d81b60648201526084016107f9565b6001600160a01b0382166110f45760405162461bcd60e51b815260206004820152602360248201527f45524332303a207472616e7366657220746f20746865207a65726f206164647260448201526265737360e81b60648201526084016107f9565b6001600160a01b0383166000908152609860205260409020548181101561116c5760405162461bcd60e51b815260206004820152602660248201527f45524332303a207472616e7366657220616d6f756e7420657863656564732062604482015265616c616e636560d01b60648201526084016107f9565b6001600160a01b0380851660008181526098602052604080822086860390559286168082529083902080548601905591517fddf252ad1be2c89b69c2b068fc378daa952ba7f163c4a11628f55a4df523b3ef906111cc9086815260200190565b60405180910390a3611028565b600080600160811b861061122f5760405162461bcd60e51b815260206004820152601860248201527f626173654e2065786365656473206d61782076616c75652e000000000000000060448201526064016107f9565b8486101561127f5760405162461bcd60e51b815260206004820152601c60248201527f4261736573203c203120617265206e6f7420737570706f727465642e0000000060448201526064016107f9565b600080866112916001607f1b8a612de9565b61129b9190612e16565b905070015bf0a8b1457695355fb8ac404e7a79e38110156112c6576112bf8161172f565b91506112d2565b6112cf81611ca8565b91505b60008563ffffffff168763ffffffff16846112ed9190612de9565b6112f79190612e16565b9050600160831b81101561131c5761130e81611d97565b607f94509450505050611350565b6000611327826123c2565b905061134361133782607f612e3d565b60ff1683901c82612487565b9550935061135092505050565b94509492505050565b60008082116113aa5760405162461bcd60e51b815260206004820152601860248201527f416d6f756e74206d757374206265206e6f6e2d7a65726f2e000000000000000060448201526064016107f9565b336000908152609860205260409020548211156114095760405162461bcd60e51b815260206004820152601c60248201527f496e73756666696369656e7420746f6b656e7320746f206275726e2e0000000060448201526064016107f9565b600061141483610c26565b9050611420338461153a565b60408051338152602081018590529081018290527f23ff0e75edf108e3d0392d92e13e8c8a868ef19001bd49f9e94876dc46dff87f90606001610fa6565b600054610100900460ff166114855760405162461bcd60e51b81526004016107f990612e56565b610ddd81612aee565b6097546001600160a01b03163314610c245760405162461bcd60e51b815260206004820181905260248201527f4f776e61626c653a2063616c6c6572206973206e6f7420746865206f776e657260448201526064016107f9565b609780546001600160a01b038381166001600160a01b0319831681179093556040519116919082907f8be0079c531659141344cd1fd0a4f28419497f9722a3daafe3b4186f6b6457e090600090a35050565b6001600160a01b03821661159a5760405162461bcd60e51b815260206004820152602160248201527f45524332303a206275726e2066726f6d20746865207a65726f206164647265736044820152607360f81b60648201526084016107f9565b6001600160a01b0382166000908152609860205260409020548181101561160e5760405162461bcd60e51b815260206004820152602260248201527f45524332303a206275726e20616d6f756e7420657863656564732062616c616e604482015261636560f01b60648201526084016107f9565b6001600160a01b03831660008181526098602090815260408083208686039055609a80548790039055518581529192917fddf252ad1be2c89b69c2b068fc378daa952ba7f163c4a11628f55a4df523b3ef910160405180910390a3505050565b6001600160a01b0382166116c45760405162461bcd60e51b815260206004820152601f60248201527f45524332303a206d696e7420746f20746865207a65726f20616464726573730060448201526064016107f9565b80609a60008282546116d69190612dd6565b90915550506001600160a01b0382166000818152609860209081526040808320805486019055518481527fddf252ad1be2c89b69c2b068fc378daa952ba7f163c4a11628f55a4df523b3ef910160405180910390a35050565b6000808080806fd3094c70f034de4b96ff7d5b6f99fcd886106117885761175a6001607e1b85612dd6565b93506fd3094c70f034de4b96ff7d5b6f99fcd861177b6001607f1b88612de9565b6117859190612e16565b95505b6fa45af1e1f40c333b3de1db4dd55f29a786106117db576117ad6001607d1b85612dd6565b93506fa45af1e1f40c333b3de1db4dd55f29a76117ce6001607f1b88612de9565b6117d89190612e16565b95505b6f910b022db7ae67ce76b441c27035c6a1861061182e576118006001607c1b85612dd6565b93506f910b022db7ae67ce76b441c27035c6a16118216001607f1b88612de9565b61182b9190612e16565b95505b6f88415abbe9a76bead8d00cf112e4d4a88610611881576118536001607b1b85612dd6565b93506f88415abbe9a76bead8d00cf112e4d4a86118746001607f1b88612de9565b61187e9190612e16565b95505b6f84102b00893f64c705e841d5d4064bd386106118d4576118a66001607a1b85612dd6565b93506f84102b00893f64c705e841d5d4064bd36118c76001607f1b88612de9565b6118d19190612e16565b95505b6f8204055aaef1c8bd5c3259f4822735a28610611927576118f9600160791b85612dd6565b93506f8204055aaef1c8bd5c3259f4822735a261191a6001607f1b88612de9565b6119249190612e16565b95505b6f810100ab00222d861931c15e39b44e99861061197a5761194c600160781b85612dd6565b93506f810100ab00222d861931c15e39b44e9961196d6001607f1b88612de9565b6119779190612e16565b95505b6f808040155aabbbe9451521693554f73386106119cd5761199f600160771b85612dd6565b93506f808040155aabbbe9451521693554f7336119c06001607f1b88612de9565b6119ca9190612e16565b95505b6119db6001607f1b87612e2a565b92508291506001607f1b6119ef8380612de9565b6119f99190612e16565b9050600160801b611a0a8482612e2a565b611a149084612de9565b611a1e9190612e16565b611a289085612dd6565b93506001607f1b611a398284612de9565b611a439190612e16565b9150600160811b611a64846faaaaaaaaaaaaaaaaaaaaaaaaaaaaaaaa612e2a565b611a6e9084612de9565b611a789190612e16565b611a829085612dd6565b93506001607f1b611a938284612de9565b611a9d9190612e16565b9150600360801b611abe846f99999999999999999999999999999999612e2a565b611ac89084612de9565b611ad29190612e16565b611adc9085612dd6565b93506001607f1b611aed8284612de9565b611af79190612e16565b9150600160821b611b18846f92492492492492492492492492492492612e2a565b611b229084612de9565b611b2c9190612e16565b611b369085612dd6565b93506001607f1b611b478284612de9565b611b519190612e16565b9150600560801b611b72846f8e38e38e38e38e38e38e38e38e38e38e612e2a565b611b7c9084612de9565b611b869190612e16565b611b909085612dd6565b93506001607f1b611ba18284612de9565b611bab9190612e16565b9150600360811b611bcc846f8ba2e8ba2e8ba2e8ba2e8ba2e8ba2e8b612e2a565b611bd69084612de9565b611be09190612e16565b611bea9085612dd6565b93506001607f1b611bfb8284612de9565b611c059190612e16565b9150600760801b611c26846f89d89d89d89d89d89d89d89d89d89d89612e2a565b611c309084612de9565b611c3a9190612e16565b611c449085612dd6565b93506001607f1b611c558284612de9565b611c5f9190612e16565b9150600160831b611c80846f88888888888888888888888888888888612e2a565b611c8a9084612de9565b611c949190612e16565b611c9e9085612dd6565b9695505050505050565b60008082600160801b8110611ced576000611ccf611cca6001607f1b84612e16565b612b37565b60ff811692831c92909150611ce9906001607f1b90612de9565b9250505b6001607f1b811115611d6257607f5b60ff811615611d60576001607f1b611d148380612de9565b611d1e9190612e16565b9150600160801b8210611d5057600191821c91611d3b9082612e3d565b60ff166001901b83611d4d9190612dd6565b92505b611d5981612ea1565b9050611cfc565b505b6f05b9de1d10bf4103d647b0955897ba80611d8d6f03f80fe03f80fe03f80fe03f80fe03f884612de9565b6108889190612e16565b6000808080611daa6001607c1b86612ebe565b91508190506001607f1b611dbe8280612de9565b611dc89190612e16565b9050611ddc816710e1b3be415a0000612de9565b611de69084612dd6565b92506001607f1b611df78383612de9565b611e019190612e16565b9050611e15816705a0913f6b1e0000612de9565b611e1f9084612dd6565b92506001607f1b611e308383612de9565b611e3a9190612e16565b9050611e4e81670168244fdac78000612de9565b611e589084612dd6565b92506001607f1b611e698383612de9565b611e739190612e16565b9050611e8681664807432bc18000612de9565b611e909084612dd6565b92506001607f1b611ea18383612de9565b611eab9190612e16565b9050611ebe81660c0135dca04000612de9565b611ec89084612dd6565b92506001607f1b611ed98383612de9565b611ee39190612e16565b9050611ef6816601b707b1cdc000612de9565b611f009084612dd6565b92506001607f1b611f118383612de9565b611f1b9190612e16565b9050611f2d816536e0f639b800612de9565b611f379084612dd6565b92506001607f1b611f488383612de9565b611f529190612e16565b9050611f6481650618fee9f800612de9565b611f6e9084612dd6565b92506001607f1b611f7f8383612de9565b611f899190612e16565b9050611f9a81649c197dcc00612de9565b611fa49084612dd6565b92506001607f1b611fb58383612de9565b611fbf9190612e16565b9050611fd081640e30dce400612de9565b611fda9084612dd6565b92506001607f1b611feb8383612de9565b611ff59190612e16565b90506120068164012ebd1300612de9565b6120109084612dd6565b92506001607f1b6120218383612de9565b61202b9190612e16565b905061203b816317499f00612de9565b6120459084612dd6565b92506001607f1b6120568383612de9565b6120609190612e16565b9050612070816301a9d480612de9565b61207a9084612dd6565b92506001607f1b61208b8383612de9565b6120959190612e16565b90506120a481621c6380612de9565b6120ae9084612dd6565b92506001607f1b6120bf8383612de9565b6120c99190612e16565b90506120d8816201c638612de9565b6120e29084612dd6565b92506001607f1b6120f38383612de9565b6120fd9190612e16565b905061210b81611ab8612de9565b6121159084612dd6565b92506001607f1b6121268383612de9565b6121309190612e16565b905061213e8161017c612de9565b6121489084612dd6565b92506001607f1b6121598383612de9565b6121639190612e16565b9050612170816014612de9565b61217a9084612dd6565b92506001607f1b61218b8383612de9565b6121959190612e16565b90506121a2816001612de9565b6121ac9084612dd6565b92506001607f1b826121c66721c3677c82b4000086612e16565b6121d09190612dd6565b6121da9190612dd6565b92506001607c1b8516156122225770018ebef9eac820ae8682b9793ac6d1e776612215847001c3d6a24ed82218787d624d3e5eba95f9612de9565b61221f9190612e16565b92505b6001607d1b851615612268577001368b2fc6f9609fe7aceb46aa619baed461225b8470018ebef9eac820ae8682b9793ac6d1e778612de9565b6122659190612e16565b92505b6001607e1b8516156122ad576fbc5ab1b16779be3575bd8f0520a9f21f6122a0847001368b2fc6f9609fe7aceb46aa619baed5612de9565b6122aa9190612e16565b92505b6001607f1b8516156122f1576f454aaa8efe072e7f6ddbab84b40a55c96122e4846fbc5ab1b16779be3575bd8f0520a9f21e612de9565b6122ee9190612e16565b92505b600160801b851615612335576f0960aadc109e7a3bf4578099615711ea612328846f454aaa8efe072e7f6ddbab84b40a55c5612de9565b6123329190612e16565b92505b600160811b851615612378576e2bf84208204f5977f9a8cf01fdce3d61236b846f0960aadc109e7a3bf4578099615711d7612de9565b6123759190612e16565b92505b600160821b8516156123b9576d03c6ab775dd0b95b4cbee7e65d116123ac846e2bf84208204f5977f9a8cf01fdc307612de9565b6123b69190612e16565b92505b50909392505050565b60006020607f5b60ff81166123d8836001612ed2565b60ff16101561242b57600060026123ef8385612ed2565b6123f99190612eeb565b905084609e8260ff166080811061241257612412612f0d565b01541061242157809250612425565b8091505b506123c9565b83609e8260ff166080811061244257612442612f0d565b015410612450579392505050565b83609e8360ff166080811061246757612467612f0d565b015410612475575092915050565b61247d612f23565b5060009392505050565b6000828160ff84166124998380612de9565b901c91506124b7826f03442c4e6074a82f1797f72ac0000000612de9565b6124c19082612dd6565b905060ff84166124d18684612de9565b901c91506124ef826f0116b96f757c380fb287fd0e40000000612de9565b6124f99082612dd6565b905060ff84166125098684612de9565b901c9150612526826e45ae5bdd5f0e03eca1ff4390000000612de9565b6125309082612dd6565b905060ff84166125408684612de9565b901c915061255d826e0defabf91302cd95b9ffda50000000612de9565b6125679082612dd6565b905060ff84166125778684612de9565b901c9150612594826e02529ca9832b22439efff9b8000000612de9565b61259e9082612dd6565b905060ff84166125ae8684612de9565b901c91506125ca826d54f1cf12bd04e516b6da88000000612de9565b6125d49082612dd6565b905060ff84166125e48684612de9565b901c9150612600826d0a9e39e257a09ca2d6db51000000612de9565b61260a9082612dd6565b905060ff841661261a8684612de9565b901c9150612636826d012e066e7b839fa050c309000000612de9565b6126409082612dd6565b905060ff84166126508684612de9565b901c915061266b826c1e33d7d926c329a1ad1a800000612de9565b6126759082612dd6565b905060ff84166126858684612de9565b901c91506126a0826c02bee513bdb4a6b19b5f800000612de9565b6126aa9082612dd6565b905060ff84166126ba8684612de9565b901c91506126d4826b3a9316fa79b88eccf2a00000612de9565b6126de9082612dd6565b905060ff84166126ee8684612de9565b901c9150612708826b048177ebe1fa812375200000612de9565b6127129082612dd6565b905060ff84166127228684612de9565b901c915061273b826a5263fe90242dcbacf00000612de9565b6127459082612dd6565b905060ff84166127558684612de9565b901c915061276e826a057e22099c030d94100000612de9565b6127789082612dd6565b905060ff84166127888684612de9565b901c91506127a0826957e22099c030d9410000612de9565b6127aa9082612dd6565b905060ff84166127ba8684612de9565b901c91506127d28269052b6b54569976310000612de9565b6127dc9082612dd6565b905060ff84166127ec8684612de9565b901c915061280382684985f67696bf748000612de9565b61280d9082612dd6565b905060ff841661281d8684612de9565b901c9150612834826803dea12ea99e498000612de9565b61283e9082612dd6565b905060ff841661284e8684612de9565b901c9150612864826731880f2214b6e000612de9565b61286e9082612dd6565b905060ff841661287e8684612de9565b901c91506128948267025bcff56eb36000612de9565b61289e9082612dd6565b905060ff84166128ae8684612de9565b901c91506128c382661b722e10ab1000612de9565b6128cd9082612dd6565b905060ff84166128dd8684612de9565b901c91506128f2826601317c70077000612de9565b6128fc9082612dd6565b905060ff841661290c8684612de9565b901c915061292082650cba84aafa00612de9565b61292a9082612dd6565b905060ff841661293a8684612de9565b901c915061294d826482573a0a00612de9565b6129579082612dd6565b905060ff84166129678684612de9565b901c915061297a826405035ad900612de9565b6129849082612dd6565b905060ff84166129948684612de9565b901c91506129a682632f881b00612de9565b6129b09082612dd6565b905060ff84166129c08684612de9565b901c91506129d2826301b29340612de9565b6129dc9082612dd6565b905060ff84166129ec8684612de9565b901c91506129fd82620efc40612de9565b612a079082612dd6565b905060ff8416612a178684612de9565b901c9150612a2782617fe0612de9565b612a319082612dd6565b905060ff8416612a418684612de9565b901c9150612a5182610420612de9565b612a5b9082612dd6565b905060ff8416612a6b8684612de9565b901c9150612a7a826021612de9565b612a849082612dd6565b905060ff8416612a948684612de9565b901c9150612aa3826001612de9565b612aad9082612dd6565b9050600160ff85161b85612ad16f0688589cc0e9505e2f2fee558000000084612e16565b612adb9190612dd6565b612ae59190612dd6565b95945050505050565b600054610100900460ff16612b155760405162461bcd60e51b81526004016107f990612e56565b606580546001600160a01b0319166001600160a01b0392909216919091179055565b60008082610100811015612b6b575b6001811115612b6657600190811c90612b5f9083612ed2565b9150612b46565b612b9f565b60805b60ff811615612b9d57600160ff82161b8210612b92579182179160ff81169190911c905b60011c607f16612b6e565b505b5092915050565b600060208284031215612bb857600080fd5b81356001600160e01b031981168114612bd057600080fd5b9392505050565b600060208083528351808285015260005b81811015612c0457858101830151858201604001528201612be8565b506000604082860101526040601f19601f8301168501019250505092915050565b6001600160a01b0381168114610ddd57600080fd5b60008060408385031215612c4d57600080fd5b8235612c5881612c25565b946020939093013593505050565b600060208284031215612c7857600080fd5b5035919050565b600080600060608486031215612c9457600080fd5b8335612c9f81612c25565b92506020840135612caf81612c25565b929592945050506040919091013590565b60008060008060808587031215612cd657600080fd5b8435935060208501359250604085013563ffffffff81168114612cf857600080fd5b9396929550929360600135925050565b6020810160038310612d2a57634e487b7160e01b600052602160045260246000fd5b91905290565b60008060408385031215612d4357600080fd5b8235612d4e81612c25565b91506020830135612d5e81612c25565b809150509250929050565b600060208284031215612d7b57600080fd5b8135612bd081612c25565b600181811c90821680612d9a57607f821691505b602082108103612dba57634e487b7160e01b600052602260045260246000fd5b50919050565b634e487b7160e01b600052601160045260246000fd5b8082018082111561064357610643612dc0565b808202811582820484141761064357610643612dc0565b634e487b7160e01b600052601260045260246000fd5b600082612e2557612e25612e00565b500490565b8181038181111561064357610643612dc0565b60ff828116828216039081111561064357610643612dc0565b6020808252602b908201527f496e697469616c697a61626c653a20636f6e7472616374206973206e6f74206960408201526a6e697469616c697a696e6760a81b606082015260800190565b600060ff821680612eb457612eb4612dc0565b6000190192915050565b600082612ecd57612ecd612e00565b500690565b60ff818116838216019081111561064357610643612dc0565b600060ff831680612efe57612efe612e00565b8060ff84160491505092915050565b634e487b7160e01b600052603260045260246000fd5b634e487b7160e01b600052600160045260246000fdfea26469706673582212205d803528c38e0acde128769886961d8c38ca09b52313f9400e3be4e43c91c0a764736f6c63430008110033",
    "linkReferences": {}
  },
  "methodIdentifiers": {
    "implementation()": "5c60da1b",
    "prepareInstallation(address,bytes)": "f10832f1",
    "prepareUninstallation(address,(address,address[],bytes))": "9cb0a124",
    "prepareUpdate(address,uint16,(address,address[],bytes))": "a8a9c29e",
    "supportsInterface(bytes4)": "01ffc9a7"
  },
  "id": 54
}