{
  "abi": [
    {
      "inputs": [
        {
          "internalType": "address",
          "name": "_reserveToken",
          "type": "address"
        },
        {
          "internalType": "uint256",
          "name": "_initialReserve",
          "type": "uint256"
        }
      ],
      "stateMutability": "nonpayable",
      "type": "constructor"
    },
    {
      "inputs": [
        {
          "internalType": "address",
          "name": "admin",
          "type": "address"
        }
      ],
      "name": "AdminAddressInvalid",
      "type": "error"
    },
    {
      "inputs": [],
      "name": "implementation",
      "outputs": [
        {
          "internalType": "address",
          "name": "",
          "type": "address"
        }
      ],
      "stateMutability": "view",
      "type": "function"
    },
    {
      "inputs": [
        {
          "internalType": "address",
          "name": "_dao",
          "type": "address"
        },
        {
          "internalType": "bytes",
          "name": "_data",
          "type": "bytes"
        }
      ],
      "name": "prepareInstallation",
      "outputs": [
        {
          "internalType": "address",
          "name": "plugin",
          "type": "address"
        },
        {
          "components": [
            {
              "internalType": "address[]",
              "name": "helpers",
              "type": "address[]"
            },
            {
              "components": [
                {
                  "internalType": "enum PermissionLib.Operation",
                  "name": "operation",
                  "type": "uint8"
                },
                {
                  "internalType": "address",
                  "name": "where",
                  "type": "address"
                },
                {
                  "internalType": "address",
                  "name": "who",
                  "type": "address"
                },
                {
                  "internalType": "address",
                  "name": "condition",
                  "type": "address"
                },
                {
                  "internalType": "bytes32",
                  "name": "permissionId",
                  "type": "bytes32"
                }
              ],
              "internalType": "struct PermissionLib.MultiTargetPermission[]",
              "name": "permissions",
              "type": "tuple[]"
            }
          ],
          "internalType": "struct IPluginSetup.PreparedSetupData",
          "name": "preparedSetupData",
          "type": "tuple"
        }
      ],
      "stateMutability": "nonpayable",
      "type": "function"
    },
    {
      "inputs": [
        {
          "internalType": "address",
          "name": "_dao",
          "type": "address"
        },
        {
          "components": [
            {
              "internalType": "address",
              "name": "plugin",
              "type": "address"
            },
            {
              "internalType": "address[]",
              "name": "currentHelpers",
              "type": "address[]"
            },
            {
              "internalType": "bytes",
              "name": "data",
              "type": "bytes"
            }
          ],
          "internalType": "struct IPluginSetup.SetupPayload",
          "name": "_payload",
          "type": "tuple"
        }
      ],
      "name": "prepareUninstallation",
      "outputs": [
        {
          "components": [
            {
              "internalType": "enum PermissionLib.Operation",
              "name": "operation",
              "type": "uint8"
            },
            {
              "internalType": "address",
              "name": "where",
              "type": "address"
            },
            {
              "internalType": "address",
              "name": "who",
              "type": "address"
            },
            {
              "internalType": "address",
              "name": "condition",
              "type": "address"
            },
            {
              "internalType": "bytes32",
              "name": "permissionId",
              "type": "bytes32"
            }
          ],
          "internalType": "struct PermissionLib.MultiTargetPermission[]",
          "name": "permissions",
          "type": "tuple[]"
        }
      ],
      "stateMutability": "view",
      "type": "function"
    },
    {
      "inputs": [
        {
          "internalType": "address",
          "name": "_dao",
          "type": "address"
        },
        {
          "internalType": "uint16",
          "name": "_currentBuild",
          "type": "uint16"
        },
        {
          "components": [
            {
              "internalType": "address",
              "name": "plugin",
              "type": "address"
            },
            {
              "internalType": "address[]",
              "name": "currentHelpers",
              "type": "address[]"
            },
            {
              "internalType": "bytes",
              "name": "data",
              "type": "bytes"
            }
          ],
          "internalType": "struct IPluginSetup.SetupPayload",
          "name": "_payload",
          "type": "tuple"
        }
      ],
      "name": "prepareUpdate",
      "outputs": [
        {
          "internalType": "bytes",
          "name": "initData",
          "type": "bytes"
        },
        {
          "components": [
            {
              "internalType": "address[]",
              "name": "helpers",
              "type": "address[]"
            },
            {
              "components": [
                {
                  "internalType": "enum PermissionLib.Operation",
                  "name": "operation",
                  "type": "uint8"
                },
                {
                  "internalType": "address",
                  "name": "where",
                  "type": "address"
                },
                {
                  "internalType": "address",
                  "name": "who",
                  "type": "address"
                },
                {
                  "internalType": "address",
                  "name": "condition",
                  "type": "address"
                },
                {
                  "internalType": "bytes32",
                  "name": "permissionId",
                  "type": "bytes32"
                }
              ],
              "internalType": "struct PermissionLib.MultiTargetPermission[]",
              "name": "permissions",
              "type": "tuple[]"
            }
          ],
          "internalType": "struct IPluginSetup.PreparedSetupData",
          "name": "preparedSetupData",
          "type": "tuple"
        }
      ],
      "stateMutability": "nonpayable",
      "type": "function"
    },
    {
      "inputs": [
        {
          "internalType": "bytes4",
          "name": "_interfaceId",
          "type": "bytes4"
        }
      ],
      "name": "supportsInterface",
      "outputs": [
        {
          "internalType": "bool",
          "name": "",
          "type": "bool"
        }
      ],
      "stateMutability": "view",
      "type": "function"
    }
  ],
  "bytecode": {
    "object": "0x60a060405234801561001057600080fd5b5060405161489238038061489283398101604081905261002f91610090565b818160405161003d90610083565b6001600160a01b0390921682526020820152604001604051809103906000f08015801561006e573d6000803e3d6000fd5b506001600160a01b0316608052506100ca9050565b613c2180610c7183390190565b600080604083850312156100a357600080fd5b82516001600160a01b03811681146100ba57600080fd5b6020939093015192949293505050565b608051610b866100eb60003960008181609101526104430152610b866000f3fe608060405234801561001057600080fd5b50600436106100575760003560e01c806301ffc9a71461005c5780635c60da1b146100845780639cb0a124146100bb578063a8a9c29e146100db578063f10832f1146100fc575b600080fd5b61006f61006a366004610775565b61011d565b60405190151581526020015b60405180910390f35b6040516001600160a01b037f000000000000000000000000000000000000000000000000000000000000000016815260200161007b565b6100ce6100c93660046107d6565b610154565b60405161007b919061088c565b6100ee6100e93660046108d5565b6103b1565b60405161007b9291906109d1565b61010f61010a366004610a36565b6103d8565b60405161007b929190610abb565b60006001600160e01b0319821663099718b560e41b148061014e57506301ffc9a760e01b6001600160e01b03198316145b92915050565b606060006101656020840184610ae7565b90506000816001600160a01b031663f851a4406040518163ffffffff1660e01b8152600401602060405180830381865afa1580156101a7573d6000803e3d6000fd5b505050506040513d601f19601f820116820180604052508101906101cb9190610b04565b60408051600280825260608201909252919250816020015b6040805160a0810182526000808252602080830182905292820181905260608201819052608082015282526000199092019101816101e3579050506040805160a081019091529093508060018152602001836001600160a01b03168152602001826001600160a01b0316815260200160006001600160a01b03168152602001836001600160a01b031663f8a2c98e6040518163ffffffff1660e01b8152600401602060405180830381865afa1580156102a0573d6000803e3d6000fd5b505050506040513d601f19601f820116820180604052508101906102c49190610b21565b815250836000815181106102da576102da610b3a565b60209081029190910101526040805160a081019091528060018152602001866001600160a01b03168152602001836001600160a01b0316815260200160006001600160a01b03168152602001866001600160a01b0316630729d0546040518163ffffffff1660e01b8152600401602060405180830381865afa158015610364573d6000803e3d6000fd5b505050506040513d601f19601f820116820180604052508101906103889190610b21565b8152508360018151811061039e5761039e610b3a565b6020026020010181905250505092915050565b60606103d0604051806040016040528060608152602001606081525090565b935093915050565b60006103f7604051806040016040528060608152602001606081525090565b600061040584860186610ae7565b90506001600160a01b03811661043e57604051630849afa760e01b81526001600160a01b03821660048201526024015b60405180910390fd5b6104707f00000000000000000000000000000000000000000000000000000000000000006001600160a01b03166106db565b60405163485cc95560e01b81526001600160a01b03888116600483015283811660248301529194509084169063485cc95590604401600060405180830381600087803b1580156104bf57600080fd5b505af11580156104d3573d6000803e3d6000fd5b5060009250600291506104e39050565b60405190808252806020026020018201604052801561053c57816020015b6040805160a0810182526000808252602080830182905292820181905260608201819052608082015282526000199092019101816105015790505b506040805160a081019091529091508060008152602001856001600160a01b03168152602001836001600160a01b0316815260200160006001600160a01b03168152602001856001600160a01b031663f8a2c98e6040518163ffffffff1660e01b8152600401602060405180830381865afa1580156105bf573d6000803e3d6000fd5b505050506040513d601f19601f820116820180604052508101906105e39190610b21565b815250816000815181106105f9576105f9610b3a565b60209081029190910101526040805160a081019091528060008152602001886001600160a01b03168152602001856001600160a01b0316815260200160006001600160a01b03168152602001886001600160a01b0316630729d0546040518163ffffffff1660e01b8152600401602060405180830381865afa158015610683573d6000803e3d6000fd5b505050506040513d601f19601f820116820180604052508101906106a79190610b21565b815250816001815181106106bd576106bd610b3a565b60200260200101819052508083602001819052505050935093915050565b6000763d602d80600a3d3981f3363d3d373d3d3d363d730000008260601b60e81c176000526e5af43d82803e903d91602b57fd5bf38260781b17602052603760096000f090506001600160a01b0381166107705760405162461bcd60e51b8152602060048201526016602482015275115490cc4c4d8dce8818dc99585d194819985a5b195960521b6044820152606401610435565b919050565b60006020828403121561078757600080fd5b81356001600160e01b03198116811461079f57600080fd5b9392505050565b6001600160a01b03811681146107bb57600080fd5b50565b6000606082840312156107d057600080fd5b50919050565b600080604083850312156107e957600080fd5b82356107f4816107a6565b9150602083013567ffffffffffffffff81111561081057600080fd5b61081c858286016107be565b9150509250929050565b600081516003811061084857634e487b7160e01b600052602160045260246000fd5b8352506020818101516001600160a01b0390811691840191909152604080830151821690840152606080830151909116908301526080908101519082015260a00190565b6020808252825182820181905260009190848201906040850190845b818110156108c9576108bb838551610826565b9385019392506001016108a8565b50909695505050505050565b6000806000606084860312156108ea57600080fd5b83356108f5816107a6565b9250602084013561ffff8116811461090c57600080fd5b9150604084013567ffffffffffffffff81111561092857600080fd5b610934868287016107be565b9150509250925092565b805160408084528151908401819052600091602091908201906060860190845b818110156109835783516001600160a01b03168352928401929184019160010161095e565b50508483015186820387850152805180835290840192506000918401905b808310156109c6576109b4828551610826565b915084840193506001830192506109a1565b509695505050505050565b604081526000835180604084015260005b818110156109ff57602081870181015160608684010152016109e2565b50600060608285010152601f19601f820116830190506060838203016020840152610a2d606082018561093e565b95945050505050565b600080600060408486031215610a4b57600080fd5b8335610a56816107a6565b9250602084013567ffffffffffffffff80821115610a7357600080fd5b818601915086601f830112610a8757600080fd5b813581811115610a9657600080fd5b876020828501011115610aa857600080fd5b6020830194508093505050509250925092565b6001600160a01b0383168152604060208201819052600090610adf9083018461093e565b949350505050565b600060208284031215610af957600080fd5b813561079f816107a6565b600060208284031215610b1657600080fd5b815161079f816107a6565b600060208284031215610b3357600080fd5b5051919050565b634e487b7160e01b600052603260045260246000fdfea2646970667358221220184a12f3c517e17685ebeeddbd890d8eb911009e7569a705e0241fa7e994863264736f6c6343000811003360c06040526003608090815262302e3360e81b60a052609d9062000024908262000b47565b5060405162003c2138038062003c21833981016040819052620000479162000c13565b6040518060400160405280601581526020017f53796d62696f746963426f6e64696e67437572766500000000000000000000008152506040518060400160405280600381526020016253424360e81b81525082620493e0808484620000b1620008c560201b60201c565b620000bc3362000987565b609b620000ca838262000b47565b50609c620000d9828262000b47565b50506001641c35fedd1560601b0360be55506001646c3390ecc9605e1b0360bf556001640cf801476160611b0360c05560016431bdb23e1d605f1b0360c15560016502fb1d8fe083605b1b0360c25560016505b771955b37605a1b0360c3556001650af67a93bb5160591b0360c45560016515060c256cb360581b0360c5556001651428a2f98d7360581b0360c6556001654d515663970960561b0360c755600165944620b0e70f60551b0360c855600166011c592761c66760541b0360c95560016602214d10d014eb60531b0360ca55600166020ade36b7dbef60531b0360cb5560016603eab73b3bbfe360521b0360cc556001660782ee3593f6d760511b0360cd556001661ccf4b44bb4821604f1b0360ce5560016606e7f88ad8a77760511b0360cf5560016669f3d1c921891d604d1b0360d055600166cb2ff529eb71e5604c1b0360d155600166c2d415c3db974b604c1b0360d25560016702eb40f9f620fda7604a1b0360d35560016705990681d961a1eb60491b0360d455600167055e12902701414760491b0360d55560016714962dee9dc9764160471b0360d65560016704ef57b9b560fab560491b0360d75560016712ed7b32a58f552b60471b0360d8556001679131271922eaa60760441b0360d9556001678b380f3558668c4760441b0360da556001680215f77c045fbe885760421b0360db556001600160831b0360dc556001670f577eded5773a1160471b0360dd556001680eb5ec597592befbf5603f1b0360de556001681c35fedd14b861eb05603e1b0360df556001683619c87664579bc94b603d1b0360e05560016867c00a3b07ffc01fd7603c1b0360e155600168c6f6c8f8739773a7a5603b1b0360e255600168bec763f8209b7a72b1603b1b0360e35560016902dbb8caad9b7097b91b60391b0360e455600169057b3d49dda84556d6f760381b0360e555600169054183095b2c8ececf3160381b0360e6556001690a14517cc6b9457111ef60371b0360e75560016913545598e5c23276ccf160361b0360e8556001692511882c39c3adea96ff60351b0360e955600169471649d87199aa99075760341b0360ea557004429a21a029d4c1457cfbffffffffffff60eb55700415bc6d6fb7dd71af2cb3ffffffffffff60ec557003eab73b3bbfe282243ce1ffffffffffff60ed557003c1771ac9fb6b4c18e229ffffffffffff60ee55700399e96897690418f785257fffffffffff60ef55700373fc456c53bb779bf0ea9fffffffffff60f05570034f9e8e490c48e67e6ab8bfffffffffff60f15570032cbfd4a7adc790560b3337ffffffffff60f25570030b50570f6e5d2acca94613ffffffffff60f3557002eb40f9f620fda6b56c2861ffffffffff60f4557002cc8340ecb0d0f520a6af58ffffffffff60f5557002af09481380a0a35cf1ba02ffffffffff60f655700292c5bdd3b92ec810287b1b3fffffffff60f755700277abdcdab07d5a77ac6d6b9fffffffff60f85570025daf6654b1eaa55fd64df5efffffffff60f955700244c49c648baa98192dce88b7ffffffff60fa5570022ce03cd5619a311b2471268bffffffff60fb55700215f77c045fbe885654a44a0fffffffff60fc556001600160811b0360fd557001eaefdbdaaee7421fc4d3ede5ffffffff60fe557001d6bd8b2eb257df7e8ca57b09bfffffff60ff557001c35fedd14b861eb0443f7f133fffffff610100557001b0ce43b322bcde4a56e8ada5afffffff6101015570019f0028ec1fff007f5a195a39dfffffff6101025570018ded91f0e72ee74f49b15ba527ffffff6101035570017d8ec7f04136f4e5615fd41a63ffffff6101045570016ddc6556cdb84bdc8d12d22e6fffffff6101055570015ecf52776a1155b5bd8395814f7fffff6101065570015060c256cb23b3b3cc3754cf40ffffff610107557001428a2f98d728ae223ddab715be3fffff6101085570013545598e5c23276ccf0ede68034fffff610109557001288c4161ce1d6f54b7f61081194fffff61010a5570011c592761c666aa641d5a01a40f17ffff61010b55700110a688680a7530515f3e6e6cfdcdffff61010c557001056f1b5bedf75c6bcb2ce8aed428ffff61010d556ffaadceceeff8a0890f3875f008277fff61010e556ff05dc6b27edad306388a600f6ba0bfff61010f556fe67a5a25da41063de1495d5b18cdbfff610110556fdcff115b14eedde6fc3aa5353f2e4fff610111556fd3e7a3924312399f9aae2e0f868f8fff610112556fcb2ff529eb71e41582cccd5a1ee26fff610113556fc2d415c3db974ab32a51840c0b67edff610114556fbad03e7d883f69ad5b0a186184e06bff610115556fb320d03b2c343d4829abd6075f0cc5ff610116556fabc25204e02828d73c6e80bcdb1a95bf610117556fa4b16f74ee4bb2040a1ec6c15fbbf2df610118556f9deaf736ac1f569deb1b5ae3f36c130f610119556f976bd9952c7aa957f5937d790ef6503761011a556f9131271922eaa6064b73a22d0bd4f2bf61011b556f8b380f3558668c46c91c49a2f8e967b961011c556f857ddf0117efa215952912839f6473e661011d5561011e805463ffffffff191663ffffffff929092169190911790556200084a3383620009d9565b5050506101208290555061012180546001600160a01b0319166001600160a01b0384161790558061011f60006200087e3390565b6001600160a01b03166001600160a01b0316815260200190815260200160002054620008ab919062000c4f565b33600090815261011f60205260409020555062000c779050565b600054610100900460ff1615620009335760405162461bcd60e51b815260206004820152602760248201527f496e697469616c697a61626c653a20636f6e747261637420697320696e697469604482015266616c697a696e6760c81b60648201526084015b60405180910390fd5b60005460ff9081161462000985576000805460ff191660ff9081179091556040519081527f7f26b83ff96e1f2b6a682f133852f6798a09c465da95921460cefb38474024989060200160405180910390a15b565b609780546001600160a01b038381166001600160a01b0319831681179093556040519116919082907f8be0079c531659141344cd1fd0a4f28419497f9722a3daafe3b4186f6b6457e090600090a35050565b6001600160a01b03821662000a315760405162461bcd60e51b815260206004820152601f60248201527f45524332303a206d696e7420746f20746865207a65726f20616464726573730060448201526064016200092a565b80609a600082825462000a45919062000c4f565b90915550506001600160a01b0382166000818152609860209081526040808320805486019055518481527fddf252ad1be2c89b69c2b068fc378daa952ba7f163c4a11628f55a4df523b3ef910160405180910390a35050565b505050565b634e487b7160e01b600052604160045260246000fd5b600181811c9082168062000ace57607f821691505b60208210810362000aef57634e487b7160e01b600052602260045260246000fd5b50919050565b601f82111562000a9e57600081815260208120601f850160051c8101602086101562000b1e5750805b601f850160051c820191505b8181101562000b3f5782815560010162000b2a565b505050505050565b81516001600160401b0381111562000b635762000b6362000aa3565b62000b7b8162000b74845462000ab9565b8462000af5565b602080601f83116001811462000bb3576000841562000b9a5750858301515b600019600386901b1c1916600185901b17855562000b3f565b600085815260208120601f198616915b8281101562000be45788860151825594840194600190910190840162000bc3565b508582101562000c035787850151600019600388901b60f8161c191681555b5050505050600190811b01905550565b6000806040838503121562000c2757600080fd5b82516001600160a01b038116811462000c3f57600080fd5b6020939093015192949293505050565b8082018082111562000c7157634e487b7160e01b600052601160045260246000fd5b92915050565b612f9a8062000c876000396000f3fe608060405234801561001057600080fd5b50600436106101fb5760003560e01c806354fd4d501161011a578063a0712d68116100ad578063da12457a1161007c578063da12457a14610439578063dd62ed3e14610441578063f2fde38b14610454578063f851a44014610467578063f8a2c98e1461048357600080fd5b8063a0712d68146103f7578063a10954fe1461040a578063a457c2d714610413578063a9059cbb1461042657600080fd5b80638cf2b63e116100e95780638cf2b63e146103aa5780638da5cb5b146103cb57806395d89b41146103dc57806396343886146103e457600080fd5b806354fd4d501461035e57806370a0823114610366578063715018a61461038f5780637cbed3e01461039757600080fd5b806329a00e7c1161019257806341de68301161016157806341de68301461031457806342966c6814610323578063485cc9551461033857806349f9b0f71461034b57600080fd5b806329a00e7c146102ba578063313ce567146102cd57806339509351146102dc5780634162169f146102ef57600080fd5b80630d8f9f7f116101ce5780630d8f9f7f1461027657806315a250001461029757806318160ddd1461029f57806323b872dd146102a757600080fd5b806301ffc9a71461020057806306fdde0314610228578063095ea7b31461023d5780630c7d5cd814610250575b600080fd5b61021361020e366004612b96565b6104aa565b60405190151581526020015b60405180910390f35b6102306104e1565b60405161021f9190612bc7565b61021361024b366004612c2a565b610573565b61011e546102619063ffffffff1681565b60405163ffffffff909116815260200161021f565b610289610284366004612c56565b61058b565b60405190815260200161021f565b6102896105ac565b609a54610289565b6102136102b5366004612c6f565b61062e565b6102896102c8366004612cb0565b610652565b6040516012815260200161021f565b6102136102ea366004612c2a565b61075b565b6065546001600160a01b03165b6040516001600160a01b03909116815260200161021f565b600160405161021f9190612cf8565b610336610331366004612c56565b61077d565b005b610336610346366004612d20565b610854565b610289610359366004612cb0565b61098e565b610230610aa6565b610289610374366004612d59565b6001600160a01b031660009081526098602052604090205490565b610336610b34565b6102896103a5366004612c56565b610b48565b6102896103b8366004612d59565b61011f6020526000908152604090205481565b6097546001600160a01b03166102fc565b610230610b69565b6103366103f2366004612c56565b610b78565b610336610405366004612c56565b610bc5565b61012054610289565b610213610421366004612c2a565b610c98565b610213610434366004612c2a565b610d13565b610289610d21565b61028961044f366004612d20565b610d2c565b610336610462366004612d59565b610d57565b61011e546102fc9064010000000090046001600160a01b031681565b6102897f333faabe8d5b573697f548cb3885d6a81cd1e2ac87d1775bfec70a290e8e4d6081565b60006001600160e01b0319821663041de68360e41b14806104db57506301ffc9a760e01b6001600160e01b03198316145b92915050565b6060609b80546104f090612d76565b80601f016020809104026020016040519081016040528092919081815260200182805461051c90612d76565b80156105695780601f1061053e57610100808354040283529160200191610569565b820191906000526020600020905b81548152906001019060200180831161054c57829003601f168201915b5050505050905090565b600033610581818585610dd0565b5060019392505050565b60006104db610598610d21565b6101205461011e5463ffffffff1685610652565b61012054610121546040516370a0823160e01b8152306004820152600092916001600160a01b0316906370a0823190602401602060405180830381865afa1580156105fb573d6000803e3d6000fd5b505050506040513d601f19601f8201168201806040525081019061061f9190612db0565b6106299190612ddf565b905090565b60003361063c858285610ef4565b610647858585610f6e565b506001949350505050565b600080851180156106635750600084115b8015610675575060008363ffffffff16115b801561068a5750620f424063ffffffff841611155b6106cd5760405162461bcd60e51b815260206004820152600f60248201526e24b73b30b634b21034b7383aba399760891b60448201526064015b60405180910390fd5b816000036106dd57506000610753565b620f423f1963ffffffff84160161070a57836106f98387612df2565b6107039190612e1f565b9050610753565b600080806107188786612e33565b9050610729818888620f4240611119565b9093509150600060ff831661073e858b612df2565b901c905061074c8982612ddf565b9450505050505b949350505050565b60003361058181858561076e8383610d2c565b6107789190612e33565b610dd0565b600061078882611299565b33600090815261011f60205260409020549091506107a7908290612ddf565b33600090815261011f6020526040902055610120546107c7908290612ddf565b61012055610121546001600160a01b031663a9059cbb336040516001600160e01b031960e084901b1681526001600160a01b039091166004820152602481018490526044016020604051808303816000875af115801561082b573d6000803e3d6000fd5b505050506040513d601f19601f8201168201806040525081019061084f9190612e46565b505050565b600054610100900460ff16158080156108745750600054600160ff909116105b8061088e5750303b15801561088e575060005460ff166001145b6108f15760405162461bcd60e51b815260206004820152602e60248201527f496e697469616c697a61626c653a20636f6e747261637420697320616c72656160448201526d191e481a5b9a5d1a585b1a5e995960921b60648201526084016106c4565b6000805460ff191660011790558015610914576000805461ff0019166101001790555b61091d836113a8565b61011e8054640100000000600160c01b0319166401000000006001600160a01b03851602179055801561084f576000805461ff0019169055604051600181527f7f26b83ff96e1f2b6a682f133852f6798a09c465da95921460cefb38474024989060200160405180910390a1505050565b6000808511801561099f5750600084115b80156109b1575060008363ffffffff16115b80156109c65750620f424063ffffffff841611155b80156109d25750848211155b610a105760405162461bcd60e51b815260206004820152600f60248201526e24b73b30b634b21034b7383aba399760891b60448201526064016106c4565b81600003610a2057506000610753565b848203610a2e575082610753565b620f423f1963ffffffff841601610a4a57846106f98386612df2565b60008080610a588589612ddf565b9050610a698882620f424089611119565b90935091506000610a7a8489612df2565b905060ff831688901b84610a8e8284612ddf565b610a989190612e1f565b9a9950505050505050505050565b609d8054610ab390612d76565b80601f0160208091040260200160405190810160405280929190818152602001828054610adf90612d76565b8015610b2c5780601f10610b0157610100808354040283529160200191610b2c565b820191906000526020600020905b815481529060010190602001808311610b0f57829003601f168201915b505050505081565b610b3c6113d8565b610b466000611432565b565b60006104db610b55610d21565b6101205461011e5463ffffffff168561098e565b6060609c80546104f090612d76565b610b823382611484565b604080513381526020810183905260008183015290517f23ff0e75edf108e3d0392d92e13e8c8a868ef19001bd49f9e94876dc46dff87f9181900360600190a150565b33600090815261011f6020526040902054610be1908290612e33565b33600081815261011f60209081526040808320949094556101215484516323b872dd60e01b815260048101949094523060248501526044840186905293516001600160a01b03909416936323b872dd936064808201949183900301908290875af1158015610c53573d6000803e3d6000fd5b505050506040513d601f19601f82011682018060405250810190610c779190612e46565b50610c81816115b8565b508061012054610c919190612e33565b6101205550565b60003381610ca68286610d2c565b905083811015610d065760405162461bcd60e51b815260206004820152602560248201527f45524332303a2064656372656173656420616c6c6f77616e63652062656c6f77604482015264207a65726f60d81b60648201526084016106c4565b6106478286868403610dd0565b600033610581818585610f6e565b6000610629609a5490565b6001600160a01b03918216600090815260996020908152604080832093909416825291909152205490565b610d5f6113d8565b6001600160a01b038116610dc45760405162461bcd60e51b815260206004820152602660248201527f4f776e61626c653a206e6577206f776e657220697320746865207a65726f206160448201526564647265737360d01b60648201526084016106c4565b610dcd81611432565b50565b6001600160a01b038316610e325760405162461bcd60e51b8152602060048201526024808201527f45524332303a20617070726f76652066726f6d20746865207a65726f206164646044820152637265737360e01b60648201526084016106c4565b6001600160a01b038216610e935760405162461bcd60e51b815260206004820152602260248201527f45524332303a20617070726f766520746f20746865207a65726f206164647265604482015261737360f01b60648201526084016106c4565b6001600160a01b0383811660008181526099602090815260408083209487168084529482529182902085905590518481527f8c5be1e5ebec7d5bd14f71427d1e84f3dd0314c0f7b2291e5b200ac8c7c3b925910160405180910390a3505050565b6000610f008484610d2c565b90506000198114610f685781811015610f5b5760405162461bcd60e51b815260206004820152601d60248201527f45524332303a20696e73756666696369656e7420616c6c6f77616e636500000060448201526064016106c4565b610f688484848403610dd0565b50505050565b6001600160a01b038316610fd25760405162461bcd60e51b815260206004820152602560248201527f45524332303a207472616e736665722066726f6d20746865207a65726f206164604482015264647265737360d81b60648201526084016106c4565b6001600160a01b0382166110345760405162461bcd60e51b815260206004820152602360248201527f45524332303a207472616e7366657220746f20746865207a65726f206164647260448201526265737360e81b60648201526084016106c4565b6001600160a01b038316600090815260986020526040902054818110156110ac5760405162461bcd60e51b815260206004820152602660248201527f45524332303a207472616e7366657220616d6f756e7420657863656564732062604482015265616c616e636560d01b60648201526084016106c4565b6001600160a01b0380851660008181526098602052604080822086860390559286168082529083902080548601905591517fddf252ad1be2c89b69c2b068fc378daa952ba7f163c4a11628f55a4df523b3ef9061110c9086815260200190565b60405180910390a3610f68565b600080600160811b861061116f5760405162461bcd60e51b815260206004820152601860248201527f626173654e2065786365656473206d61782076616c75652e000000000000000060448201526064016106c4565b848610156111bf5760405162461bcd60e51b815260206004820152601c60248201527f4261736573203c203120617265206e6f7420737570706f727465642e0000000060448201526064016106c4565b600080866111d16001607f1b8a612df2565b6111db9190612e1f565b905070015bf0a8b1457695355fb8ac404e7a79e3811015611206576111ff8161165e565b9150611212565b61120f81611bd7565b91505b60008563ffffffff168763ffffffff168461122d9190612df2565b6112379190612e1f565b9050600160831b81101561125c5761124e81611cc6565b607f94509450505050611290565b6000611267826122f1565b905061128361127782607f612e68565b60ff1683901c826123b6565b9550935061129092505050565b94509492505050565b60008082116112ea5760405162461bcd60e51b815260206004820152601860248201527f416d6f756e74206d757374206265206e6f6e2d7a65726f2e000000000000000060448201526064016106c4565b336000908152609860205260409020548211156113495760405162461bcd60e51b815260206004820152601c60248201527f496e73756666696369656e7420746f6b656e7320746f206275726e2e0000000060448201526064016106c4565b600061135483610b48565b90506113603384611484565b60408051338152602081018590529081018290527f23ff0e75edf108e3d0392d92e13e8c8a868ef19001bd49f9e94876dc46dff87f906060015b60405180910390a192915050565b600054610100900460ff166113cf5760405162461bcd60e51b81526004016106c490612e81565b610dcd81612a1d565b6097546001600160a01b03163314610b465760405162461bcd60e51b815260206004820181905260248201527f4f776e61626c653a2063616c6c6572206973206e6f7420746865206f776e657260448201526064016106c4565b609780546001600160a01b038381166001600160a01b0319831681179093556040519116919082907f8be0079c531659141344cd1fd0a4f28419497f9722a3daafe3b4186f6b6457e090600090a35050565b6001600160a01b0382166114e45760405162461bcd60e51b815260206004820152602160248201527f45524332303a206275726e2066726f6d20746865207a65726f206164647265736044820152607360f81b60648201526084016106c4565b6001600160a01b038216600090815260986020526040902054818110156115585760405162461bcd60e51b815260206004820152602260248201527f45524332303a206275726e20616d6f756e7420657863656564732062616c616e604482015261636560f01b60648201526084016106c4565b6001600160a01b03831660008181526098602090815260408083208686039055609a80548790039055518581529192917fddf252ad1be2c89b69c2b068fc378daa952ba7f163c4a11628f55a4df523b3ef910160405180910390a3505050565b60008082116116095760405162461bcd60e51b815260206004820152601960248201527f4465706f736974206d757374206265206e6f6e2d7a65726f2e0000000000000060448201526064016106c4565b60006116148361058b565b90506116203382612a66565b60408051338152602081018390529081018490527f25b428dfde728ccfaddad7e29e4ac23c24ed7fd1a6e3e3f91894a9a073f5dfff9060600161139a565b6000808080806fd3094c70f034de4b96ff7d5b6f99fcd886106116b7576116896001607e1b85612e33565b93506fd3094c70f034de4b96ff7d5b6f99fcd86116aa6001607f1b88612df2565b6116b49190612e1f565b95505b6fa45af1e1f40c333b3de1db4dd55f29a7861061170a576116dc6001607d1b85612e33565b93506fa45af1e1f40c333b3de1db4dd55f29a76116fd6001607f1b88612df2565b6117079190612e1f565b95505b6f910b022db7ae67ce76b441c27035c6a1861061175d5761172f6001607c1b85612e33565b93506f910b022db7ae67ce76b441c27035c6a16117506001607f1b88612df2565b61175a9190612e1f565b95505b6f88415abbe9a76bead8d00cf112e4d4a886106117b0576117826001607b1b85612e33565b93506f88415abbe9a76bead8d00cf112e4d4a86117a36001607f1b88612df2565b6117ad9190612e1f565b95505b6f84102b00893f64c705e841d5d4064bd38610611803576117d56001607a1b85612e33565b93506f84102b00893f64c705e841d5d4064bd36117f66001607f1b88612df2565b6118009190612e1f565b95505b6f8204055aaef1c8bd5c3259f4822735a2861061185657611828600160791b85612e33565b93506f8204055aaef1c8bd5c3259f4822735a26118496001607f1b88612df2565b6118539190612e1f565b95505b6f810100ab00222d861931c15e39b44e9986106118a95761187b600160781b85612e33565b93506f810100ab00222d861931c15e39b44e9961189c6001607f1b88612df2565b6118a69190612e1f565b95505b6f808040155aabbbe9451521693554f73386106118fc576118ce600160771b85612e33565b93506f808040155aabbbe9451521693554f7336118ef6001607f1b88612df2565b6118f99190612e1f565b95505b61190a6001607f1b87612ddf565b92508291506001607f1b61191e8380612df2565b6119289190612e1f565b9050600160801b6119398482612ddf565b6119439084612df2565b61194d9190612e1f565b6119579085612e33565b93506001607f1b6119688284612df2565b6119729190612e1f565b9150600160811b611993846faaaaaaaaaaaaaaaaaaaaaaaaaaaaaaaa612ddf565b61199d9084612df2565b6119a79190612e1f565b6119b19085612e33565b93506001607f1b6119c28284612df2565b6119cc9190612e1f565b9150600360801b6119ed846f99999999999999999999999999999999612ddf565b6119f79084612df2565b611a019190612e1f565b611a0b9085612e33565b93506001607f1b611a1c8284612df2565b611a269190612e1f565b9150600160821b611a47846f92492492492492492492492492492492612ddf565b611a519084612df2565b611a5b9190612e1f565b611a659085612e33565b93506001607f1b611a768284612df2565b611a809190612e1f565b9150600560801b611aa1846f8e38e38e38e38e38e38e38e38e38e38e612ddf565b611aab9084612df2565b611ab59190612e1f565b611abf9085612e33565b93506001607f1b611ad08284612df2565b611ada9190612e1f565b9150600360811b611afb846f8ba2e8ba2e8ba2e8ba2e8ba2e8ba2e8b612ddf565b611b059084612df2565b611b0f9190612e1f565b611b199085612e33565b93506001607f1b611b2a8284612df2565b611b349190612e1f565b9150600760801b611b55846f89d89d89d89d89d89d89d89d89d89d89612ddf565b611b5f9084612df2565b611b699190612e1f565b611b739085612e33565b93506001607f1b611b848284612df2565b611b8e9190612e1f565b9150600160831b611baf846f88888888888888888888888888888888612ddf565b611bb99084612df2565b611bc39190612e1f565b611bcd9085612e33565b9695505050505050565b60008082600160801b8110611c1c576000611bfe611bf96001607f1b84612e1f565b612b27565b60ff811692831c92909150611c18906001607f1b90612df2565b9250505b6001607f1b811115611c9157607f5b60ff811615611c8f576001607f1b611c438380612df2565b611c4d9190612e1f565b9150600160801b8210611c7f57600191821c91611c6a9082612e68565b60ff166001901b83611c7c9190612e33565b92505b611c8881612ecc565b9050611c2b565b505b6f05b9de1d10bf4103d647b0955897ba80611cbc6f03f80fe03f80fe03f80fe03f80fe03f884612df2565b6107539190612e1f565b6000808080611cd96001607c1b86612ee9565b91508190506001607f1b611ced8280612df2565b611cf79190612e1f565b9050611d0b816710e1b3be415a0000612df2565b611d159084612e33565b92506001607f1b611d268383612df2565b611d309190612e1f565b9050611d44816705a0913f6b1e0000612df2565b611d4e9084612e33565b92506001607f1b611d5f8383612df2565b611d699190612e1f565b9050611d7d81670168244fdac78000612df2565b611d879084612e33565b92506001607f1b611d988383612df2565b611da29190612e1f565b9050611db581664807432bc18000612df2565b611dbf9084612e33565b92506001607f1b611dd08383612df2565b611dda9190612e1f565b9050611ded81660c0135dca04000612df2565b611df79084612e33565b92506001607f1b611e088383612df2565b611e129190612e1f565b9050611e25816601b707b1cdc000612df2565b611e2f9084612e33565b92506001607f1b611e408383612df2565b611e4a9190612e1f565b9050611e5c816536e0f639b800612df2565b611e669084612e33565b92506001607f1b611e778383612df2565b611e819190612e1f565b9050611e9381650618fee9f800612df2565b611e9d9084612e33565b92506001607f1b611eae8383612df2565b611eb89190612e1f565b9050611ec981649c197dcc00612df2565b611ed39084612e33565b92506001607f1b611ee48383612df2565b611eee9190612e1f565b9050611eff81640e30dce400612df2565b611f099084612e33565b92506001607f1b611f1a8383612df2565b611f249190612e1f565b9050611f358164012ebd1300612df2565b611f3f9084612e33565b92506001607f1b611f508383612df2565b611f5a9190612e1f565b9050611f6a816317499f00612df2565b611f749084612e33565b92506001607f1b611f858383612df2565b611f8f9190612e1f565b9050611f9f816301a9d480612df2565b611fa99084612e33565b92506001607f1b611fba8383612df2565b611fc49190612e1f565b9050611fd381621c6380612df2565b611fdd9084612e33565b92506001607f1b611fee8383612df2565b611ff89190612e1f565b9050612007816201c638612df2565b6120119084612e33565b92506001607f1b6120228383612df2565b61202c9190612e1f565b905061203a81611ab8612df2565b6120449084612e33565b92506001607f1b6120558383612df2565b61205f9190612e1f565b905061206d8161017c612df2565b6120779084612e33565b92506001607f1b6120888383612df2565b6120929190612e1f565b905061209f816014612df2565b6120a99084612e33565b92506001607f1b6120ba8383612df2565b6120c49190612e1f565b90506120d1816001612df2565b6120db9084612e33565b92506001607f1b826120f56721c3677c82b4000086612e1f565b6120ff9190612e33565b6121099190612e33565b92506001607c1b8516156121515770018ebef9eac820ae8682b9793ac6d1e776612144847001c3d6a24ed82218787d624d3e5eba95f9612df2565b61214e9190612e1f565b92505b6001607d1b851615612197577001368b2fc6f9609fe7aceb46aa619baed461218a8470018ebef9eac820ae8682b9793ac6d1e778612df2565b6121949190612e1f565b92505b6001607e1b8516156121dc576fbc5ab1b16779be3575bd8f0520a9f21f6121cf847001368b2fc6f9609fe7aceb46aa619baed5612df2565b6121d99190612e1f565b92505b6001607f1b851615612220576f454aaa8efe072e7f6ddbab84b40a55c9612213846fbc5ab1b16779be3575bd8f0520a9f21e612df2565b61221d9190612e1f565b92505b600160801b851615612264576f0960aadc109e7a3bf4578099615711ea612257846f454aaa8efe072e7f6ddbab84b40a55c5612df2565b6122619190612e1f565b92505b600160811b8516156122a7576e2bf84208204f5977f9a8cf01fdce3d61229a846f0960aadc109e7a3bf4578099615711d7612df2565b6122a49190612e1f565b92505b600160821b8516156122e8576d03c6ab775dd0b95b4cbee7e65d116122db846e2bf84208204f5977f9a8cf01fdc307612df2565b6122e59190612e1f565b92505b50909392505050565b60006020607f5b60ff8116612307836001612efd565b60ff16101561235a576000600261231e8385612efd565b6123289190612f16565b905084609e8260ff166080811061234157612341612f38565b01541061235057809250612354565b8091505b506122f8565b83609e8260ff166080811061237157612371612f38565b01541061237f579392505050565b83609e8360ff166080811061239657612396612f38565b0154106123a4575092915050565b6123ac612f4e565b5060009392505050565b6000828160ff84166123c88380612df2565b901c91506123e6826f03442c4e6074a82f1797f72ac0000000612df2565b6123f09082612e33565b905060ff84166124008684612df2565b901c915061241e826f0116b96f757c380fb287fd0e40000000612df2565b6124289082612e33565b905060ff84166124388684612df2565b901c9150612455826e45ae5bdd5f0e03eca1ff4390000000612df2565b61245f9082612e33565b905060ff841661246f8684612df2565b901c915061248c826e0defabf91302cd95b9ffda50000000612df2565b6124969082612e33565b905060ff84166124a68684612df2565b901c91506124c3826e02529ca9832b22439efff9b8000000612df2565b6124cd9082612e33565b905060ff84166124dd8684612df2565b901c91506124f9826d54f1cf12bd04e516b6da88000000612df2565b6125039082612e33565b905060ff84166125138684612df2565b901c915061252f826d0a9e39e257a09ca2d6db51000000612df2565b6125399082612e33565b905060ff84166125498684612df2565b901c9150612565826d012e066e7b839fa050c309000000612df2565b61256f9082612e33565b905060ff841661257f8684612df2565b901c915061259a826c1e33d7d926c329a1ad1a800000612df2565b6125a49082612e33565b905060ff84166125b48684612df2565b901c91506125cf826c02bee513bdb4a6b19b5f800000612df2565b6125d99082612e33565b905060ff84166125e98684612df2565b901c9150612603826b3a9316fa79b88eccf2a00000612df2565b61260d9082612e33565b905060ff841661261d8684612df2565b901c9150612637826b048177ebe1fa812375200000612df2565b6126419082612e33565b905060ff84166126518684612df2565b901c915061266a826a5263fe90242dcbacf00000612df2565b6126749082612e33565b905060ff84166126848684612df2565b901c915061269d826a057e22099c030d94100000612df2565b6126a79082612e33565b905060ff84166126b78684612df2565b901c91506126cf826957e22099c030d9410000612df2565b6126d99082612e33565b905060ff84166126e98684612df2565b901c91506127018269052b6b54569976310000612df2565b61270b9082612e33565b905060ff841661271b8684612df2565b901c915061273282684985f67696bf748000612df2565b61273c9082612e33565b905060ff841661274c8684612df2565b901c9150612763826803dea12ea99e498000612df2565b61276d9082612e33565b905060ff841661277d8684612df2565b901c9150612793826731880f2214b6e000612df2565b61279d9082612e33565b905060ff84166127ad8684612df2565b901c91506127c38267025bcff56eb36000612df2565b6127cd9082612e33565b905060ff84166127dd8684612df2565b901c91506127f282661b722e10ab1000612df2565b6127fc9082612e33565b905060ff841661280c8684612df2565b901c9150612821826601317c70077000612df2565b61282b9082612e33565b905060ff841661283b8684612df2565b901c915061284f82650cba84aafa00612df2565b6128599082612e33565b905060ff84166128698684612df2565b901c915061287c826482573a0a00612df2565b6128869082612e33565b905060ff84166128968684612df2565b901c91506128a9826405035ad900612df2565b6128b39082612e33565b905060ff84166128c38684612df2565b901c91506128d582632f881b00612df2565b6128df9082612e33565b905060ff84166128ef8684612df2565b901c9150612901826301b29340612df2565b61290b9082612e33565b905060ff841661291b8684612df2565b901c915061292c82620efc40612df2565b6129369082612e33565b905060ff84166129468684612df2565b901c915061295682617fe0612df2565b6129609082612e33565b905060ff84166129708684612df2565b901c915061298082610420612df2565b61298a9082612e33565b905060ff841661299a8684612df2565b901c91506129a9826021612df2565b6129b39082612e33565b905060ff84166129c38684612df2565b901c91506129d2826001612df2565b6129dc9082612e33565b9050600160ff85161b85612a006f0688589cc0e9505e2f2fee558000000084612e1f565b612a0a9190612e33565b612a149190612e33565b95945050505050565b600054610100900460ff16612a445760405162461bcd60e51b81526004016106c490612e81565b606580546001600160a01b0319166001600160a01b0392909216919091179055565b6001600160a01b038216612abc5760405162461bcd60e51b815260206004820152601f60248201527f45524332303a206d696e7420746f20746865207a65726f20616464726573730060448201526064016106c4565b80609a6000828254612ace9190612e33565b90915550506001600160a01b0382166000818152609860209081526040808320805486019055518481527fddf252ad1be2c89b69c2b068fc378daa952ba7f163c4a11628f55a4df523b3ef910160405180910390a35050565b60008082610100811015612b5b575b6001811115612b5657600190811c90612b4f9083612efd565b9150612b36565b612b8f565b60805b60ff811615612b8d57600160ff82161b8210612b82579182179160ff81169190911c905b60011c607f16612b5e565b505b5092915050565b600060208284031215612ba857600080fd5b81356001600160e01b031981168114612bc057600080fd5b9392505050565b600060208083528351808285015260005b81811015612bf457858101830151858201604001528201612bd8565b506000604082860101526040601f19601f8301168501019250505092915050565b6001600160a01b0381168114610dcd57600080fd5b60008060408385031215612c3d57600080fd5b8235612c4881612c15565b946020939093013593505050565b600060208284031215612c6857600080fd5b5035919050565b600080600060608486031215612c8457600080fd5b8335612c8f81612c15565b92506020840135612c9f81612c15565b929592945050506040919091013590565b60008060008060808587031215612cc657600080fd5b8435935060208501359250604085013563ffffffff81168114612ce857600080fd5b9396929550929360600135925050565b6020810160038310612d1a57634e487b7160e01b600052602160045260246000fd5b91905290565b60008060408385031215612d3357600080fd5b8235612d3e81612c15565b91506020830135612d4e81612c15565b809150509250929050565b600060208284031215612d6b57600080fd5b8135612bc081612c15565b600181811c90821680612d8a57607f821691505b602082108103612daa57634e487b7160e01b600052602260045260246000fd5b50919050565b600060208284031215612dc257600080fd5b5051919050565b634e487b7160e01b600052601160045260246000fd5b818103818111156104db576104db612dc9565b80820281158282048414176104db576104db612dc9565b634e487b7160e01b600052601260045260246000fd5b600082612e2e57612e2e612e09565b500490565b808201808211156104db576104db612dc9565b600060208284031215612e5857600080fd5b81518015158114612bc057600080fd5b60ff82811682821603908111156104db576104db612dc9565b6020808252602b908201527f496e697469616c697a61626c653a20636f6e7472616374206973206e6f74206960408201526a6e697469616c697a696e6760a81b606082015260800190565b600060ff821680612edf57612edf612dc9565b6000190192915050565b600082612ef857612ef8612e09565b500690565b60ff81811683821601908111156104db576104db612dc9565b600060ff831680612f2957612f29612e09565b8060ff84160491505092915050565b634e487b7160e01b600052603260045260246000fd5b634e487b7160e01b600052600160045260246000fdfea264697066735822122017bbabf3bdbb1aa3dbfd88b74c0d42356bd8c4acd6b0bd0dca745d0f70f795dc64736f6c63430008110033",
    "linkReferences": {}
  },
  "methodIdentifiers": {
    "implementation()": "5c60da1b",
    "prepareInstallation(address,bytes)": "f10832f1",
    "prepareUninstallation(address,(address,address[],bytes))": "9cb0a124",
    "prepareUpdate(address,uint16,(address,address[],bytes))": "a8a9c29e",
    "supportsInterface(bytes4)": "01ffc9a7"
  },
  "id": 54
}