{
  "abi": [
    {
      "inputs": [],
      "stateMutability": "nonpayable",
      "type": "constructor"
    },
    {
      "inputs": [
        {
          "internalType": "address",
          "name": "admin",
          "type": "address"
        }
      ],
      "name": "AdminAddressInvalid",
      "type": "error"
    },
    {
      "inputs": [],
      "name": "implementation",
      "outputs": [
        {
          "internalType": "address",
          "name": "",
          "type": "address"
        }
      ],
      "stateMutability": "view",
      "type": "function"
    },
    {
      "inputs": [
        {
          "internalType": "address",
          "name": "_dao",
          "type": "address"
        },
        {
          "internalType": "bytes",
          "name": "_data",
          "type": "bytes"
        }
      ],
      "name": "prepareInstallation",
      "outputs": [
        {
          "internalType": "address",
          "name": "plugin",
          "type": "address"
        },
        {
          "components": [
            {
              "internalType": "address[]",
              "name": "helpers",
              "type": "address[]"
            },
            {
              "components": [
                {
                  "internalType": "enum PermissionLib.Operation",
                  "name": "operation",
                  "type": "uint8"
                },
                {
                  "internalType": "address",
                  "name": "where",
                  "type": "address"
                },
                {
                  "internalType": "address",
                  "name": "who",
                  "type": "address"
                },
                {
                  "internalType": "address",
                  "name": "condition",
                  "type": "address"
                },
                {
                  "internalType": "bytes32",
                  "name": "permissionId",
                  "type": "bytes32"
                }
              ],
              "internalType": "struct PermissionLib.MultiTargetPermission[]",
              "name": "permissions",
              "type": "tuple[]"
            }
          ],
          "internalType": "struct IPluginSetup.PreparedSetupData",
          "name": "preparedSetupData",
          "type": "tuple"
        }
      ],
      "stateMutability": "nonpayable",
      "type": "function"
    },
    {
      "inputs": [
        {
          "internalType": "address",
          "name": "_dao",
          "type": "address"
        },
        {
          "components": [
            {
              "internalType": "address",
              "name": "plugin",
              "type": "address"
            },
            {
              "internalType": "address[]",
              "name": "currentHelpers",
              "type": "address[]"
            },
            {
              "internalType": "bytes",
              "name": "data",
              "type": "bytes"
            }
          ],
          "internalType": "struct IPluginSetup.SetupPayload",
          "name": "_payload",
          "type": "tuple"
        }
      ],
      "name": "prepareUninstallation",
      "outputs": [
        {
          "components": [
            {
              "internalType": "enum PermissionLib.Operation",
              "name": "operation",
              "type": "uint8"
            },
            {
              "internalType": "address",
              "name": "where",
              "type": "address"
            },
            {
              "internalType": "address",
              "name": "who",
              "type": "address"
            },
            {
              "internalType": "address",
              "name": "condition",
              "type": "address"
            },
            {
              "internalType": "bytes32",
              "name": "permissionId",
              "type": "bytes32"
            }
          ],
          "internalType": "struct PermissionLib.MultiTargetPermission[]",
          "name": "permissions",
          "type": "tuple[]"
        }
      ],
      "stateMutability": "view",
      "type": "function"
    },
    {
      "inputs": [
        {
          "internalType": "address",
          "name": "_dao",
          "type": "address"
        },
        {
          "internalType": "uint16",
          "name": "_currentBuild",
          "type": "uint16"
        },
        {
          "components": [
            {
              "internalType": "address",
              "name": "plugin",
              "type": "address"
            },
            {
              "internalType": "address[]",
              "name": "currentHelpers",
              "type": "address[]"
            },
            {
              "internalType": "bytes",
              "name": "data",
              "type": "bytes"
            }
          ],
          "internalType": "struct IPluginSetup.SetupPayload",
          "name": "_payload",
          "type": "tuple"
        }
      ],
      "name": "prepareUpdate",
      "outputs": [
        {
          "internalType": "bytes",
          "name": "initData",
          "type": "bytes"
        },
        {
          "components": [
            {
              "internalType": "address[]",
              "name": "helpers",
              "type": "address[]"
            },
            {
              "components": [
                {
                  "internalType": "enum PermissionLib.Operation",
                  "name": "operation",
                  "type": "uint8"
                },
                {
                  "internalType": "address",
                  "name": "where",
                  "type": "address"
                },
                {
                  "internalType": "address",
                  "name": "who",
                  "type": "address"
                },
                {
                  "internalType": "address",
                  "name": "condition",
                  "type": "address"
                },
                {
                  "internalType": "bytes32",
                  "name": "permissionId",
                  "type": "bytes32"
                }
              ],
              "internalType": "struct PermissionLib.MultiTargetPermission[]",
              "name": "permissions",
              "type": "tuple[]"
            }
          ],
          "internalType": "struct IPluginSetup.PreparedSetupData",
          "name": "preparedSetupData",
          "type": "tuple"
        }
      ],
      "stateMutability": "nonpayable",
      "type": "function"
    },
    {
      "inputs": [
        {
          "internalType": "bytes4",
          "name": "_interfaceId",
          "type": "bytes4"
        }
      ],
      "name": "supportsInterface",
      "outputs": [
        {
          "internalType": "bool",
          "name": "",
          "type": "bool"
        }
      ],
      "stateMutability": "view",
      "type": "function"
    }
  ],
  "bytecode": {
    "object": "0x60a060405234801561001057600080fd5b5060405161001d9061004b565b604051809103906000f080158015610039573d6000803e3d6000fd5b506001600160a01b0316608052610058565b61400f80610ca583390190565b608051610c2c61007960003960008181609101526104510152610c2c6000f3fe608060405234801561001057600080fd5b50600436106100575760003560e01c806301ffc9a71461005c5780635c60da1b146100845780639cb0a124146100bb578063a8a9c29e146100db578063f10832f1146100fc575b600080fd5b61006f61006a3660046107aa565b61011d565b60405190151581526020015b60405180910390f35b6040516001600160a01b037f000000000000000000000000000000000000000000000000000000000000000016815260200161007b565b6100ce6100c936600461080b565b610154565b60405161007b91906108c1565b6100ee6100e936600461090a565b6103b1565b60405161007b929190610a06565b61010f61010a366004610a6b565b6103d8565b60405161007b929190610af0565b60006001600160e01b0319821663099718b560e41b148061014e57506301ffc9a760e01b6001600160e01b03198316145b92915050565b606060006101656020840184610b1c565b90506000816001600160a01b031663f851a4406040518163ffffffff1660e01b8152600401602060405180830381865afa1580156101a7573d6000803e3d6000fd5b505050506040513d601f19601f820116820180604052508101906101cb9190610b39565b60408051600280825260608201909252919250816020015b6040805160a0810182526000808252602080830182905292820181905260608201819052608082015282526000199092019101816101e3579050506040805160a081019091529093508060018152602001836001600160a01b03168152602001826001600160a01b0316815260200160006001600160a01b03168152602001836001600160a01b031663f8a2c98e6040518163ffffffff1660e01b8152600401602060405180830381865afa1580156102a0573d6000803e3d6000fd5b505050506040513d601f19601f820116820180604052508101906102c49190610b56565b815250836000815181106102da576102da610b6f565b60209081029190910101526040805160a081019091528060018152602001866001600160a01b03168152602001836001600160a01b0316815260200160006001600160a01b03168152602001866001600160a01b0316630729d0546040518163ffffffff1660e01b8152600401602060405180830381865afa158015610364573d6000803e3d6000fd5b505050506040513d601f19601f820116820180604052508101906103889190610b56565b8152508360018151811061039e5761039e610b6f565b6020026020010181905250505092915050565b60606103d0604051806040016040528060608152602001606081525090565b935093915050565b60006103f7604051806040016040528060608152602001606081525090565b600080808080610409888a018a610b85565b9398509196509450925090506001600160a01b03851661044c57604051630849afa760e01b81526001600160a01b03861660048201526024015b60405180910390fd5b61047e7f00000000000000000000000000000000000000000000000000000000000000006001600160a01b0316610710565b6040516347455b4f60e11b81526001600160a01b038c81166004830152878116602483015286811660448301526064820186905263ffffffff8516608483015283811660a483015291985090881690638e8ab69e9060c401600060405180830381600087803b1580156104f057600080fd5b505af1158015610504573d6000803e3d6000fd5b5060009250600291506105149050565b60405190808252806020026020018201604052801561056d57816020015b6040805160a0810182526000808252602080830182905292820181905260608201819052608082015282526000199092019101816105325790505b506040805160a081019091529091508060008152602001896001600160a01b03168152602001876001600160a01b0316815260200160006001600160a01b03168152602001896001600160a01b031663f8a2c98e6040518163ffffffff1660e01b8152600401602060405180830381865afa1580156105f0573d6000803e3d6000fd5b505050506040513d601f19601f820116820180604052508101906106149190610b56565b8152508160008151811061062a5761062a610b6f565b60209081029190910101526040805160a0810190915280600081526020018c6001600160a01b03168152602001896001600160a01b0316815260200160006001600160a01b031681526020018c6001600160a01b0316630729d0546040518163ffffffff1660e01b8152600401602060405180830381865afa1580156106b4573d6000803e3d6000fd5b505050506040513d601f19601f820116820180604052508101906106d89190610b56565b815250816001815181106106ee576106ee610b6f565b6020026020010181905250808760200181905250505050505050935093915050565b6000763d602d80600a3d3981f3363d3d373d3d3d363d730000008260601b60e81c176000526e5af43d82803e903d91602b57fd5bf38260781b17602052603760096000f090506001600160a01b0381166107a55760405162461bcd60e51b8152602060048201526016602482015275115490cc4c4d8dce8818dc99585d194819985a5b195960521b6044820152606401610443565b919050565b6000602082840312156107bc57600080fd5b81356001600160e01b0319811681146107d457600080fd5b9392505050565b6001600160a01b03811681146107f057600080fd5b50565b60006060828403121561080557600080fd5b50919050565b6000806040838503121561081e57600080fd5b8235610829816107db565b9150602083013567ffffffffffffffff81111561084557600080fd5b610851858286016107f3565b9150509250929050565b600081516003811061087d57634e487b7160e01b600052602160045260246000fd5b8352506020818101516001600160a01b0390811691840191909152604080830151821690840152606080830151909116908301526080908101519082015260a00190565b6020808252825182820181905260009190848201906040850190845b818110156108fe576108f083855161085b565b9385019392506001016108dd565b50909695505050505050565b60008060006060848603121561091f57600080fd5b833561092a816107db565b9250602084013561ffff8116811461094157600080fd5b9150604084013567ffffffffffffffff81111561095d57600080fd5b610969868287016107f3565b9150509250925092565b805160408084528151908401819052600091602091908201906060860190845b818110156109b85783516001600160a01b031683529284019291840191600101610993565b50508483015186820387850152805180835290840192506000918401905b808310156109fb576109e982855161085b565b915084840193506001830192506109d6565b509695505050505050565b604081526000835180604084015260005b81811015610a345760208187018101516060868401015201610a17565b50600060608285010152601f19601f820116830190506060838203016020840152610a626060820185610973565b95945050505050565b600080600060408486031215610a8057600080fd5b8335610a8b816107db565b9250602084013567ffffffffffffffff80821115610aa857600080fd5b818601915086601f830112610abc57600080fd5b813581811115610acb57600080fd5b876020828501011115610add57600080fd5b6020830194508093505050509250925092565b6001600160a01b0383168152604060208201819052600090610b1490830184610973565b949350505050565b600060208284031215610b2e57600080fd5b81356107d4816107db565b600060208284031215610b4b57600080fd5b81516107d4816107db565b600060208284031215610b6857600080fd5b5051919050565b634e487b7160e01b600052603260045260246000fd5b600080600080600060a08688031215610b9d57600080fd5b8535610ba8816107db565b94506020860135610bb8816107db565b935060408601359250606086013563ffffffff81168114610bd857600080fd5b91506080860135610be8816107db565b80915050929550929590935056fea264697066735822122018d6c0ff34147ad632c14893316ce58bd0eb6d4e6702441290e241b07a8d104664736f6c6343000811003360c06040526003608090815262302e3360e81b60a052609d9062000024908262000b3b565b503480156200003257600080fd5b506040518060400160405280601b81526020017f53796d62696f746963426f6e64696e674375727665506c7567696e00000000008152506040518060400160405280600381526020016253424360e81b815250620493e082826200009b6200084060201b60201c565b620000a63362000902565b609b620000b4838262000b3b565b50609c620000c3828262000b3b565b50506001641c35fedd1560601b0360be55506001646c3390ecc9605e1b0360bf556001640cf801476160611b0360c05560016431bdb23e1d605f1b0360c15560016502fb1d8fe083605b1b0360c25560016505b771955b37605a1b0360c3556001650af67a93bb5160591b0360c45560016515060c256cb360581b0360c5556001651428a2f98d7360581b0360c6556001654d515663970960561b0360c755600165944620b0e70f60551b0360c855600166011c592761c66760541b0360c95560016602214d10d014eb60531b0360ca55600166020ade36b7dbef60531b0360cb5560016603eab73b3bbfe360521b0360cc556001660782ee3593f6d760511b0360cd556001661ccf4b44bb4821604f1b0360ce5560016606e7f88ad8a77760511b0360cf5560016669f3d1c921891d604d1b0360d055600166cb2ff529eb71e5604c1b0360d155600166c2d415c3db974b604c1b0360d25560016702eb40f9f620fda7604a1b0360d35560016705990681d961a1eb60491b0360d455600167055e12902701414760491b0360d55560016714962dee9dc9764160471b0360d65560016704ef57b9b560fab560491b0360d75560016712ed7b32a58f552b60471b0360d8556001679131271922eaa60760441b0360d9556001678b380f3558668c4760441b0360da556001680215f77c045fbe885760421b0360db556001600160831b0360dc556001670f577eded5773a1160471b0360dd556001680eb5ec597592befbf5603f1b0360de556001681c35fedd14b861eb05603e1b0360df556001683619c87664579bc94b603d1b0360e05560016867c00a3b07ffc01fd7603c1b0360e155600168c6f6c8f8739773a7a5603b1b0360e255600168bec763f8209b7a72b1603b1b0360e35560016902dbb8caad9b7097b91b60391b0360e455600169057b3d49dda84556d6f760381b0360e555600169054183095b2c8ececf3160381b0360e6556001690a14517cc6b9457111ef60371b0360e75560016913545598e5c23276ccf160361b0360e8556001692511882c39c3adea96ff60351b0360e955600169471649d87199aa99075760341b0360ea557004429a21a029d4c1457cfbffffffffffff60eb55700415bc6d6fb7dd71af2cb3ffffffffffff60ec557003eab73b3bbfe282243ce1ffffffffffff60ed557003c1771ac9fb6b4c18e229ffffffffffff60ee55700399e96897690418f785257fffffffffff60ef55700373fc456c53bb779bf0ea9fffffffffff60f05570034f9e8e490c48e67e6ab8bfffffffffff60f15570032cbfd4a7adc790560b3337ffffffffff60f25570030b50570f6e5d2acca94613ffffffffff60f3557002eb40f9f620fda6b56c2861ffffffffff60f4557002cc8340ecb0d0f520a6af58ffffffffff60f5557002af09481380a0a35cf1ba02ffffffffff60f655700292c5bdd3b92ec810287b1b3fffffffff60f755700277abdcdab07d5a77ac6d6b9fffffffff60f85570025daf6654b1eaa55fd64df5efffffffff60f955700244c49c648baa98192dce88b7ffffffff60fa5570022ce03cd5619a311b2471268bffffffff60fb55700215f77c045fbe885654a44a0fffffffff60fc556001600160811b0360fd557001eaefdbdaaee7421fc4d3ede5ffffffff60fe557001d6bd8b2eb257df7e8ca57b09bfffffff60ff557001c35fedd14b861eb0443f7f133fffffff610100557001b0ce43b322bcde4a56e8ada5afffffff6101015570019f0028ec1fff007f5a195a39dfffffff6101025570018ded91f0e72ee74f49b15ba527ffffff6101035570017d8ec7f04136f4e5615fd41a63ffffff6101045570016ddc6556cdb84bdc8d12d22e6fffffff6101055570015ecf52776a1155b5bd8395814f7fffff6101065570015060c256cb23b3b3cc3754cf40ffffff610107557001428a2f98d728ae223ddab715be3fffff6101085570013545598e5c23276ccf0ede68034fffff610109557001288c4161ce1d6f54b7f61081194fffff61010a5570011c592761c666aa641d5a01a40f17ffff61010b55700110a688680a7530515f3e6e6cfdcdffff61010c557001056f1b5bedf75c6bcb2ce8aed428ffff61010d556ffaadceceeff8a0890f3875f008277fff61010e556ff05dc6b27edad306388a600f6ba0bfff61010f556fe67a5a25da41063de1495d5b18cdbfff610110556fdcff115b14eedde6fc3aa5353f2e4fff610111556fd3e7a3924312399f9aae2e0f868f8fff610112556fcb2ff529eb71e41582cccd5a1ee26fff610113556fc2d415c3db974ab32a51840c0b67edff610114556fbad03e7d883f69ad5b0a186184e06bff610115556fb320d03b2c343d4829abd6075f0cc5ff610116556fabc25204e02828d73c6e80bcdb1a95bf610117556fa4b16f74ee4bb2040a1ec6c15fbbf2df610118556f9deaf736ac1f569deb1b5ae3f36c130f610119556f976bd9952c7aa957f5937d790ef6503761011a556f9131271922eaa6064b73a22d0bd4f2bf61011b556f8b380f3558668c46c91c49a2f8e967b961011c556f857ddf0117efa215952912839f6473e661011d5561011e805463ffffffff191663ffffffff92909216919091179055506200083990503060001962000954565b5062000c07565b600054610100900460ff1615620008ae5760405162461bcd60e51b815260206004820152602760248201527f496e697469616c697a61626c653a20636f6e747261637420697320696e697469604482015266616c697a696e6760c81b60648201526084015b60405180910390fd5b60005460ff9081161462000900576000805460ff191660ff9081179091556040519081527f7f26b83ff96e1f2b6a682f133852f6798a09c465da95921460cefb38474024989060200160405180910390a15b565b609780546001600160a01b038381166001600160a01b0319831681179093556040519116919082907f8be0079c531659141344cd1fd0a4f28419497f9722a3daafe3b4186f6b6457e090600090a35050565b600033620009648185856200096e565b5060019392505050565b6001600160a01b038316620009d25760405162461bcd60e51b8152602060048201526024808201527f45524332303a20617070726f76652066726f6d20746865207a65726f206164646044820152637265737360e01b6064820152608401620008a5565b6001600160a01b03821662000a355760405162461bcd60e51b815260206004820152602260248201527f45524332303a20617070726f766520746f20746865207a65726f206164647265604482015261737360f01b6064820152608401620008a5565b6001600160a01b0383811660008181526099602090815260408083209487168084529482529182902085905590518481527f8c5be1e5ebec7d5bd14f71427d1e84f3dd0314c0f7b2291e5b200ac8c7c3b925910160405180910390a3505050565b634e487b7160e01b600052604160045260246000fd5b600181811c9082168062000ac157607f821691505b60208210810362000ae257634e487b7160e01b600052602260045260246000fd5b50919050565b601f82111562000b3657600081815260208120601f850160051c8101602086101562000b115750805b601f850160051c820191505b8181101562000b325782815560010162000b1d565b5050505b505050565b81516001600160401b0381111562000b575762000b5762000a96565b62000b6f8162000b68845462000aac565b8462000ae8565b602080601f83116001811462000ba7576000841562000b8e5750858301515b600019600386901b1c1916600185901b17855562000b32565b600085815260208120601f198616915b8281101562000bd85788860151825594840194600190910190840162000bb7565b508582101562000bf75787850151600019600388901b60f8161c191681555b5050505050600190811b01905550565b6133f88062000c176000396000f3fe608060405234801561001057600080fd5b50600436106102325760003560e01c80637cbed3e011610130578063a457c2d7116100b8578063dd62ed3e1161007c578063dd62ed3e146104bc578063f2fde38b146104cf578063f4325d67146104e2578063f851a440146104f6578063f8a2c98e1461051257600080fd5b8063a457c2d714610467578063a9059cbb1461047a578063c5f956af1461048d578063cb0aad36146104a1578063da12457a146104b457600080fd5b806395d89b41116100ff57806395d89b411461042857806396343886146104305780639db3ad7e14610443578063a0712d681461044b578063a10954fe1461045e57600080fd5b80637cbed3e0146103d05780638cf2b63e146103e35780638da5cb5b146104045780638e8ab69e1461041557600080fd5b806333a4ea06116101be57806349f9b0f71161018257806349f9b0f71461036f57806354fd4d5014610382578063630e90321461038a57806370a082311461039d578063715018a6146103c657600080fd5b806333a4ea061461030b57806339509351146103155780634162169f1461032857806341de68301461034d57806342966c681461035c57600080fd5b80630d8f9f7f116102055780630d8f9f7f146102ad57806318160ddd146102ce57806323b872dd146102d657806329a00e7c146102e9578063313ce567146102fc57600080fd5b806301ffc9a71461023757806306fdde031461025f578063095ea7b3146102745780630c7d5cd814610287575b600080fd5b61024a610245366004612f2c565b610539565b60405190151581526020015b60405180910390f35b610267610570565b6040516102569190612f5d565b61024a610282366004612fc0565b610602565b61011e546102989063ffffffff1681565b60405163ffffffff9091168152602001610256565b6102c06102bb366004612fec565b61061a565b604051908152602001610256565b609a546102c0565b61024a6102e4366004613005565b61063b565b6102c06102f736600461305f565b61065f565b60405160128152602001610256565b6102c06101235481565b61024a610323366004612fc0565b610768565b6065546001600160a01b03165b6040516001600160a01b039091168152602001610256565b6001604051610256919061309c565b6102c061036a366004612fec565b61078a565b6102c061037d36600461305f565b610864565b61026761097c565b6102986103983660046130c4565b610a0a565b6102c06103ab3660046130e6565b6001600160a01b031660009081526098602052604090205490565b6103ce610a25565b005b6102c06103de366004612fec565b610a39565b6102c06103f13660046130e6565b61011f6020526000908152604090205481565b6097546001600160a01b0316610335565b6103ce610423366004613103565b610a5a565b610267610c89565b6103ce61043e366004612fec565b610c98565b6102c0610ce1565b6102c0610459366004612fec565b610d63565b610120546102c0565b61024a610475366004612fc0565b610e3c565b61024a610488366004612fc0565b610eb7565b61012254610335906001600160a01b031681565b6103ce6104af366004612fec565b610ec5565b6102c06110b7565b6102c06104ca36600461317a565b6110c2565b6103ce6104dd3660046130e6565b6110ed565b61012154610335906001600160a01b031681565b61011e546103359064010000000090046001600160a01b031681565b6102c07f333faabe8d5b573697f548cb3885d6a81cd1e2ac87d1775bfec70a290e8e4d6081565b60006001600160e01b0319821663041de68360e41b148061056a57506301ffc9a760e01b6001600160e01b03198316145b92915050565b6060609b805461057f906131b3565b80601f01602080910402602001604051908101604052809291908181526020018280546105ab906131b3565b80156105f85780601f106105cd576101008083540402835291602001916105f8565b820191906000526020600020905b8154815290600101906020018083116105db57829003601f168201915b5050505050905090565b600033610610818585611166565b5060019392505050565b600061056a6106276110b7565b6101205461011e5463ffffffff168561065f565b60003361064985828561128b565b6106548585856112ff565b506001949350505050565b600080851180156106705750600084115b8015610682575060008363ffffffff16115b80156106975750620f424063ffffffff841611155b6106da5760405162461bcd60e51b815260206004820152600f60248201526e24b73b30b634b21034b7383aba399760891b60448201526064015b60405180910390fd5b816000036106ea57506000610760565b620f423f1963ffffffff84160161071757836107068387613203565b6107109190613230565b9050610760565b600080806107258786613244565b9050610736818888620f42406114aa565b9093509150600060ff831661074b858b613203565b901c90506107598982613257565b9450505050505b949350505050565b60003361061081858561077b83836110c2565b6107859190613244565b611166565b6000806107968361162a565b33600090815261011f60205260409020549091506107b5908290613257565b33600090815261011f6020526040902055610120546107d5908290613257565b61012055610121546001600160a01b031663a9059cbb336040516001600160e01b031960e084901b1681526001600160a01b039091166004820152602481018490526044016020604051808303816000875af1158015610839573d6000803e3d6000fd5b505050506040513d601f19601f8201168201806040525081019061085d919061326a565b5092915050565b600080851180156108755750600084115b8015610887575060008363ffffffff16115b801561089c5750620f424063ffffffff841611155b80156108a85750848211155b6108e65760405162461bcd60e51b815260206004820152600f60248201526e24b73b30b634b21034b7383aba399760891b60448201526064016106d1565b816000036108f657506000610760565b848203610904575082610760565b620f423f1963ffffffff84160161092057846107068386613203565b6000808061092e8589613257565b905061093f8882620f4240896114aa565b909350915060006109508489613203565b905060ff831688901b846109648284613257565b61096e9190613230565b9a9950505050505050505050565b609d8054610989906131b3565b80601f01602080910402602001604051908101604052809291908181526020018280546109b5906131b3565b8015610a025780601f106109d757610100808354040283529160200191610a02565b820191906000526020600020905b8154815290600101906020018083116109e557829003601f168201915b505050505081565b600080620f4240610a1b8486613244565b610760919061328c565b610a2d611732565b610a37600061178c565b565b600061056a610a466110b7565b6101205461011e5463ffffffff1685610864565b600054610100900460ff1615808015610a7a5750600054600160ff909116105b80610a945750303b158015610a94575060005460ff166001145b610af75760405162461bcd60e51b815260206004820152602e60248201527f496e697469616c697a61626c653a20636f6e747261637420697320616c72656160448201526d191e481a5b9a5d1a585b1a5e995960921b60648201526084016106d1565b6000805460ff191660011790558015610b1a576000805461ff0019166101001790555b610b23876117de565b610b2d848461180e565b61011e80546001600160a01b0380891664010000000002640100000000600160c01b03199092169190911790915561012280548483166001600160a01b031991821617909155610120869055610121805492881692909116821790556323b872dd610b953390565b6040516001600160e01b031960e084901b1681526001600160a01b039091166004820152306024820152604481018790526064016020604051808303816000875af1158015610be8573d6000803e3d6000fd5b505050506040513d601f19601f82011682018060405250810190610c0c919061326a565b5033600090815261011f6020526040902054610c29908590613244565b33600090815261011f60205260409020558015610c80576000805461ff0019169055604051600181527f7f26b83ff96e1f2b6a682f133852f6798a09c465da95921460cefb38474024989060200160405180910390a15b50505050505050565b6060609c805461057f906131b3565b610ca2338261182e565b7f23ff0e75edf108e3d0392d92e13e8c8a868ef19001bd49f9e94876dc46dff87f33826000604051610cd6939291906132a0565b60405180910390a150565b61012054610121546040516370a0823160e01b8152306004820152600092916001600160a01b0316906370a0823190602401602060405180830381865afa158015610d30573d6000803e3d6000fd5b505050506040513d601f19601f82011682018060405250810190610d5491906132c1565b610d5e9190613257565b905090565b33600090815261011f6020526040812054610d7f908390613244565b33600081815261011f60209081526040808320949094556101215484516323b872dd60e01b815260048101949094523060248501526044840187905293516001600160a01b03909416936323b872dd936064808201949183900301908290875af1158015610df1573d6000803e3d6000fd5b505050506040513d601f19601f82011682018060405250810190610e15919061326a565b506000610e218361195a565b90508261012054610e329190613244565b6101205592915050565b60003381610e4a82866110c2565b905083811015610eaa5760405162461bcd60e51b815260206004820152602560248201527f45524332303a2064656372656173656420616c6c6f77616e63652062656c6f77604482015264207a65726f60d81b60648201526084016106d1565b6106548286868403611166565b6000336106108185856112ff565b6000610ecf610ce1565b905081600103610f5657610121546101225460405163a9059cbb60e01b81526001600160a01b0391821660048201526024810184905291169063a9059cbb906044016020604051808303816000875af1158015610f30573d6000803e3d6000fd5b505050506040513d601f19601f82011682018060405250810190610f54919061326a565b505b816002036110025730600090815261011f6020526040902054610f7a908290613244565b30600090815261011f6020526040812091909155610f978261061a565b9050610fa330826119f5565b7f25b428dfde728ccfaddad7e29e4ac23c24ed7fd1a6e3e3f91894a9a073f5dfff308284604051610fd6939291906132a0565b60405180910390a18161012054610fed9190613244565b610120556110003063deadbeef836112ff565b505b816003036110b357610121546040516370a0823160e01b81523060048201526001600160a01b03909116906370a0823190602401602060405180830381865afa158015611053573d6000803e3d6000fd5b505050506040513d601f19601f8201168201806040525081019061107791906132c1565b610120556000611086609a5490565b905060006110978261012054610a0a565b61011e805463ffffffff191663ffffffff831617905590505b50505b5050565b6000610d5e609a5490565b6001600160a01b03918216600090815260996020908152604080832093909416825291909152205490565b6110f5611732565b6001600160a01b03811661115a5760405162461bcd60e51b815260206004820152602660248201527f4f776e61626c653a206e6577206f776e657220697320746865207a65726f206160448201526564647265737360d01b60648201526084016106d1565b6111638161178c565b50565b6001600160a01b0383166111c85760405162461bcd60e51b8152602060048201526024808201527f45524332303a20617070726f76652066726f6d20746865207a65726f206164646044820152637265737360e01b60648201526084016106d1565b6001600160a01b0382166112295760405162461bcd60e51b815260206004820152602260248201527f45524332303a20617070726f766520746f20746865207a65726f206164647265604482015261737360f01b60648201526084016106d1565b6001600160a01b0383811660008181526099602090815260408083209487168084529482529182902085905590518481527f8c5be1e5ebec7d5bd14f71427d1e84f3dd0314c0f7b2291e5b200ac8c7c3b92591015b60405180910390a3505050565b600061129784846110c2565b905060001981146110b057818110156112f25760405162461bcd60e51b815260206004820152601d60248201527f45524332303a20696e73756666696369656e7420616c6c6f77616e636500000060448201526064016106d1565b6110b08484848403611166565b6001600160a01b0383166113635760405162461bcd60e51b815260206004820152602560248201527f45524332303a207472616e736665722066726f6d20746865207a65726f206164604482015264647265737360d81b60648201526084016106d1565b6001600160a01b0382166113c55760405162461bcd60e51b815260206004820152602360248201527f45524332303a207472616e7366657220746f20746865207a65726f206164647260448201526265737360e81b60648201526084016106d1565b6001600160a01b0383166000908152609860205260409020548181101561143d5760405162461bcd60e51b815260206004820152602660248201527f45524332303a207472616e7366657220616d6f756e7420657863656564732062604482015265616c616e636560d01b60648201526084016106d1565b6001600160a01b0380851660008181526098602052604080822086860390559286168082529083902080548601905591517fddf252ad1be2c89b69c2b068fc378daa952ba7f163c4a11628f55a4df523b3ef9061149d9086815260200190565b60405180910390a36110b0565b600080600160811b86106115005760405162461bcd60e51b815260206004820152601860248201527f626173654e2065786365656473206d61782076616c75652e000000000000000060448201526064016106d1565b848610156115505760405162461bcd60e51b815260206004820152601c60248201527f4261736573203c203120617265206e6f7420737570706f727465642e0000000060448201526064016106d1565b600080866115626001607f1b8a613203565b61156c9190613230565b905070015bf0a8b1457695355fb8ac404e7a79e38110156115975761159081611ab6565b91506115a3565b6115a08161202f565b91505b60008563ffffffff168763ffffffff16846115be9190613203565b6115c89190613230565b9050600160831b8110156115ed576115df8161211e565b607f94509450505050611621565b60006115f882612749565b905061161461160882607f6132da565b60ff1683901c8261280e565b9550935061162192505050565b94509492505050565b600080821161167b5760405162461bcd60e51b815260206004820152601860248201527f416d6f756e74206d757374206265206e6f6e2d7a65726f2e000000000000000060448201526064016106d1565b336000908152609860205260409020548211156116da5760405162461bcd60e51b815260206004820152601c60248201527f496e73756666696369656e7420746f6b656e7320746f206275726e2e0000000060448201526064016106d1565b60006116e583610a39565b90506116f1338461182e565b7f23ff0e75edf108e3d0392d92e13e8c8a868ef19001bd49f9e94876dc46dff87f338483604051611724939291906132a0565b60405180910390a192915050565b6097546001600160a01b03163314610a375760405162461bcd60e51b815260206004820181905260248201527f4f776e61626c653a2063616c6c6572206973206e6f7420746865206f776e657260448201526064016106d1565b609780546001600160a01b038381166001600160a01b0319831681179093556040519116919082907f8be0079c531659141344cd1fd0a4f28419497f9722a3daafe3b4186f6b6457e090600090a35050565b600054610100900460ff166118055760405162461bcd60e51b81526004016106d1906132f3565b61116381612e75565b61011e805463ffffffff191663ffffffff83161790556110b333836119f5565b6001600160a01b03821661188e5760405162461bcd60e51b815260206004820152602160248201527f45524332303a206275726e2066726f6d20746865207a65726f206164647265736044820152607360f81b60648201526084016106d1565b6001600160a01b038216600090815260986020526040902054818110156119025760405162461bcd60e51b815260206004820152602260248201527f45524332303a206275726e20616d6f756e7420657863656564732062616c616e604482015261636560f01b60648201526084016106d1565b6001600160a01b03831660008181526098602090815260408083208686039055609a80548790039055518581529192917fddf252ad1be2c89b69c2b068fc378daa952ba7f163c4a11628f55a4df523b3ef910161127e565b60008082116119ab5760405162461bcd60e51b815260206004820152601960248201527f4465706f736974206d757374206265206e6f6e2d7a65726f2e0000000000000060448201526064016106d1565b60006119b68361061a565b90506119c233826119f5565b7f25b428dfde728ccfaddad7e29e4ac23c24ed7fd1a6e3e3f91894a9a073f5dfff338285604051611724939291906132a0565b6001600160a01b038216611a4b5760405162461bcd60e51b815260206004820152601f60248201527f45524332303a206d696e7420746f20746865207a65726f20616464726573730060448201526064016106d1565b80609a6000828254611a5d9190613244565b90915550506001600160a01b0382166000818152609860209081526040808320805486019055518481527fddf252ad1be2c89b69c2b068fc378daa952ba7f163c4a11628f55a4df523b3ef910160405180910390a35050565b6000808080806fd3094c70f034de4b96ff7d5b6f99fcd88610611b0f57611ae16001607e1b85613244565b93506fd3094c70f034de4b96ff7d5b6f99fcd8611b026001607f1b88613203565b611b0c9190613230565b95505b6fa45af1e1f40c333b3de1db4dd55f29a78610611b6257611b346001607d1b85613244565b93506fa45af1e1f40c333b3de1db4dd55f29a7611b556001607f1b88613203565b611b5f9190613230565b95505b6f910b022db7ae67ce76b441c27035c6a18610611bb557611b876001607c1b85613244565b93506f910b022db7ae67ce76b441c27035c6a1611ba86001607f1b88613203565b611bb29190613230565b95505b6f88415abbe9a76bead8d00cf112e4d4a88610611c0857611bda6001607b1b85613244565b93506f88415abbe9a76bead8d00cf112e4d4a8611bfb6001607f1b88613203565b611c059190613230565b95505b6f84102b00893f64c705e841d5d4064bd38610611c5b57611c2d6001607a1b85613244565b93506f84102b00893f64c705e841d5d4064bd3611c4e6001607f1b88613203565b611c589190613230565b95505b6f8204055aaef1c8bd5c3259f4822735a28610611cae57611c80600160791b85613244565b93506f8204055aaef1c8bd5c3259f4822735a2611ca16001607f1b88613203565b611cab9190613230565b95505b6f810100ab00222d861931c15e39b44e998610611d0157611cd3600160781b85613244565b93506f810100ab00222d861931c15e39b44e99611cf46001607f1b88613203565b611cfe9190613230565b95505b6f808040155aabbbe9451521693554f7338610611d5457611d26600160771b85613244565b93506f808040155aabbbe9451521693554f733611d476001607f1b88613203565b611d519190613230565b95505b611d626001607f1b87613257565b92508291506001607f1b611d768380613203565b611d809190613230565b9050600160801b611d918482613257565b611d9b9084613203565b611da59190613230565b611daf9085613244565b93506001607f1b611dc08284613203565b611dca9190613230565b9150600160811b611deb846faaaaaaaaaaaaaaaaaaaaaaaaaaaaaaaa613257565b611df59084613203565b611dff9190613230565b611e099085613244565b93506001607f1b611e1a8284613203565b611e249190613230565b9150600360801b611e45846f99999999999999999999999999999999613257565b611e4f9084613203565b611e599190613230565b611e639085613244565b93506001607f1b611e748284613203565b611e7e9190613230565b9150600160821b611e9f846f92492492492492492492492492492492613257565b611ea99084613203565b611eb39190613230565b611ebd9085613244565b93506001607f1b611ece8284613203565b611ed89190613230565b9150600560801b611ef9846f8e38e38e38e38e38e38e38e38e38e38e613257565b611f039084613203565b611f0d9190613230565b611f179085613244565b93506001607f1b611f288284613203565b611f329190613230565b9150600360811b611f53846f8ba2e8ba2e8ba2e8ba2e8ba2e8ba2e8b613257565b611f5d9084613203565b611f679190613230565b611f719085613244565b93506001607f1b611f828284613203565b611f8c9190613230565b9150600760801b611fad846f89d89d89d89d89d89d89d89d89d89d89613257565b611fb79084613203565b611fc19190613230565b611fcb9085613244565b93506001607f1b611fdc8284613203565b611fe69190613230565b9150600160831b612007846f88888888888888888888888888888888613257565b6120119084613203565b61201b9190613230565b6120259085613244565b9695505050505050565b60008082600160801b81106120745760006120566120516001607f1b84613230565b612ebe565b60ff811692831c92909150612070906001607f1b90613203565b9250505b6001607f1b8111156120e957607f5b60ff8116156120e7576001607f1b61209b8380613203565b6120a59190613230565b9150600160801b82106120d757600191821c916120c290826132da565b60ff166001901b836120d49190613244565b92505b6120e08161333e565b9050612083565b505b6f05b9de1d10bf4103d647b0955897ba806121146f03f80fe03f80fe03f80fe03f80fe03f884613203565b6107609190613230565b60008080806121316001607c1b8661328c565b91508190506001607f1b6121458280613203565b61214f9190613230565b9050612163816710e1b3be415a0000613203565b61216d9084613244565b92506001607f1b61217e8383613203565b6121889190613230565b905061219c816705a0913f6b1e0000613203565b6121a69084613244565b92506001607f1b6121b78383613203565b6121c19190613230565b90506121d581670168244fdac78000613203565b6121df9084613244565b92506001607f1b6121f08383613203565b6121fa9190613230565b905061220d81664807432bc18000613203565b6122179084613244565b92506001607f1b6122288383613203565b6122329190613230565b905061224581660c0135dca04000613203565b61224f9084613244565b92506001607f1b6122608383613203565b61226a9190613230565b905061227d816601b707b1cdc000613203565b6122879084613244565b92506001607f1b6122988383613203565b6122a29190613230565b90506122b4816536e0f639b800613203565b6122be9084613244565b92506001607f1b6122cf8383613203565b6122d99190613230565b90506122eb81650618fee9f800613203565b6122f59084613244565b92506001607f1b6123068383613203565b6123109190613230565b905061232181649c197dcc00613203565b61232b9084613244565b92506001607f1b61233c8383613203565b6123469190613230565b905061235781640e30dce400613203565b6123619084613244565b92506001607f1b6123728383613203565b61237c9190613230565b905061238d8164012ebd1300613203565b6123979084613244565b92506001607f1b6123a88383613203565b6123b29190613230565b90506123c2816317499f00613203565b6123cc9084613244565b92506001607f1b6123dd8383613203565b6123e79190613230565b90506123f7816301a9d480613203565b6124019084613244565b92506001607f1b6124128383613203565b61241c9190613230565b905061242b81621c6380613203565b6124359084613244565b92506001607f1b6124468383613203565b6124509190613230565b905061245f816201c638613203565b6124699084613244565b92506001607f1b61247a8383613203565b6124849190613230565b905061249281611ab8613203565b61249c9084613244565b92506001607f1b6124ad8383613203565b6124b79190613230565b90506124c58161017c613203565b6124cf9084613244565b92506001607f1b6124e08383613203565b6124ea9190613230565b90506124f7816014613203565b6125019084613244565b92506001607f1b6125128383613203565b61251c9190613230565b9050612529816001613203565b6125339084613244565b92506001607f1b8261254d6721c3677c82b4000086613230565b6125579190613244565b6125619190613244565b92506001607c1b8516156125a95770018ebef9eac820ae8682b9793ac6d1e77661259c847001c3d6a24ed82218787d624d3e5eba95f9613203565b6125a69190613230565b92505b6001607d1b8516156125ef577001368b2fc6f9609fe7aceb46aa619baed46125e28470018ebef9eac820ae8682b9793ac6d1e778613203565b6125ec9190613230565b92505b6001607e1b851615612634576fbc5ab1b16779be3575bd8f0520a9f21f612627847001368b2fc6f9609fe7aceb46aa619baed5613203565b6126319190613230565b92505b6001607f1b851615612678576f454aaa8efe072e7f6ddbab84b40a55c961266b846fbc5ab1b16779be3575bd8f0520a9f21e613203565b6126759190613230565b92505b600160801b8516156126bc576f0960aadc109e7a3bf4578099615711ea6126af846f454aaa8efe072e7f6ddbab84b40a55c5613203565b6126b99190613230565b92505b600160811b8516156126ff576e2bf84208204f5977f9a8cf01fdce3d6126f2846f0960aadc109e7a3bf4578099615711d7613203565b6126fc9190613230565b92505b600160821b851615612740576d03c6ab775dd0b95b4cbee7e65d11612733846e2bf84208204f5977f9a8cf01fdc307613203565b61273d9190613230565b92505b50909392505050565b60006020607f5b60ff811661275f83600161335b565b60ff1610156127b25760006002612776838561335b565b6127809190613374565b905084609e8260ff166080811061279957612799613396565b0154106127a8578092506127ac565b8091505b50612750565b83609e8260ff16608081106127c9576127c9613396565b0154106127d7579392505050565b83609e8360ff16608081106127ee576127ee613396565b0154106127fc575092915050565b6128046133ac565b5060009392505050565b6000828160ff84166128208380613203565b901c915061283e826f03442c4e6074a82f1797f72ac0000000613203565b6128489082613244565b905060ff84166128588684613203565b901c9150612876826f0116b96f757c380fb287fd0e40000000613203565b6128809082613244565b905060ff84166128908684613203565b901c91506128ad826e45ae5bdd5f0e03eca1ff4390000000613203565b6128b79082613244565b905060ff84166128c78684613203565b901c91506128e4826e0defabf91302cd95b9ffda50000000613203565b6128ee9082613244565b905060ff84166128fe8684613203565b901c915061291b826e02529ca9832b22439efff9b8000000613203565b6129259082613244565b905060ff84166129358684613203565b901c9150612951826d54f1cf12bd04e516b6da88000000613203565b61295b9082613244565b905060ff841661296b8684613203565b901c9150612987826d0a9e39e257a09ca2d6db51000000613203565b6129919082613244565b905060ff84166129a18684613203565b901c91506129bd826d012e066e7b839fa050c309000000613203565b6129c79082613244565b905060ff84166129d78684613203565b901c91506129f2826c1e33d7d926c329a1ad1a800000613203565b6129fc9082613244565b905060ff8416612a0c8684613203565b901c9150612a27826c02bee513bdb4a6b19b5f800000613203565b612a319082613244565b905060ff8416612a418684613203565b901c9150612a5b826b3a9316fa79b88eccf2a00000613203565b612a659082613244565b905060ff8416612a758684613203565b901c9150612a8f826b048177ebe1fa812375200000613203565b612a999082613244565b905060ff8416612aa98684613203565b901c9150612ac2826a5263fe90242dcbacf00000613203565b612acc9082613244565b905060ff8416612adc8684613203565b901c9150612af5826a057e22099c030d94100000613203565b612aff9082613244565b905060ff8416612b0f8684613203565b901c9150612b27826957e22099c030d9410000613203565b612b319082613244565b905060ff8416612b418684613203565b901c9150612b598269052b6b54569976310000613203565b612b639082613244565b905060ff8416612b738684613203565b901c9150612b8a82684985f67696bf748000613203565b612b949082613244565b905060ff8416612ba48684613203565b901c9150612bbb826803dea12ea99e498000613203565b612bc59082613244565b905060ff8416612bd58684613203565b901c9150612beb826731880f2214b6e000613203565b612bf59082613244565b905060ff8416612c058684613203565b901c9150612c1b8267025bcff56eb36000613203565b612c259082613244565b905060ff8416612c358684613203565b901c9150612c4a82661b722e10ab1000613203565b612c549082613244565b905060ff8416612c648684613203565b901c9150612c79826601317c70077000613203565b612c839082613244565b905060ff8416612c938684613203565b901c9150612ca782650cba84aafa00613203565b612cb19082613244565b905060ff8416612cc18684613203565b901c9150612cd4826482573a0a00613203565b612cde9082613244565b905060ff8416612cee8684613203565b901c9150612d01826405035ad900613203565b612d0b9082613244565b905060ff8416612d1b8684613203565b901c9150612d2d82632f881b00613203565b612d379082613244565b905060ff8416612d478684613203565b901c9150612d59826301b29340613203565b612d639082613244565b905060ff8416612d738684613203565b901c9150612d8482620efc40613203565b612d8e9082613244565b905060ff8416612d9e8684613203565b901c9150612dae82617fe0613203565b612db89082613244565b905060ff8416612dc88684613203565b901c9150612dd882610420613203565b612de29082613244565b905060ff8416612df28684613203565b901c9150612e01826021613203565b612e0b9082613244565b905060ff8416612e1b8684613203565b901c9150612e2a826001613203565b612e349082613244565b9050600160ff85161b85612e586f0688589cc0e9505e2f2fee558000000084613230565b612e629190613244565b612e6c9190613244565b95945050505050565b600054610100900460ff16612e9c5760405162461bcd60e51b81526004016106d1906132f3565b606580546001600160a01b0319166001600160a01b0392909216919091179055565b60008082610100811015612ef2575b6001811115612eed57600190811c90612ee6908361335b565b9150612ecd565b61085d565b60805b60ff811615612f2457600160ff82161b8210612f19579182179160ff81169190911c905b60011c607f16612ef5565b505092915050565b600060208284031215612f3e57600080fd5b81356001600160e01b031981168114612f5657600080fd5b9392505050565b600060208083528351808285015260005b81811015612f8a57858101830151858201604001528201612f6e565b506000604082860101526040601f19601f8301168501019250505092915050565b6001600160a01b038116811461116357600080fd5b60008060408385031215612fd357600080fd5b8235612fde81612fab565b946020939093013593505050565b600060208284031215612ffe57600080fd5b5035919050565b60008060006060848603121561301a57600080fd5b833561302581612fab565b9250602084013561303581612fab565b929592945050506040919091013590565b803563ffffffff8116811461305a57600080fd5b919050565b6000806000806080858703121561307557600080fd5b843593506020850135925061308c60408601613046565b9396929550929360600135925050565b60208101600383106130be57634e487b7160e01b600052602160045260246000fd5b91905290565b600080604083850312156130d757600080fd5b50508035926020909101359150565b6000602082840312156130f857600080fd5b8135612f5681612fab565b60008060008060008060c0878903121561311c57600080fd5b863561312781612fab565b9550602087013561313781612fab565b9450604087013561314781612fab565b93506060870135925061315c60808801613046565b915060a087013561316c81612fab565b809150509295509295509295565b6000806040838503121561318d57600080fd5b823561319881612fab565b915060208301356131a881612fab565b809150509250929050565b600181811c908216806131c757607f821691505b6020821081036131e757634e487b7160e01b600052602260045260246000fd5b50919050565b634e487b7160e01b600052601160045260246000fd5b808202811582820484141761056a5761056a6131ed565b634e487b7160e01b600052601260045260246000fd5b60008261323f5761323f61321a565b500490565b8082018082111561056a5761056a6131ed565b8181038181111561056a5761056a6131ed565b60006020828403121561327c57600080fd5b81518015158114612f5657600080fd5b60008261329b5761329b61321a565b500690565b6001600160a01b039390931683526020830191909152604082015260600190565b6000602082840312156132d357600080fd5b5051919050565b60ff828116828216039081111561056a5761056a6131ed565b6020808252602b908201527f496e697469616c697a61626c653a20636f6e7472616374206973206e6f74206960408201526a6e697469616c697a696e6760a81b606082015260800190565b600060ff821680613351576133516131ed565b6000190192915050565b60ff818116838216019081111561056a5761056a6131ed565b600060ff8316806133875761338761321a565b8060ff84160491505092915050565b634e487b7160e01b600052603260045260246000fd5b634e487b7160e01b600052600160045260246000fdfea2646970667358221220c6618228b7bf51a2db9719b708a49f8640baee313727269aeb8cf9c895225a3d64736f6c63430008110033",
    "linkReferences": {}
  },
  "methodIdentifiers": {
    "implementation()": "5c60da1b",
    "prepareInstallation(address,bytes)": "f10832f1",
    "prepareUninstallation(address,(address,address[],bytes))": "9cb0a124",
    "prepareUpdate(address,uint16,(address,address[],bytes))": "a8a9c29e",
    "supportsInterface(bytes4)": "01ffc9a7"
  },
  "id": 55
}