{
  "abi": [
    {
      "inputs": [],
      "stateMutability": "nonpayable",
      "type": "constructor"
    },
    {
      "inputs": [
        {
          "internalType": "uint256",
          "name": "index",
          "type": "uint256"
        }
      ],
      "name": "ActionFailed",
      "type": "error"
    },
    {
      "inputs": [],
      "name": "AnyAddressDisallowedForWhoAndWhere",
      "type": "error"
    },
    {
      "inputs": [],
      "name": "ConditionNotPresentForAnyAddress",
      "type": "error"
    },
    {
      "inputs": [],
      "name": "InsufficientGas",
      "type": "error"
    },
    {
      "inputs": [
        {
          "internalType": "uint256",
          "name": "expected",
          "type": "uint256"
        },
        {
          "internalType": "uint256",
          "name": "actual",
          "type": "uint256"
        }
      ],
      "name": "NativeTokenDepositAmountMismatch",
      "type": "error"
    },
    {
      "inputs": [
        {
          "internalType": "address",
          "name": "where",
          "type": "address"
        },
        {
          "internalType": "address",
          "name": "who",
          "type": "address"
        },
        {
          "internalType": "bytes32",
          "name": "permissionId",
          "type": "bytes32"
        },
        {
          "internalType": "address",
          "name": "currentCondition",
          "type": "address"
        },
        {
          "internalType": "address",
          "name": "newCondition",
          "type": "address"
        }
      ],
      "name": "PermissionAlreadyGrantedForDifferentCondition",
      "type": "error"
    },
    {
      "inputs": [],
      "name": "PermissionsForAnyAddressDisallowed",
      "type": "error"
    },
    {
      "inputs": [],
      "name": "TooManyActions",
      "type": "error"
    },
    {
      "inputs": [
        {
          "internalType": "address",
          "name": "where",
          "type": "address"
        },
        {
          "internalType": "address",
          "name": "who",
          "type": "address"
        },
        {
          "internalType": "bytes32",
          "name": "permissionId",
          "type": "bytes32"
        }
      ],
      "name": "Unauthorized",
      "type": "error"
    },
    {
      "inputs": [
        {
          "internalType": "bytes4",
          "name": "callbackSelector",
          "type": "bytes4"
        },
        {
          "internalType": "bytes4",
          "name": "magicNumber",
          "type": "bytes4"
        }
      ],
      "name": "UnkownCallback",
      "type": "error"
    },
    {
      "inputs": [],
      "name": "ZeroAmount",
      "type": "error"
    },
    {
      "anonymous": false,
      "inputs": [
        {
          "indexed": false,
          "internalType": "address",
          "name": "previousAdmin",
          "type": "address"
        },
        {
          "indexed": false,
          "internalType": "address",
          "name": "newAdmin",
          "type": "address"
        }
      ],
      "name": "AdminChanged",
      "type": "event"
    },
    {
      "anonymous": false,
      "inputs": [
        {
          "indexed": true,
          "internalType": "address",
          "name": "beacon",
          "type": "address"
        }
      ],
      "name": "BeaconUpgraded",
      "type": "event"
    },
    {
      "anonymous": false,
      "inputs": [
        {
          "indexed": false,
          "internalType": "address",
          "name": "sender",
          "type": "address"
        },
        {
          "indexed": true,
          "internalType": "bytes4",
          "name": "sig",
          "type": "bytes4"
        },
        {
          "indexed": false,
          "internalType": "bytes",
          "name": "data",
          "type": "bytes"
        }
      ],
      "name": "CallbackReceived",
      "type": "event"
    },
    {
      "anonymous": false,
      "inputs": [
        {
          "indexed": true,
          "internalType": "address",
          "name": "sender",
          "type": "address"
        },
        {
          "indexed": true,
          "internalType": "address",
          "name": "token",
          "type": "address"
        },
        {
          "indexed": false,
          "internalType": "uint256",
          "name": "amount",
          "type": "uint256"
        },
        {
          "indexed": false,
          "internalType": "string",
          "name": "_reference",
          "type": "string"
        }
      ],
      "name": "Deposited",
      "type": "event"
    },
    {
      "anonymous": false,
      "inputs": [
        {
          "indexed": true,
          "internalType": "address",
          "name": "actor",
          "type": "address"
        },
        {
          "indexed": false,
          "internalType": "bytes32",
          "name": "callId",
          "type": "bytes32"
        },
        {
          "components": [
            {
              "internalType": "address",
              "name": "to",
              "type": "address"
            },
            {
              "internalType": "uint256",
              "name": "value",
              "type": "uint256"
            },
            {
              "internalType": "bytes",
              "name": "data",
              "type": "bytes"
            }
          ],
          "indexed": false,
          "internalType": "struct IDAO.Action[]",
          "name": "actions",
          "type": "tuple[]"
        },
        {
          "indexed": false,
          "internalType": "uint256",
          "name": "allowFailureMap",
          "type": "uint256"
        },
        {
          "indexed": false,
          "internalType": "uint256",
          "name": "failureMap",
          "type": "uint256"
        },
        {
          "indexed": false,
          "internalType": "bytes[]",
          "name": "execResults",
          "type": "bytes[]"
        }
      ],
      "name": "Executed",
      "type": "event"
    },
    {
      "anonymous": false,
      "inputs": [
        {
          "indexed": true,
          "internalType": "bytes32",
          "name": "permissionId",
          "type": "bytes32"
        },
        {
          "indexed": true,
          "internalType": "address",
          "name": "here",
          "type": "address"
        },
        {
          "indexed": false,
          "internalType": "address",
          "name": "where",
          "type": "address"
        },
        {
          "indexed": true,
          "internalType": "address",
          "name": "who",
          "type": "address"
        },
        {
          "indexed": false,
          "internalType": "contract IPermissionCondition",
          "name": "condition",
          "type": "address"
        }
      ],
      "name": "Granted",
      "type": "event"
    },
    {
      "anonymous": false,
      "inputs": [
        {
          "indexed": false,
          "internalType": "uint8",
          "name": "version",
          "type": "uint8"
        }
      ],
      "name": "Initialized",
      "type": "event"
    },
    {
      "anonymous": false,
      "inputs": [
        {
          "indexed": false,
          "internalType": "bytes",
          "name": "metadata",
          "type": "bytes"
        }
      ],
      "name": "MetadataSet",
      "type": "event"
    },
    {
      "anonymous": false,
      "inputs": [
        {
          "indexed": false,
          "internalType": "address",
          "name": "sender",
          "type": "address"
        },
        {
          "indexed": false,
          "internalType": "uint256",
          "name": "amount",
          "type": "uint256"
        }
      ],
      "name": "NativeTokenDeposited",
      "type": "event"
    },
    {
      "anonymous": false,
      "inputs": [
        {
          "indexed": false,
          "internalType": "string",
          "name": "daoURI",
          "type": "string"
        }
      ],
      "name": "NewURI",
      "type": "event"
    },
    {
      "anonymous": false,
      "inputs": [
        {
          "indexed": true,
          "internalType": "bytes32",
          "name": "permissionId",
          "type": "bytes32"
        },
        {
          "indexed": true,
          "internalType": "address",
          "name": "here",
          "type": "address"
        },
        {
          "indexed": false,
          "internalType": "address",
          "name": "where",
          "type": "address"
        },
        {
          "indexed": true,
          "internalType": "address",
          "name": "who",
          "type": "address"
        }
      ],
      "name": "Revoked",
      "type": "event"
    },
    {
      "anonymous": false,
      "inputs": [
        {
          "indexed": false,
          "internalType": "address",
          "name": "signatureValidator",
          "type": "address"
        }
      ],
      "name": "SignatureValidatorSet",
      "type": "event"
    },
    {
      "anonymous": false,
      "inputs": [
        {
          "indexed": false,
          "internalType": "bytes4",
          "name": "interfaceId",
          "type": "bytes4"
        },
        {
          "indexed": false,
          "internalType": "bytes4",
          "name": "callbackSelector",
          "type": "bytes4"
        },
        {
          "indexed": false,
          "internalType": "bytes4",
          "name": "magicNumber",
          "type": "bytes4"
        }
      ],
      "name": "StandardCallbackRegistered",
      "type": "event"
    },
    {
      "anonymous": false,
      "inputs": [
        {
          "indexed": false,
          "internalType": "address",
          "name": "forwarder",
          "type": "address"
        }
      ],
      "name": "TrustedForwarderSet",
      "type": "event"
    },
    {
      "anonymous": false,
      "inputs": [
        {
          "indexed": true,
          "internalType": "address",
          "name": "implementation",
          "type": "address"
        }
      ],
      "name": "Upgraded",
      "type": "event"
    },
    {
      "stateMutability": "nonpayable",
      "type": "fallback"
    },
    {
      "inputs": [],
      "name": "EXECUTE_PERMISSION_ID",
      "outputs": [
        {
          "internalType": "bytes32",
          "name": "",
          "type": "bytes32"
        }
      ],
      "stateMutability": "view",
      "type": "function"
    },
    {
      "inputs": [],
      "name": "REGISTER_STANDARD_CALLBACK_PERMISSION_ID",
      "outputs": [
        {
          "internalType": "bytes32",
          "name": "",
          "type": "bytes32"
        }
      ],
      "stateMutability": "view",
      "type": "function"
    },
    {
      "inputs": [],
      "name": "ROOT_PERMISSION_ID",
      "outputs": [
        {
          "internalType": "bytes32",
          "name": "",
          "type": "bytes32"
        }
      ],
      "stateMutability": "view",
      "type": "function"
    },
    {
      "inputs": [],
      "name": "SET_METADATA_PERMISSION_ID",
      "outputs": [
        {
          "internalType": "bytes32",
          "name": "",
          "type": "bytes32"
        }
      ],
      "stateMutability": "view",
      "type": "function"
    },
    {
      "inputs": [],
      "name": "SET_SIGNATURE_VALIDATOR_PERMISSION_ID",
      "outputs": [
        {
          "internalType": "bytes32",
          "name": "",
          "type": "bytes32"
        }
      ],
      "stateMutability": "view",
      "type": "function"
    },
    {
      "inputs": [],
      "name": "SET_TRUSTED_FORWARDER_PERMISSION_ID",
      "outputs": [
        {
          "internalType": "bytes32",
          "name": "",
          "type": "bytes32"
        }
      ],
      "stateMutability": "view",
      "type": "function"
    },
    {
      "inputs": [],
      "name": "UPGRADE_DAO_PERMISSION_ID",
      "outputs": [
        {
          "internalType": "bytes32",
          "name": "",
          "type": "bytes32"
        }
      ],
      "stateMutability": "view",
      "type": "function"
    },
    {
      "inputs": [
        {
          "components": [
            {
              "internalType": "enum PermissionLib.Operation",
              "name": "operation",
              "type": "uint8"
            },
            {
              "internalType": "address",
              "name": "where",
              "type": "address"
            },
            {
              "internalType": "address",
              "name": "who",
              "type": "address"
            },
            {
              "internalType": "address",
              "name": "condition",
              "type": "address"
            },
            {
              "internalType": "bytes32",
              "name": "permissionId",
              "type": "bytes32"
            }
          ],
          "internalType": "struct PermissionLib.MultiTargetPermission[]",
          "name": "_items",
          "type": "tuple[]"
        }
      ],
      "name": "applyMultiTargetPermissions",
      "outputs": [],
      "stateMutability": "nonpayable",
      "type": "function"
    },
    {
      "inputs": [
        {
          "internalType": "address",
          "name": "_where",
          "type": "address"
        },
        {
          "components": [
            {
              "internalType": "enum PermissionLib.Operation",
              "name": "operation",
              "type": "uint8"
            },
            {
              "internalType": "address",
              "name": "who",
              "type": "address"
            },
            {
              "internalType": "bytes32",
              "name": "permissionId",
              "type": "bytes32"
            }
          ],
          "internalType": "struct PermissionLib.SingleTargetPermission[]",
          "name": "items",
          "type": "tuple[]"
        }
      ],
      "name": "applySingleTargetPermissions",
      "outputs": [],
      "stateMutability": "nonpayable",
      "type": "function"
    },
    {
      "inputs": [],
      "name": "daoURI",
      "outputs": [
        {
          "internalType": "string",
          "name": "",
          "type": "string"
        }
      ],
      "stateMutability": "view",
      "type": "function"
    },
    {
      "inputs": [
        {
          "internalType": "address",
          "name": "_token",
          "type": "address"
        },
        {
          "internalType": "uint256",
          "name": "_amount",
          "type": "uint256"
        },
        {
          "internalType": "string",
          "name": "_reference",
          "type": "string"
        }
      ],
      "name": "deposit",
      "outputs": [],
      "stateMutability": "payable",
      "type": "function"
    },
    {
      "inputs": [
        {
          "internalType": "bytes32",
          "name": "_callId",
          "type": "bytes32"
        },
        {
          "components": [
            {
              "internalType": "address",
              "name": "to",
              "type": "address"
            },
            {
              "internalType": "uint256",
              "name": "value",
              "type": "uint256"
            },
            {
              "internalType": "bytes",
              "name": "data",
              "type": "bytes"
            }
          ],
          "internalType": "struct IDAO.Action[]",
          "name": "_actions",
          "type": "tuple[]"
        },
        {
          "internalType": "uint256",
          "name": "_allowFailureMap",
          "type": "uint256"
        }
      ],
      "name": "execute",
      "outputs": [
        {
          "internalType": "bytes[]",
          "name": "execResults",
          "type": "bytes[]"
        },
        {
          "internalType": "uint256",
          "name": "failureMap",
          "type": "uint256"
        }
      ],
      "stateMutability": "nonpayable",
      "type": "function"
    },
    {
      "inputs": [],
      "name": "getTrustedForwarder",
      "outputs": [
        {
          "internalType": "address",
          "name": "",
          "type": "address"
        }
      ],
      "stateMutability": "view",
      "type": "function"
    },
    {
      "inputs": [
        {
          "internalType": "address",
          "name": "_where",
          "type": "address"
        },
        {
          "internalType": "address",
          "name": "_who",
          "type": "address"
        },
        {
          "internalType": "bytes32",
          "name": "_permissionId",
          "type": "bytes32"
        }
      ],
      "name": "grant",
      "outputs": [],
      "stateMutability": "nonpayable",
      "type": "function"
    },
    {
      "inputs": [
        {
          "internalType": "address",
          "name": "_where",
          "type": "address"
        },
        {
          "internalType": "address",
          "name": "_who",
          "type": "address"
        },
        {
          "internalType": "bytes32",
          "name": "_permissionId",
          "type": "bytes32"
        },
        {
          "internalType": "contract IPermissionCondition",
          "name": "_condition",
          "type": "address"
        }
      ],
      "name": "grantWithCondition",
      "outputs": [],
      "stateMutability": "nonpayable",
      "type": "function"
    },
    {
      "inputs": [
        {
          "internalType": "address",
          "name": "_where",
          "type": "address"
        },
        {
          "internalType": "address",
          "name": "_who",
          "type": "address"
        },
        {
          "internalType": "bytes32",
          "name": "_permissionId",
          "type": "bytes32"
        },
        {
          "internalType": "bytes",
          "name": "_data",
          "type": "bytes"
        }
      ],
      "name": "hasPermission",
      "outputs": [
        {
          "internalType": "bool",
          "name": "",
          "type": "bool"
        }
      ],
      "stateMutability": "view",
      "type": "function"
    },
    {
      "inputs": [
        {
          "internalType": "bytes",
          "name": "_metadata",
          "type": "bytes"
        },
        {
          "internalType": "address",
          "name": "_initialOwner",
          "type": "address"
        },
        {
          "internalType": "address",
          "name": "_trustedForwarder",
          "type": "address"
        },
        {
          "internalType": "string",
          "name": "daoURI_",
          "type": "string"
        }
      ],
      "name": "initialize",
      "outputs": [],
      "stateMutability": "nonpayable",
      "type": "function"
    },
    {
      "inputs": [
        {
          "internalType": "address",
          "name": "_where",
          "type": "address"
        },
        {
          "internalType": "address",
          "name": "_who",
          "type": "address"
        },
        {
          "internalType": "bytes32",
          "name": "_permissionId",
          "type": "bytes32"
        },
        {
          "internalType": "bytes",
          "name": "_data",
          "type": "bytes"
        }
      ],
      "name": "isGranted",
      "outputs": [
        {
          "internalType": "bool",
          "name": "",
          "type": "bool"
        }
      ],
      "stateMutability": "view",
      "type": "function"
    },
    {
      "inputs": [
        {
          "internalType": "bytes32",
          "name": "_hash",
          "type": "bytes32"
        },
        {
          "internalType": "bytes",
          "name": "_signature",
          "type": "bytes"
        }
      ],
      "name": "isValidSignature",
      "outputs": [
        {
          "internalType": "bytes4",
          "name": "",
          "type": "bytes4"
        }
      ],
      "stateMutability": "view",
      "type": "function"
    },
    {
      "inputs": [],
      "name": "proxiableUUID",
      "outputs": [
        {
          "internalType": "bytes32",
          "name": "",
          "type": "bytes32"
        }
      ],
      "stateMutability": "view",
      "type": "function"
    },
    {
      "inputs": [
        {
          "internalType": "bytes4",
          "name": "_interfaceId",
          "type": "bytes4"
        },
        {
          "internalType": "bytes4",
          "name": "_callbackSelector",
          "type": "bytes4"
        },
        {
          "internalType": "bytes4",
          "name": "_magicNumber",
          "type": "bytes4"
        }
      ],
      "name": "registerStandardCallback",
      "outputs": [],
      "stateMutability": "nonpayable",
      "type": "function"
    },
    {
      "inputs": [
        {
          "internalType": "address",
          "name": "_where",
          "type": "address"
        },
        {
          "internalType": "address",
          "name": "_who",
          "type": "address"
        },
        {
          "internalType": "bytes32",
          "name": "_permissionId",
          "type": "bytes32"
        }
      ],
      "name": "revoke",
      "outputs": [],
      "stateMutability": "nonpayable",
      "type": "function"
    },
    {
      "inputs": [
        {
          "internalType": "string",
          "name": "newDaoURI",
          "type": "string"
        }
      ],
      "name": "setDaoURI",
      "outputs": [],
      "stateMutability": "nonpayable",
      "type": "function"
    },
    {
      "inputs": [
        {
          "internalType": "bytes",
          "name": "_metadata",
          "type": "bytes"
        }
      ],
      "name": "setMetadata",
      "outputs": [],
      "stateMutability": "nonpayable",
      "type": "function"
    },
    {
      "inputs": [
        {
          "internalType": "address",
          "name": "_signatureValidator",
          "type": "address"
        }
      ],
      "name": "setSignatureValidator",
      "outputs": [],
      "stateMutability": "nonpayable",
      "type": "function"
    },
    {
      "inputs": [
        {
          "internalType": "address",
          "name": "_newTrustedForwarder",
          "type": "address"
        }
      ],
      "name": "setTrustedForwarder",
      "outputs": [],
      "stateMutability": "nonpayable",
      "type": "function"
    },
    {
      "inputs": [],
      "name": "signatureValidator",
      "outputs": [
        {
          "internalType": "contract IERC1271",
          "name": "",
          "type": "address"
        }
      ],
      "stateMutability": "view",
      "type": "function"
    },
    {
      "inputs": [
        {
          "internalType": "bytes4",
          "name": "interfaceId",
          "type": "bytes4"
        }
      ],
      "name": "supportsInterface",
      "outputs": [
        {
          "internalType": "bool",
          "name": "",
          "type": "bool"
        }
      ],
      "stateMutability": "view",
      "type": "function"
    },
    {
      "inputs": [
        {
          "internalType": "address",
          "name": "newImplementation",
          "type": "address"
        }
      ],
      "name": "upgradeTo",
      "outputs": [],
      "stateMutability": "nonpayable",
      "type": "function"
    },
    {
      "inputs": [
        {
          "internalType": "address",
          "name": "newImplementation",
          "type": "address"
        },
        {
          "internalType": "bytes",
          "name": "data",
          "type": "bytes"
        }
      ],
      "name": "upgradeToAndCall",
      "outputs": [],
      "stateMutability": "payable",
      "type": "function"
    },
    {
      "stateMutability": "payable",
      "type": "receive"
    }
  ],
  "bytecode": {
    "object": "0x60a0604052306080523480156200001557600080fd5b506200002062000026565b620000e7565b600054610100900460ff1615620000935760405162461bcd60e51b815260206004820152602760248201527f496e697469616c697a61626c653a20636f6e747261637420697320696e697469604482015266616c697a696e6760c81b606482015260840160405180910390fd5b60005460ff90811614620000e5576000805460ff191660ff9081179091556040519081527f7f26b83ff96e1f2b6a682f133852f6798a09c465da95921460cefb38474024989060200160405180910390a15b565b608051612f1c6200011f600039600081816109c401528181610a0401528181610b2401528181610b640152610bf70152612f1c6000f3fe6080604052600436106101d15760003560e01c8063829331a1116100f7578063d96054c411610095578063e978afe511610064578063e978afe51461068e578063eafb8b06146106ae578063ee57e36f146106ce578063fdef9106146106ee57610210565b8063d96054c4146105f8578063da74222814610618578063e2e3556314610638578063e306bee71461066c57610210565b8063c71bf324116100d1578063c71bf3241461056b578063c9dbc2a414610599578063ce1b815f146105b9578063d68bad2c146105d857610210565b8063829331a114610504578063bfe07da614610538578063c4a501451461054b57610210565b80632675fdd01161016f5780633e2ab0d91161013e5780633e2ab0d91461049a5780634f1ef286146104ba57806352d1902d146104cd5780637034731b146104e257610210565b80632675fdd0146103ed57806326875b1f1461040d5780633659cfe614610441578063388da9341461046157610210565b80631080f99b116101ab5780631080f99b1461033e5780631626ba7e1461036057806322844d041461039957806324b4d73f146103b957610210565b806301ffc9a7146102a55780630729d054146102da57806309e56b141461031c57610210565b3661021057604080513381523460208201527f62c2c8e34665db7c56b2cabd7f5fb9702ccd352ffa8150147e450797e9f8e8f3910160405180910390a1005b34801561021c57600080fd5b50600036606060006102706000356001600160e01b03191685858080601f01602080910402602001604051908101604052809392919081815260200183838082843760009201919091525061070e92505050565b604080516001600160e01b03198316602082015291925001604051602081830303815290604052915050915050805190602001f35b3480156102b157600080fd5b506102c56102c03660046121e4565b6107b7565b60405190151581526020015b60405180910390f35b3480156102e657600080fd5b5061030e7fbf04b4486c9663d805744005c3da000eda93de6e3308a4a7a812eb565327b78d81565b6040519081526020016102d1565b34801561032857600080fd5b5061030e600080516020612ec783398151915281565b34801561034a57600080fd5b5061035e610359366004612249565b6107f3565b005b34801561036c57600080fd5b5061038061037b36600461232c565b61081a565b6040516001600160e01b031990911681526020016102d1565b3480156103a557600080fd5b5061035e6103b4366004612387565b6108b1565b3480156103c557600080fd5b5061030e7f1f53edd44352e5d15bad2b29233baa93bcd595e09457780bc7c5445bbbe751cc81565b3480156103f957600080fd5b506102c561040836600461240e565b61096f565b34801561041957600080fd5b5061030e7ffaf505be9907aa6951c2ebe5b0312f4980e14f21912ed355372103cc8bd683bc81565b34801561044d57600080fd5b5061035e61045c366004612479565b6109ba565b34801561046d57600080fd5b5061012d54610482906001600160a01b031681565b6040516001600160a01b0390911681526020016102d1565b3480156104a657600080fd5b5061035e6104b5366004612479565b610a99565b61035e6104c8366004612496565b610b1a565b3480156104d957600080fd5b5061030e610bea565b3480156104ee57600080fd5b506104f7610c9d565b6040516102d1919061251f565b34801561051057600080fd5b5061030e7f06d294bc8cbad2e393408b20dd019a772661f60b8d633e56761157cb1ec85f8c81565b61035e610546366004612532565b610d30565b34801561055757600080fd5b5061035e61056636600461258d565b610e1f565b34801561057757600080fd5b5061058b6105863660046125d8565b610eae565b6040516102d19291906126b1565b3480156105a557600080fd5b5061035e6105b43660046126d3565b61113d565b3480156105c557600080fd5b5061012e546001600160a01b0316610482565b3480156105e457600080fd5b5061035e6105f3366004612726565b611161565b34801561060457600080fd5b5061035e610613366004612726565b61118a565b34801561062457600080fd5b5061035e610633366004612479565b6111ad565b34801561064457600080fd5b5061030e7f0dcbfb19b09fb8ff4e9af583d4b8e9c8127cc1b26529b4d96dd3b7e77808837281565b34801561067857600080fd5b5061030e600080516020612e6083398151915281565b34801561069a57600080fd5b5061035e6106a9366004612767565b6111e0565b3480156106ba57600080fd5b5061035e6106c93660046127db565b6112d5565b3480156106da57600080fd5b5061035e6106e9366004612249565b611442565b3480156106fa57600080fd5b506102c561070936600461240e565b611464565b6001600160e01b0319808316600090815260fb6020526040812054909160e09190911b90811661076a57604051632a5ee61f60e11b81526001600160e01b03198086166004830152821660248201526044015b60405180910390fd5b836001600160e01b0319167f4792cb6e46e49876374bea490ba23274bacea6b84c216a64f47abab54027589b33856040516107a6929190612873565b60405180910390a290505b92915050565b60006301ffc9a760e01b6001600160e01b0319831614806107b15750506001600160e01b03191660009081526033602052604090205460ff1690565b600080516020612e6083398151915261080b81611472565b61081583836114e1565b505050565b61012d546000906001600160a01b0316610836575060006107b1565b61012d54604051630b135d3f60e11b81526001600160a01b0390911690631626ba7e906108699086908690600401612897565b602060405180830381865afa158015610886573d6000803e3d6000fd5b505050506040513d601f19601f820116820180604052508101906108aa91906128b0565b9392505050565b600080516020612ec78339815191526108c981611472565b60005b828110156109685760008484838181106108e8576108e86128cd565b9050606002018036038101906108fe91906128f7565b90506000815160028111156109155761091561295f565b036109325761092d8682602001518360400151611521565b61095f565b6001815160028111156109475761094761295f565b0361095f5761095f868260200151836040015161152e565b506001016108cc565b5050505050565b600061097d858585856115c2565b806109965750610996856001600160a01b0385856115c2565b806109af57506109af6001600160a01b038585856115c2565b90505b949350505050565b6001600160a01b037f0000000000000000000000000000000000000000000000000000000000000000163003610a025760405162461bcd60e51b815260040161076190612975565b7f00000000000000000000000000000000000000000000000000000000000000006001600160a01b0316610a4b600080516020612e80833981519152546001600160a01b031690565b6001600160a01b031614610a715760405162461bcd60e51b8152600401610761906129c1565b610a7a816116aa565b60408051600080825260208201909252610a96918391906116d4565b50565b7f0dcbfb19b09fb8ff4e9af583d4b8e9c8127cc1b26529b4d96dd3b7e778088372610ac381611472565b61012d80546001600160a01b0319166001600160a01b0384169081179091556040519081527f3b25c5d3870ec0eac28822b177f18c9130233ade5b7f857c6a224a507c37fc4e906020015b60405180910390a15050565b6001600160a01b037f0000000000000000000000000000000000000000000000000000000000000000163003610b625760405162461bcd60e51b815260040161076190612975565b7f00000000000000000000000000000000000000000000000000000000000000006001600160a01b0316610bab600080516020612e80833981519152546001600160a01b031690565b6001600160a01b031614610bd15760405162461bcd60e51b8152600401610761906129c1565b610bda826116aa565b610be6828260016116d4565b5050565b6000306001600160a01b037f00000000000000000000000000000000000000000000000000000000000000001614610c8a5760405162461bcd60e51b815260206004820152603860248201527f555550535570677261646561626c653a206d757374206e6f742062652063616c60448201527f6c6564207468726f7567682064656c656761746563616c6c00000000000000006064820152608401610761565b50600080516020612e8083398151915290565b606061012f8054610cad90612a0d565b80601f0160208091040260200160405190810160405280929190818152602001828054610cd990612a0d565b8015610d265780601f10610cfb57610100808354040283529160200191610d26565b820191906000526020600020905b815481529060010190602001808311610d0957829003601f168201915b5050505050905090565b82600003610d5157604051631f2a200560e01b815260040160405180910390fd5b6001600160a01b038416610d8d57823414610d88576040516301abd56160e41b815260048101849052346024820152604401610761565b610dca565b3415610db5576040516301abd56160e41b815260006004820152346024820152604401610761565b610dca6001600160a01b03851633308661183f565b836001600160a01b0316336001600160a01b03167f2bc500cf071be2d1c1458ed6ff484cd4db4345ada8943dee7ff29e7af3558f76858585604051610e1193929190612a70565b60405180910390a350505050565b7ffaf505be9907aa6951c2ebe5b0312f4980e14f21912ed355372103cc8bd683bc610e4981611472565b610e5284611899565b610e5c8383611918565b604080516001600160e01b03198681168252858116602083015284168183015290517ffc72fd547553f7a663e0048e590afc9c47b56a4242e960f31cf4c62e23d308b99181900360600190a150505050565b606060007fbf04b4486c9663d805744005c3da000eda93de6e3308a4a7a812eb565327b78d610edc81611472565b610100851115610eff576040516308e3b1eb60e11b815260040160405180910390fd5b846001600160401b03811115610f1757610f1761228a565b604051908082528060200260200182016040528015610f4a57816020015b6060815260200190600190039081610f355790505b50925060008060005b878110156110e5575a92506000808a8a84818110610f7357610f736128cd565b9050602002810190610f859190612a8a565b610f93906020810190612479565b6001600160a01b03168b8b85818110610fae57610fae6128cd565b9050602002810190610fc09190612a8a565b602001358c8c86818110610fd657610fd66128cd565b9050602002810190610fe89190612a8a565b610ff6906040810190612aaa565b604051611004929190612af0565b60006040518083038185875af1925050503d8060008114611041576040519150601f19603f3d011682016040523d82523d6000602084013e611046565b606091505b50915091505a9350600160ff84161b8916611081578161107c5760405163a6a7dbbd60e01b815260048101849052602401610761565b6110bd565b816110bd57611091604086612b00565b8410156110b1576040516307099c5360e21b815260040160405180910390fd5b600160ff84161b871896505b808884815181106110d0576110d06128cd565b60209081029190910101525050600101610f53565b50336001600160a01b03167fd4e57c2049f004fb297ef78591cd409503ceb6b2c722d7ffed032fc99e5f3b588a8a8a8a898b60405161112996959493929190612b22565b60405180910390a250505094509492505050565b600080516020612ec783398151915261115581611472565b6109688585858561194a565b600080516020612ec783398151915261117981611472565b611184848484611521565b50505050565b600080516020612ec78339815191526111a281611472565b61118484848461152e565b7f06d294bc8cbad2e393408b20dd019a772661f60b8d633e56761157cb1ec85f8c6111d781611472565b610be682611b1f565b600080516020612ec78339815191526111f881611472565b60005b82811015611184576000848483818110611217576112176128cd565b905060a0020180360381019061122d9190612c30565b90506000815160028111156112445761124461295f565b0361126557611260816020015182604001518360800151611521565b6112cc565b60018151600281111561127a5761127a61295f565b036112965761126081602001518260400151836080015161152e565b6002815160028111156112ab576112ab61295f565b036112cc576112cc816020015182604001518360800151846060015161194a565b506001016111fb565b600054610100900460ff16158080156112f55750600054600160ff909116105b8061130f5750303b15801561130f575060005460ff166001145b6113725760405162461bcd60e51b815260206004820152602e60248201527f496e697469616c697a61626c653a20636f6e747261637420697320616c72656160448201526d191e481a5b9a5d1a585b1a5e995960921b6064820152608401610761565b6000805460ff191660011790558015611395576000805461ff0019166101001790555b6113a56349c2aa3f60e11b611899565b6113b5630b135d3f60e11b611899565b6113c5637034731b60e01b611899565b6113cd611b74565b6113d78787611bc9565b6113e084611b1f565b6113ea83836114e1565b6113f385611bfa565b8015611439576000805461ff0019169055604051600181527f7f26b83ff96e1f2b6a682f133852f6798a09c465da95921460cefb38474024989060200160405180910390a15b50505050505050565b600080516020612e6083398151915261145a81611472565b6108158383611bc9565b60006109af8585858561096f565b6114b53033836000368080601f01602080910402602001604051908101604052809392919081815260200183838082843760009201919091525061096f92505050565b610a9657604051631e09743f60e01b815230600482015233602482015260448101829052606401610761565b61012f6114ef828483612d0c565b507fe9b617ecb5f63f6a9ccd8d4d5fa0d7b2ef9b17ce3f48e6b135808d6a40e677428282604051610b0e929190612dcb565b610815838383600261194a565b600061153b848484611c6e565b600081815260c960205260409020549091506001600160a01b03161561118457600081815260c9602090815260409182902080546001600160a01b031916905590516001600160a01b038681168252851691339185917f3ca48185ec3f6e47e24db18b13f1c65b1ce05da1659f9c1c4fe717dda5f67524910160405180910390a450505050565b60008060c960006115d4888888611c6e565b81526020810191909152604001600020546001600160a01b03169050806115ff5760009150506109b2565b6001196001600160a01b0382160161161b5760019150506109b2565b6040516302675fdd60e41b81526001600160a01b03821690632675fdd09061164d908990899089908990600401612ddf565b602060405180830381865afa925050508015611686575060408051601f3d908101601f1916820190925261168391810190612e12565b60015b1561169e57801561169c576001925050506109b2565b505b50600095945050505050565b7f1f53edd44352e5d15bad2b29233baa93bcd595e09457780bc7c5445bbbe751cc610be681611472565b7f4910fdfa16fed3260ed0e7147f7cc6da11a60208b5b9406d12a635614ffd91435460ff16156117075761081583611cd3565b826001600160a01b03166352d1902d6040518163ffffffff1660e01b8152600401602060405180830381865afa925050508015611761575060408051601f3d908101601f1916820190925261175e91810190612e34565b60015b6117c45760405162461bcd60e51b815260206004820152602e60248201527f45524331393637557067726164653a206e657720696d706c656d656e7461746960448201526d6f6e206973206e6f74205555505360901b6064820152608401610761565b600080516020612e8083398151915281146118335760405162461bcd60e51b815260206004820152602960248201527f45524331393637557067726164653a20756e737570706f727465642070726f786044820152681a58589b195555525160ba1b6064820152608401610761565b50610815838383611d6f565b604080516001600160a01b0385811660248301528416604482015260648082018490528251808303909101815260849091019091526020810180516001600160e01b03166323b872dd60e01b179052611184908590611d94565b6001600160e01b031980821690036118f35760405162461bcd60e51b815260206004820152601c60248201527f4552433136353a20696e76616c696420696e74657266616365206964000000006044820152606401610761565b6001600160e01b0319166000908152603360205260409020805460ff19166001179055565b6001600160e01b031991909116600090815260fb60205260409020805463ffffffff191660e09290921c919091179055565b6001600160a01b0384811614801561196a57506001600160a01b03838116145b15611988576040516385f1ba9960e01b815260040160405180910390fd5b6001600160a01b0384811614806119a757506001600160a01b03838116145b15611a1d5760006119b783611e69565b9050600080516020612ec78339815191528314806119d25750805b156119f0576040516324159e5b60e01b815260040160405180910390fd5b6001196001600160a01b03831601611a1b576040516324aadf4360e21b815260040160405180910390fd5b505b6000611a2a858585611c6e565b600081815260c960205260409020549091506001600160a01b03168281611ac357600083815260c9602090815260409182902080546001600160a01b0319166001600160a01b038581169190911790915582518a8216815287821692810192909252881691339188917f0f579ad49235a8c1fd9041427e7067b1eb10926bbed380bf6fabc73e0e807644910160405180910390a4611439565b806001600160a01b0316826001600160a01b031614611439576040516305cc3c4f60e11b81526001600160a01b03808916600483015280881660248301526044820187905280841660648301528216608482015260a401610761565b61012e80546001600160a01b0319166001600160a01b0383169081179091556040519081527fd91237492a9e30cd2faf361fc103998a382ff0ec2b1b07dc1cbebb76ae2f1ea29060200160405180910390a150565b611b84630a85bd0160e11b611899565b611b94630271189760e51b611899565b611ba5630a85bd0160e11b80611918565b611bb663f23a6e6160e01b80611918565b611bc763bc197c8160e01b80611918565b565b7fbb39ebb37e60fb5d606ffdb749d2336e56b88e6c88c4bd6513b308f643186eed8282604051610b0e929190612dcb565b600054610100900460ff16611c655760405162461bcd60e51b815260206004820152602b60248201527f496e697469616c697a61626c653a20636f6e7472616374206973206e6f74206960448201526a6e697469616c697a696e6760a81b6064820152608401610761565b610a9681611f50565b604051692822a926a4a9a9a4a7a760b11b60208201526bffffffffffffffffffffffff19606084811b8216602a84015285901b16603e820152605281018290526000906072016040516020818303038152906040528051906020012090509392505050565b6001600160a01b0381163b611d405760405162461bcd60e51b815260206004820152602d60248201527f455243313936373a206e657720696d706c656d656e746174696f6e206973206e60448201526c1bdd08184818dbdb9d1c9858dd609a1b6064820152608401610761565b600080516020612e8083398151915280546001600160a01b0319166001600160a01b0392909216919091179055565b611d7883611f69565b600082511180611d855750805b15610815576111848383611fa9565b6000611de9826040518060400160405280602081526020017f5361666545524332303a206c6f772d6c6576656c2063616c6c206661696c6564815250856001600160a01b0316611fce9092919063ffffffff16565b9050805160001480611e0a575080806020019051810190611e0a9190612e12565b6108155760405162461bcd60e51b815260206004820152602a60248201527f5361666545524332303a204552433230206f7065726174696f6e20646964206e6044820152691bdd081cdd58d8d9595960b21b6064820152608401610761565b60007fbf04b4486c9663d805744005c3da000eda93de6e3308a4a7a812eb565327b78d821480611eb857507f1f53edd44352e5d15bad2b29233baa93bcd595e09457780bc7c5445bbbe751cc82145b80611ed05750600080516020612e6083398151915282145b80611efa57507f06d294bc8cbad2e393408b20dd019a772661f60b8d633e56761157cb1ec85f8c82145b80611f2457507f0dcbfb19b09fb8ff4e9af583d4b8e9c8127cc1b26529b4d96dd3b7e77808837282145b806107b15750507ffaf505be9907aa6951c2ebe5b0312f4980e14f21912ed355372103cc8bd683bc1490565b610a963082600080516020612ec7833981519152611521565b611f7281611cd3565b6040516001600160a01b038216907fbc7cd75a20ee27fd9adebab32041f755214dbc6bffa90cc0225b39da2e5c2d3b90600090a250565b60606108aa8383604051806060016040528060278152602001612ea060279139611fdd565b60606109b28484600085612055565b6060600080856001600160a01b031685604051611ffa9190612e4d565b600060405180830381855af49150503d8060008114612035576040519150601f19603f3d011682016040523d82523d6000602084013e61203a565b606091505b509150915061204b86838387612130565b9695505050505050565b6060824710156120b65760405162461bcd60e51b815260206004820152602660248201527f416464726573733a20696e73756666696369656e742062616c616e636520666f6044820152651c8818d85b1b60d21b6064820152608401610761565b600080866001600160a01b031685876040516120d29190612e4d565b60006040518083038185875af1925050503d806000811461210f576040519150601f19603f3d011682016040523d82523d6000602084013e612114565b606091505b509150915061212587838387612130565b979650505050505050565b6060831561219f578251600003612198576001600160a01b0385163b6121985760405162461bcd60e51b815260206004820152601d60248201527f416464726573733a2063616c6c20746f206e6f6e2d636f6e74726163740000006044820152606401610761565b50816109b2565b6109b283838151156121b45781518083602001fd5b8060405162461bcd60e51b8152600401610761919061251f565b6001600160e01b031981168114610a9657600080fd5b6000602082840312156121f657600080fd5b81356108aa816121ce565b60008083601f84011261221357600080fd5b5081356001600160401b0381111561222a57600080fd5b60208301915083602082850101111561224257600080fd5b9250929050565b6000806020838503121561225c57600080fd5b82356001600160401b0381111561227257600080fd5b61227e85828601612201565b90969095509350505050565b634e487b7160e01b600052604160045260246000fd5b600082601f8301126122b157600080fd5b81356001600160401b03808211156122cb576122cb61228a565b604051601f8301601f19908116603f011681019082821181831017156122f3576122f361228a565b8160405283815286602085880101111561230c57600080fd5b836020870160208301376000602085830101528094505050505092915050565b6000806040838503121561233f57600080fd5b8235915060208301356001600160401b0381111561235c57600080fd5b612368858286016122a0565b9150509250929050565b6001600160a01b0381168114610a9657600080fd5b60008060006040848603121561239c57600080fd5b83356123a781612372565b925060208401356001600160401b03808211156123c357600080fd5b818601915086601f8301126123d757600080fd5b8135818111156123e657600080fd5b8760206060830285010111156123fb57600080fd5b6020830194508093505050509250925092565b6000806000806080858703121561242457600080fd5b843561242f81612372565b9350602085013561243f81612372565b92506040850135915060608501356001600160401b0381111561246157600080fd5b61246d878288016122a0565b91505092959194509250565b60006020828403121561248b57600080fd5b81356108aa81612372565b600080604083850312156124a957600080fd5b82356124b481612372565b915060208301356001600160401b0381111561235c57600080fd5b60005b838110156124ea5781810151838201526020016124d2565b50506000910152565b6000815180845261250b8160208601602086016124cf565b601f01601f19169290920160200192915050565b6020815260006108aa60208301846124f3565b6000806000806060858703121561254857600080fd5b843561255381612372565b93506020850135925060408501356001600160401b0381111561257557600080fd5b61258187828801612201565b95989497509550505050565b6000806000606084860312156125a257600080fd5b83356125ad816121ce565b925060208401356125bd816121ce565b915060408401356125cd816121ce565b809150509250925092565b600080600080606085870312156125ee57600080fd5b8435935060208501356001600160401b038082111561260c57600080fd5b818701915087601f83011261262057600080fd5b81358181111561262f57600080fd5b8860208260051b850101111561264457600080fd5b95986020929092019750949560400135945092505050565b600081518084526020808501808196508360051b8101915082860160005b858110156126a45782840389526126928483516124f3565b9885019893509084019060010161267a565b5091979650505050505050565b6040815260006126c4604083018561265c565b90508260208301529392505050565b600080600080608085870312156126e957600080fd5b84356126f481612372565b9350602085013561270481612372565b925060408501359150606085013561271b81612372565b939692955090935050565b60008060006060848603121561273b57600080fd5b833561274681612372565b9250602084013561275681612372565b929592945050506040919091013590565b6000806020838503121561277a57600080fd5b82356001600160401b038082111561279157600080fd5b818501915085601f8301126127a557600080fd5b8135818111156127b457600080fd5b86602060a0830285010111156127c957600080fd5b60209290920196919550909350505050565b600080600080600080608087890312156127f457600080fd5b86356001600160401b038082111561280b57600080fd5b6128178a838b01612201565b90985096506020890135915061282c82612372565b90945060408801359061283e82612372565b9093506060880135908082111561285457600080fd5b5061286189828a01612201565b979a9699509497509295939492505050565b6001600160a01b03831681526040602082018190526000906109b2908301846124f3565b8281526040602082015260006109b260408301846124f3565b6000602082840312156128c257600080fd5b81516108aa816121ce565b634e487b7160e01b600052603260045260246000fd5b8035600381106128f257600080fd5b919050565b60006060828403121561290957600080fd5b604051606081018181106001600160401b038211171561292b5761292b61228a565b604052612937836128e3565b8152602083013561294781612372565b60208201526040928301359281019290925250919050565b634e487b7160e01b600052602160045260246000fd5b6020808252602c908201527f46756e6374696f6e206d7573742062652063616c6c6564207468726f7567682060408201526b19195b1959d85d1958d85b1b60a21b606082015260800190565b6020808252602c908201527f46756e6374696f6e206d7573742062652063616c6c6564207468726f7567682060408201526b6163746976652070726f787960a01b606082015260800190565b600181811c90821680612a2157607f821691505b602082108103612a4157634e487b7160e01b600052602260045260246000fd5b50919050565b81835281816020850137506000828201602090810191909152601f909101601f19169091010190565b8381526040602082015260006109af604083018486612a47565b60008235605e19833603018112612aa057600080fd5b9190910192915050565b6000808335601e19843603018112612ac157600080fd5b8301803591506001600160401b03821115612adb57600080fd5b60200191503681900382131561224257600080fd5b8183823760009101908152919050565b600082612b1d57634e487b7160e01b600052601260045260246000fd5b500490565b600060a08201888352602060a0818501528188835260c08501905060c08960051b86010192508960005b8a811015612c015786850360bf190183528135368d9003605e19018112612b7257600080fd5b8c0160608135612b8181612372565b6001600160a01b03168752818601358688015260408083013536849003601e19018112612bad57600080fd5b9092018681019290356001600160401b03811115612bca57600080fd5b803603841315612bd957600080fd5b82828a0152612beb838a018286612a47565b9850505093850193505090830190600101612b4c565b505050508560408401528460608401528281036080840152612c23818561265c565b9998505050505050505050565b600060a08284031215612c4257600080fd5b60405160a081018181106001600160401b0382111715612c6457612c6461228a565b604052612c70836128e3565b81526020830135612c8081612372565b60208201526040830135612c9381612372565b60408201526060830135612ca681612372565b60608201526080928301359281019290925250919050565b601f82111561081557600081815260208120601f850160051c81016020861015612ce55750805b601f850160051c820191505b81811015612d0457828155600101612cf1565b505050505050565b6001600160401b03831115612d2357612d2361228a565b612d3783612d318354612a0d565b83612cbe565b6000601f841160018114612d6b5760008515612d535750838201355b600019600387901b1c1916600186901b178355610968565b600083815260209020601f19861690835b82811015612d9c5786850135825560209485019460019092019101612d7c565b5086821015612db95760001960f88860031b161c19848701351681555b505060018560011b0183555050505050565b6020815260006109b2602083018486612a47565b6001600160a01b038581168252841660208201526040810183905260806060820181905260009061204b908301846124f3565b600060208284031215612e2457600080fd5b815180151581146108aa57600080fd5b600060208284031215612e4657600080fd5b5051919050565b60008251612aa08184602087016124cf56fe4707e94b25cfce1a7c363508fbb838c35864388ad77284b248282b9746982b9b360894a13ba1a3210667c828492db98dca3e2076cc3735a920a3ca505d382bbc416464726573733a206c6f772d6c6576656c2064656c65676174652063616c6c206661696c6564815fe80e4b37c8582a3b773d1d7071f983eacfd56b5965db654f3087c25ada33a2646970667358221220ff3e75c85a549209d04ff41e6765c690ce535882cc5348dcfda7eca2d2600fd464736f6c63430008110033",
    "linkReferences": {}
  },
  "methodIdentifiers": {
    "EXECUTE_PERMISSION_ID()": "0729d054",
    "REGISTER_STANDARD_CALLBACK_PERMISSION_ID()": "26875b1f",
    "ROOT_PERMISSION_ID()": "09e56b14",
    "SET_METADATA_PERMISSION_ID()": "e306bee7",
    "SET_SIGNATURE_VALIDATOR_PERMISSION_ID()": "e2e35563",
    "SET_TRUSTED_FORWARDER_PERMISSION_ID()": "829331a1",
    "UPGRADE_DAO_PERMISSION_ID()": "24b4d73f",
    "applyMultiTargetPermissions((uint8,address,address,address,bytes32)[])": "e978afe5",
    "applySingleTargetPermissions(address,(uint8,address,bytes32)[])": "22844d04",
    "daoURI()": "7034731b",
    "deposit(address,uint256,string)": "bfe07da6",
    "execute(bytes32,(address,uint256,bytes)[],uint256)": "c71bf324",
    "getTrustedForwarder()": "ce1b815f",
    "grant(address,address,bytes32)": "d68bad2c",
    "grantWithCondition(address,address,bytes32,address)": "c9dbc2a4",
    "hasPermission(address,address,bytes32,bytes)": "fdef9106",
    "initialize(bytes,address,address,string)": "eafb8b06",
    "isGranted(address,address,bytes32,bytes)": "2675fdd0",
    "isValidSignature(bytes32,bytes)": "1626ba7e",
    "proxiableUUID()": "52d1902d",
    "registerStandardCallback(bytes4,bytes4,bytes4)": "c4a50145",
    "revoke(address,address,bytes32)": "d96054c4",
    "setDaoURI(string)": "1080f99b",
    "setMetadata(bytes)": "ee57e36f",
    "setSignatureValidator(address)": "3e2ab0d9",
    "setTrustedForwarder(address)": "da742228",
    "signatureValidator()": "388da934",
    "supportsInterface(bytes4)": "01ffc9a7",
    "upgradeTo(address)": "3659cfe6",
    "upgradeToAndCall(address,bytes)": "4f1ef286"
  },
  "id": 50
}